{
  "_format": "hh-sol-artifact-1",
  "contractName": "CootiesV2",
  "sourceName": "contracts/CootiesV2.sol",
  "abi": [
    {
      "inputs": [
        {
          "internalType": "string",
          "name": "_name",
          "type": "string"
        },
        {
          "internalType": "string",
          "name": "_symbol",
          "type": "string"
        },
        {
          "internalType": "string",
          "name": "_baseUrl",
          "type": "string"
        },
        {
          "internalType": "uint256",
          "name": "_firstTokenId",
          "type": "uint256"
        },
        {
          "internalType": "uint256",
          "name": "_mintSupply",
          "type": "uint256"
        },
        {
          "internalType": "uint256",
          "name": "_mintPrice",
          "type": "uint256"
        },
        {
          "internalType": "address",
          "name": "_feeRecipient",
          "type": "address"
        },
        {
          "internalType": "uint256",
          "name": "_presaleStartTime",
          "type": "uint256"
        },
        {
          "internalType": "uint256",
          "name": "_presaleEndTime",
          "type": "uint256"
        },
        {
          "internalType": "uint256",
          "name": "_presaleSupply",
          "type": "uint256"
        }
      ],
      "stateMutability": "nonpayable",
      "type": "constructor"
    },
    {
      "anonymous": false,
      "inputs": [
        {
          "indexed": true,
          "internalType": "address",
          "name": "owner",
          "type": "address"
        },
        {
          "indexed": true,
          "internalType": "address",
          "name": "approved",
          "type": "address"
        },
        {
          "indexed": true,
          "internalType": "uint256",
          "name": "tokenId",
          "type": "uint256"
        }
      ],
      "name": "Approval",
      "type": "event"
    },
    {
      "anonymous": false,
      "inputs": [
        {
          "indexed": true,
          "internalType": "address",
          "name": "owner",
          "type": "address"
        },
        {
          "indexed": true,
          "internalType": "address",
          "name": "operator",
          "type": "address"
        },
        {
          "indexed": false,
          "internalType": "bool",
          "name": "approved",
          "type": "bool"
        }
      ],
      "name": "ApprovalForAll",
      "type": "event"
    },
    {
      "anonymous": false,
      "inputs": [
        {
          "indexed": true,
          "internalType": "address",
          "name": "previousOwner",
          "type": "address"
        },
        {
          "indexed": true,
          "internalType": "address",
          "name": "newOwner",
          "type": "address"
        }
      ],
      "name": "OwnershipTransferred",
      "type": "event"
    },
    {
      "anonymous": false,
      "inputs": [
        {
          "indexed": true,
          "internalType": "address",
          "name": "from",
          "type": "address"
        },
        {
          "indexed": true,
          "internalType": "address",
          "name": "to",
          "type": "address"
        },
        {
          "indexed": true,
          "internalType": "uint256",
          "name": "tokenId",
          "type": "uint256"
        }
      ],
      "name": "Transfer",
      "type": "event"
    },
    {
      "inputs": [
        {
          "internalType": "address",
          "name": "to",
          "type": "address"
        },
        {
          "internalType": "uint256",
          "name": "tokenId",
          "type": "uint256"
        }
      ],
      "name": "approve",
      "outputs": [],
      "stateMutability": "nonpayable",
      "type": "function"
    },
    {
      "inputs": [
        {
          "internalType": "address",
          "name": "owner",
          "type": "address"
        }
      ],
      "name": "balanceOf",
      "outputs": [
        {
          "internalType": "uint256",
          "name": "",
          "type": "uint256"
        }
      ],
      "stateMutability": "view",
      "type": "function"
    },
    {
      "inputs": [],
      "name": "baseUrl",
      "outputs": [
        {
          "internalType": "string",
          "name": "",
          "type": "string"
        }
      ],
      "stateMutability": "view",
      "type": "function"
    },
    {
      "inputs": [],
      "name": "feeRecipient",
      "outputs": [
        {
          "internalType": "address",
          "name": "",
          "type": "address"
        }
      ],
      "stateMutability": "view",
      "type": "function"
    },
    {
      "inputs": [],
      "name": "firstTokenId",
      "outputs": [
        {
          "internalType": "uint256",
          "name": "",
          "type": "uint256"
        }
      ],
      "stateMutability": "view",
      "type": "function"
    },
    {
      "inputs": [
        {
          "internalType": "address",
          "name": "_user",
          "type": "address"
        }
      ],
      "name": "freeMintsRem",
      "outputs": [
        {
          "internalType": "uint256",
          "name": "",
          "type": "uint256"
        }
      ],
      "stateMutability": "view",
      "type": "function"
    },
    {
      "inputs": [
        {
          "internalType": "uint256",
          "name": "tokenId",
          "type": "uint256"
        }
      ],
      "name": "getApproved",
      "outputs": [
        {
          "internalType": "address",
          "name": "",
          "type": "address"
        }
      ],
      "stateMutability": "view",
      "type": "function"
    },
    {
      "inputs": [
        {
          "internalType": "address",
          "name": "owner",
          "type": "address"
        },
        {
          "internalType": "address",
          "name": "operator",
          "type": "address"
        }
      ],
      "name": "isApprovedForAll",
      "outputs": [
        {
          "internalType": "bool",
          "name": "",
          "type": "bool"
        }
      ],
      "stateMutability": "view",
      "type": "function"
    },
    {
      "inputs": [],
      "name": "mintPrice",
      "outputs": [
        {
          "internalType": "uint256",
          "name": "",
          "type": "uint256"
        }
      ],
      "stateMutability": "view",
      "type": "function"
    },
    {
      "inputs": [],
      "name": "mintSupply",
      "outputs": [
        {
          "internalType": "uint256",
          "name": "",
          "type": "uint256"
        }
      ],
      "stateMutability": "view",
      "type": "function"
    },
    {
      "inputs": [],
      "name": "mintedAmt",
      "outputs": [
        {
          "internalType": "uint256",
          "name": "_value",
          "type": "uint256"
        }
      ],
      "stateMutability": "view",
      "type": "function"
    },
    {
      "inputs": [],
      "name": "name",
      "outputs": [
        {
          "internalType": "string",
          "name": "",
          "type": "string"
        }
      ],
      "stateMutability": "view",
      "type": "function"
    },
    {
      "inputs": [],
      "name": "owner",
      "outputs": [
        {
          "internalType": "address",
          "name": "",
          "type": "address"
        }
      ],
      "stateMutability": "view",
      "type": "function"
    },
    {
      "inputs": [
        {
          "internalType": "uint256",
          "name": "tokenId",
          "type": "uint256"
        }
      ],
      "name": "ownerOf",
      "outputs": [
        {
          "internalType": "address",
          "name": "",
          "type": "address"
        }
      ],
      "stateMutability": "view",
      "type": "function"
    },
    {
      "inputs": [],
      "name": "presaleEndTime",
      "outputs": [
        {
          "internalType": "uint256",
          "name": "",
          "type": "uint256"
        }
      ],
      "stateMutability": "view",
      "type": "function"
    },
    {
      "inputs": [],
      "name": "presaleMintedAmt",
      "outputs": [
        {
          "internalType": "uint256",
          "name": "",
          "type": "uint256"
        }
      ],
      "stateMutability": "view",
      "type": "function"
    },
    {
      "inputs": [],
      "name": "presaleStartTime",
      "outputs": [
        {
          "internalType": "uint256",
          "name": "",
          "type": "uint256"
        }
      ],
      "stateMutability": "view",
      "type": "function"
    },
    {
      "inputs": [],
      "name": "presaleSupply",
      "outputs": [
        {
          "internalType": "uint256",
          "name": "",
          "type": "uint256"
        }
      ],
      "stateMutability": "view",
      "type": "function"
    },
    {
      "inputs": [],
      "name": "renounceOwnership",
      "outputs": [],
      "stateMutability": "nonpayable",
      "type": "function"
    },
    {
      "inputs": [
        {
          "internalType": "uint256",
          "name": "_quantity",
          "type": "uint256"
        }
      ],
      "name": "safeMint",
      "outputs": [],
      "stateMutability": "payable",
      "type": "function"
    },
    {
      "inputs": [
        {
          "internalType": "address",
          "name": "from",
          "type": "address"
        },
        {
          "internalType": "address",
          "name": "to",
          "type": "address"
        },
        {
          "internalType": "uint256",
          "name": "tokenId",
          "type": "uint256"
        }
      ],
      "name": "safeTransferFrom",
      "outputs": [],
      "stateMutability": "nonpayable",
      "type": "function"
    },
    {
      "inputs": [
        {
          "internalType": "address",
          "name": "from",
          "type": "address"
        },
        {
          "internalType": "address",
          "name": "to",
          "type": "address"
        },
        {
          "internalType": "uint256",
          "name": "tokenId",
          "type": "uint256"
        },
        {
          "internalType": "bytes",
          "name": "data",
          "type": "bytes"
        }
      ],
      "name": "safeTransferFrom",
      "outputs": [],
      "stateMutability": "nonpayable",
      "type": "function"
    },
    {
      "inputs": [
        {
          "internalType": "address",
          "name": "operator",
          "type": "address"
        },
        {
          "internalType": "bool",
          "name": "approved",
          "type": "bool"
        }
      ],
      "name": "setApprovalForAll",
      "outputs": [],
      "stateMutability": "nonpayable",
      "type": "function"
    },
    {
      "inputs": [
        {
          "internalType": "bytes4",
          "name": "interfaceId",
          "type": "bytes4"
        }
      ],
      "name": "supportsInterface",
      "outputs": [
        {
          "internalType": "bool",
          "name": "",
          "type": "bool"
        }
      ],
      "stateMutability": "view",
      "type": "function"
    },
    {
      "inputs": [],
      "name": "symbol",
      "outputs": [
        {
          "internalType": "string",
          "name": "",
          "type": "string"
        }
      ],
      "stateMutability": "view",
      "type": "function"
    },
    {
      "inputs": [
        {
          "internalType": "uint256",
          "name": "index",
          "type": "uint256"
        }
      ],
      "name": "tokenByIndex",
      "outputs": [
        {
          "internalType": "uint256",
          "name": "",
          "type": "uint256"
        }
      ],
      "stateMutability": "view",
      "type": "function"
    },
    {
      "inputs": [
        {
          "internalType": "address",
          "name": "owner",
          "type": "address"
        },
        {
          "internalType": "uint256",
          "name": "index",
          "type": "uint256"
        }
      ],
      "name": "tokenOfOwnerByIndex",
      "outputs": [
        {
          "internalType": "uint256",
          "name": "",
          "type": "uint256"
        }
      ],
      "stateMutability": "view",
      "type": "function"
    },
    {
      "inputs": [
        {
          "internalType": "uint256",
          "name": "tokenId",
          "type": "uint256"
        }
      ],
      "name": "tokenURI",
      "outputs": [
        {
          "internalType": "string",
          "name": "",
          "type": "string"
        }
      ],
      "stateMutability": "view",
      "type": "function"
    },
    {
      "inputs": [],
      "name": "totalSupply",
      "outputs": [
        {
          "internalType": "uint256",
          "name": "",
          "type": "uint256"
        }
      ],
      "stateMutability": "view",
      "type": "function"
    },
    {
      "inputs": [
        {
          "internalType": "address",
          "name": "from",
          "type": "address"
        },
        {
          "internalType": "address",
          "name": "to",
          "type": "address"
        },
        {
          "internalType": "uint256",
          "name": "tokenId",
          "type": "uint256"
        }
      ],
      "name": "transferFrom",
      "outputs": [],
      "stateMutability": "nonpayable",
      "type": "function"
    },
    {
      "inputs": [
        {
          "internalType": "address",
          "name": "newOwner",
          "type": "address"
        }
      ],
      "name": "transferOwnership",
      "outputs": [],
      "stateMutability": "nonpayable",
      "type": "function"
    },
    {
      "inputs": [
        {
          "internalType": "string",
          "name": "_baseUrl",
          "type": "string"
        }
      ],
      "name": "updateBaseUrl",
      "outputs": [],
      "stateMutability": "nonpayable",
      "type": "function"
    },
    {
      "inputs": [
        {
          "internalType": "address",
          "name": "_feeRecipient",
          "type": "address"
        }
      ],
      "name": "updateFeeRecipient",
      "outputs": [],
      "stateMutability": "nonpayable",
      "type": "function"
    },
    {
      "inputs": [
        {
          "internalType": "uint256",
          "name": "_mintPrice",
          "type": "uint256"
        }
      ],
      "name": "updateMintPrice",
      "outputs": [],
      "stateMutability": "nonpayable",
      "type": "function"
    },
    {
      "inputs": [
        {
          "internalType": "uint256",
          "name": "_startTime",
          "type": "uint256"
        },
        {
          "internalType": "uint256",
          "name": "_endTime",
          "type": "uint256"
        },
        {
          "internalType": "uint256",
          "name": "_supply",
          "type": "uint256"
        }
      ],
      "name": "updatePresaleDetails",
      "outputs": [],
      "stateMutability": "nonpayable",
      "type": "function"
    },
    {
      "inputs": [
        {
          "internalType": "address[]",
          "name": "_accounts",
          "type": "address[]"
        },
        {
          "internalType": "uint256[]",
          "name": "_freeMints",
          "type": "uint256[]"
        },
        {
          "internalType": "bool",
          "name": "_isAdd",
          "type": "bool"
        }
      ],
      "name": "updateWhitelist",
      "outputs": [],
      "stateMutability": "nonpayable",
      "type": "function"
    },
    {
      "inputs": [
        {
          "internalType": "address",
          "name": "",
          "type": "address"
        }
      ],
      "name": "whitelistAccounts",
      "outputs": [
        {
          "internalType": "uint256",
          "name": "",
          "type": "uint256"
        }
      ],
      "stateMutability": "view",
      "type": "function"
    }
  ],
  "bytecode": "0x60806040523480156200001157600080fd5b5060405162002ac038038062002ac08339810160408190526200003491620002ab565b89518a908a906200004d90600090602085019062000131565b5080516200006390600190602084019062000131565b505050620000806200007a620000db60201b60201c565b620000df565b87516200009590600c9060208b019062000131565b50600d96909655600e94909455600f92909255601080546001600160a01b0319166001600160a01b039290921691909117905560145560155560125550620003de915050565b3390565b600a80546001600160a01b038381166001600160a01b0319831681179093556040519116919082907f8be0079c531659141344cd1fd0a4f28419497f9722a3daafe3b4186f6b6457e090600090a35050565b8280546200013f906200038b565b90600052602060002090601f016020900481019282620001635760008555620001ae565b82601f106200017e57805160ff1916838001178555620001ae565b82800160010185558215620001ae579182015b82811115620001ae57825182559160200191906001019062000191565b50620001bc929150620001c0565b5090565b5b80821115620001bc5760008155600101620001c1565b80516001600160a01b0381168114620001ef57600080fd5b919050565b600082601f8301126200020657600080fd5b81516001600160401b0380821115620002235762000223620003c8565b604051601f8301601f19908116603f011681019082821181831017156200024e576200024e620003c8565b816040528381526020925086838588010111156200026b57600080fd5b600091505b838210156200028f578582018301518183018401529082019062000270565b83821115620002a15760008385830101525b9695505050505050565b6000806000806000806000806000806101408b8d031215620002cc57600080fd5b8a516001600160401b0380821115620002e457600080fd5b620002f28e838f01620001f4565b9b5060208d01519150808211156200030957600080fd5b620003178e838f01620001f4565b9a5060408d01519150808211156200032e57600080fd5b506200033d8d828e01620001f4565b98505060608b0151965060808b0151955060a08b015194506200036360c08c01620001d7565b935060e08b015192506101008b015191506101208b015190509295989b9194979a5092959850565b600181811c90821680620003a057607f821691505b60208210811415620003c257634e487b7160e01b600052602260045260246000fd5b50919050565b634e487b7160e01b600052604160045260246000fd5b6126d280620003ee6000396000f3fe6080604052600436106102695760003560e01c80636817c76c11610153578063b88d4fde116100cb578063ea21e5eb1161007f578063f161053b11610064578063f161053b146106b9578063f2fde38b146106cf578063f467dbf3146106ef57600080fd5b8063ea21e5eb14610679578063f160d3691461069957600080fd5b8063c8df13a2116100b0578063c8df13a2146105e3578063d9f9e95314610610578063e985e9c51461063057600080fd5b8063b88d4fde146105a3578063c87b56dd146105c357600080fd5b806395d89b4111610122578063a82524b211610107578063a82524b214610541578063b3a196e914610557578063b48670211461056d57600080fd5b806395d89b411461050c578063a22cb4651461052157600080fd5b80636817c76c146104a357806370a08231146104b9578063715018a6146104d95780638da5cb5b146104ee57600080fd5b8063249b7c19116101e657806342842e0e116101b55780634f6ccce71161019a5780634f6ccce71461044e5780635bcabf041461046e5780636352211e1461048357600080fd5b806342842e0e1461040e578063469048401461042e57600080fd5b8063249b7c19146103af5780632f745c59146103c557806331c864e8146103e557806334781dd8146103f857600080fd5b8063081812fc1161023d57806318160ddd1161022257806318160ddd146103635780631adb068a1461037857806323b872dd1461038f57600080fd5b8063081812fc1461030b578063095ea7b31461034357600080fd5b8062728e461461026e57806301ffc9a714610290578063045b7dca146102c557806306fdde03146102e9575b600080fd5b34801561027a57600080fd5b5061028e610289366004612431565b61070f565b005b34801561029c57600080fd5b506102b06102ab366004612385565b61071c565b60405190151581526020015b60405180910390f35b3480156102d157600080fd5b506102db600e5481565b6040519081526020016102bc565b3480156102f557600080fd5b506102fe61072d565b6040516102bc919061250d565b34801561031757600080fd5b5061032b610326366004612431565b6107bf565b6040516001600160a01b0390911681526020016102bc565b34801561034f57600080fd5b5061028e61035e3660046122da565b6107e6565b34801561036f57600080fd5b506008546102db565b34801561038457600080fd5b506011546102db9081565b34801561039b57600080fd5b5061028e6103aa366004612198565b61091d565b3480156103bb57600080fd5b506102db60155481565b3480156103d157600080fd5b506102db6103e03660046122da565b6109a4565b61028e6103f3366004612431565b610a4c565b34801561040457600080fd5b506102db600d5481565b34801561041a57600080fd5b5061028e610429366004612198565b610c8f565b34801561043a57600080fd5b5060105461032b906001600160a01b031681565b34801561045a57600080fd5b506102db610469366004612431565b610caa565b34801561047a57600080fd5b506102fe610d4e565b34801561048f57600080fd5b5061032b61049e366004612431565b610ddc565b3480156104af57600080fd5b506102db600f5481565b3480156104c557600080fd5b506102db6104d436600461214a565b610e41565b3480156104e557600080fd5b5061028e610edb565b3480156104fa57600080fd5b50600a546001600160a01b031661032b565b34801561051857600080fd5b506102fe610eef565b34801561052d57600080fd5b5061028e61053c3660046122b0565b610efe565b34801561054d57600080fd5b506102db60145481565b34801561056357600080fd5b506102db60125481565b34801561057957600080fd5b506102db61058836600461214a565b6001600160a01b031660009081526016602052604090205490565b3480156105af57600080fd5b5061028e6105be3660046121d4565b610f09565b3480156105cf57600080fd5b506102fe6105de366004612431565b610f97565b3480156105ef57600080fd5b506102db6105fe36600461214a565b60166020526000908152604090205481565b34801561061c57600080fd5b5061028e61062b366004612304565b610ffe565b34801561063c57600080fd5b506102b061064b366004612165565b6001600160a01b03918216600090815260056020908152604080832093909416825291909152205460ff1690565b34801561068557600080fd5b5061028e6106943660046123bf565b6110fa565b3480156106a557600080fd5b5061028e6106b436600461214a565b61110e565b3480156106c557600080fd5b506102db60135481565b3480156106db57600080fd5b5061028e6106ea36600461214a565b611138565b3480156106fb57600080fd5b5061028e61070a36600461244a565b6111c8565b6107176111de565b600f55565b600061072782611238565b92915050565b60606000805461073c906125ae565b80601f0160208091040260200160405190810160405280929190818152602001828054610768906125ae565b80156107b55780601f1061078a576101008083540402835291602001916107b5565b820191906000526020600020905b81548152906001019060200180831161079857829003601f168201915b5050505050905090565b60006107ca82611276565b506000908152600460205260409020546001600160a01b031690565b60006107f182610ddc565b9050806001600160a01b0316836001600160a01b031614156108805760405162461bcd60e51b815260206004820152602160248201527f4552433732313a20617070726f76616c20746f2063757272656e74206f776e6560448201527f720000000000000000000000000000000000000000000000000000000000000060648201526084015b60405180910390fd5b336001600160a01b038216148061089c575061089c813361064b565b61090e5760405162461bcd60e51b815260206004820152603e60248201527f4552433732313a20617070726f76652063616c6c6572206973206e6f7420746f60448201527f6b656e206f776e6572206e6f7220617070726f76656420666f7220616c6c00006064820152608401610877565b61091883836112da565b505050565b6109273382611348565b6109995760405162461bcd60e51b815260206004820152602e60248201527f4552433732313a2063616c6c6572206973206e6f7420746f6b656e206f776e6560448201527f72206e6f7220617070726f7665640000000000000000000000000000000000006064820152608401610877565b6109188383836113c7565b60006109af83610e41565b8210610a235760405162461bcd60e51b815260206004820152602b60248201527f455243373231456e756d657261626c653a206f776e657220696e646578206f7560448201527f74206f6620626f756e64730000000000000000000000000000000000000000006064820152608401610877565b506001600160a01b03919091166000908152600660209081526040808320938352929052205490565b601554421015610bcd57601454421015610aa85760405162461bcd60e51b815260206004820152601a60248201527f50726573616c65206973206e6f742073746172746564207965740000000000006044820152606401610877565b60125481601354610ab99190612520565b1115610b075760405162461bcd60e51b815260206004820152601b60248201527f416c6c2070726573616c65204e46547320617265206d696e74656400000000006044820152606401610877565b8060136000828254610b199190612520565b909155505033600090815260166020526040902054811115610ba35760405162461bcd60e51b815260206004820152602360248201527f596f7520646f6573206e6f74206861766520656e6f7567682066726565206d6960448201527f6e747300000000000000000000000000000000000000000000000000000000006064820152608401610877565b3360009081526016602052604081208054839290610bc290849061256b565b90915550610c659050565b80600f54610bdb919061254c565b341015610c2a5760405162461bcd60e51b815260206004820152601c60248201527f496e73756666696369656e7420707572636861736520616d6f756e74000000006044820152606401610877565b6010546040516001600160a01b03909116904780156108fc02916000818181858888f19350505050158015610c63573d6000803e3d6000fd5b505b60005b81811015610c8b57610c793361159f565b80610c83816125e9565b915050610c68565b5050565b61091883838360405180602001604052806000815250610f09565b6000610cb560085490565b8210610d295760405162461bcd60e51b815260206004820152602c60248201527f455243373231456e756d657261626c653a20676c6f62616c20696e646578206f60448201527f7574206f6620626f756e647300000000000000000000000000000000000000006064820152608401610877565b60088281548110610d3c57610d3c61265a565b90600052602060002001549050919050565b600c8054610d5b906125ae565b80601f0160208091040260200160405190810160405280929190818152602001828054610d87906125ae565b8015610dd45780601f10610da957610100808354040283529160200191610dd4565b820191906000526020600020905b815481529060010190602001808311610db757829003601f168201915b505050505081565b6000818152600260205260408120546001600160a01b0316806107275760405162461bcd60e51b815260206004820152601860248201527f4552433732313a20696e76616c696420746f6b656e20494400000000000000006044820152606401610877565b60006001600160a01b038216610ebf5760405162461bcd60e51b815260206004820152602960248201527f4552433732313a2061646472657373207a65726f206973206e6f74206120766160448201527f6c6964206f776e657200000000000000000000000000000000000000000000006064820152608401610877565b506001600160a01b031660009081526003602052604090205490565b610ee36111de565b610eed60006116bb565b565b60606001805461073c906125ae565b610c8b33838361170d565b610f133383611348565b610f855760405162461bcd60e51b815260206004820152602e60248201527f4552433732313a2063616c6c6572206973206e6f7420746f6b656e206f776e6560448201527f72206e6f7220617070726f7665640000000000000000000000000000000000006064820152608401610877565b610f91848484846117dc565b50505050565b6060610fa282611276565b6000610fac61185a565b90506000815111610fcc5760405180602001604052806000815250610ff7565b80610fd684611869565b604051602001610fe79291906124a2565b6040516020818303038152906040525b9392505050565b6110066111de565b801561108d5760005b84811015611087578383828181106110295761102961265a565b90506020020135601660008888858181106110465761104661265a565b905060200201602081019061105b919061214a565b6001600160a01b031681526020810191909152604001600020558061107f816125e9565b91505061100f565b506110f3565b60005b848110156110f1576000601660008888858181106110b0576110b061265a565b90506020020160208101906110c5919061214a565b6001600160a01b03168152602081019190915260400160002055806110e9816125e9565b915050611090565b505b5050505050565b6111026111de565b610918600c8383612039565b6111166111de565b601080546001600160a01b0319166001600160a01b0392909216919091179055565b6111406111de565b6001600160a01b0381166111bc5760405162461bcd60e51b815260206004820152602660248201527f4f776e61626c653a206e6577206f776e657220697320746865207a65726f206160448201527f64647265737300000000000000000000000000000000000000000000000000006064820152608401610877565b6111c5816116bb565b50565b6111d06111de565b601492909255601555601255565b600a546001600160a01b03163314610eed5760405162461bcd60e51b815260206004820181905260248201527f4f776e61626c653a2063616c6c6572206973206e6f7420746865206f776e65726044820152606401610877565b60006001600160e01b031982167f780e9d6300000000000000000000000000000000000000000000000000000000148061072757506107278261199b565b6000818152600260205260409020546001600160a01b03166111c55760405162461bcd60e51b815260206004820152601860248201527f4552433732313a20696e76616c696420746f6b656e20494400000000000000006044820152606401610877565b600081815260046020526040902080546001600160a01b0319166001600160a01b038416908117909155819061130f82610ddc565b6001600160a01b03167f8c5be1e5ebec7d5bd14f71427d1e84f3dd0314c0f7b2291e5b200ac8c7c3b92560405160405180910390a45050565b60008061135483610ddc565b9050806001600160a01b0316846001600160a01b0316148061139b57506001600160a01b0380821660009081526005602090815260408083209388168352929052205460ff165b806113bf5750836001600160a01b03166113b4846107bf565b6001600160a01b0316145b949350505050565b826001600160a01b03166113da82610ddc565b6001600160a01b0316146114565760405162461bcd60e51b815260206004820152602560248201527f4552433732313a207472616e736665722066726f6d20696e636f72726563742060448201527f6f776e65720000000000000000000000000000000000000000000000000000006064820152608401610877565b6001600160a01b0382166114d15760405162461bcd60e51b8152602060048201526024808201527f4552433732313a207472616e7366657220746f20746865207a65726f2061646460448201527f72657373000000000000000000000000000000000000000000000000000000006064820152608401610877565b6114dc838383611a36565b6114e76000826112da565b6001600160a01b038316600090815260036020526040812080546001929061151090849061256b565b90915550506001600160a01b038216600090815260036020526040812080546001929061153e908490612520565b909155505060008181526002602052604080822080546001600160a01b0319166001600160a01b0386811691821790925591518493918716917fddf252ad1be2c89b69c2b068fc378daa952ba7f163c4a11628f55a4df523b3ef91a4505050565b60006115aa60115490565b600e546115b7919061256b565b9050600081116116095760405162461bcd60e51b815260206004820152601960248201527f416c6c20746f6b656e7320616c7265616479206d696e746564000000000000006044820152606401610877565b600d5460009061161a60018461256b565b6116249190612520565b90506000611634600d5484611a41565b6000818152600b602052604081205491925090611652575080611663565b506000818152600b60205260409020545b6000838152600b602052604090205461168c576000828152600b602052604090208390556116a3565b6000838152600b6020526040808220548483529120555b6116b1601180546001019055565b6110f38582611ab3565b600a80546001600160a01b038381166001600160a01b0319831681179093556040519116919082907f8be0079c531659141344cd1fd0a4f28419497f9722a3daafe3b4186f6b6457e090600090a35050565b816001600160a01b0316836001600160a01b0316141561176f5760405162461bcd60e51b815260206004820152601960248201527f4552433732313a20617070726f766520746f2063616c6c6572000000000000006044820152606401610877565b6001600160a01b03838116600081815260056020908152604080832094871680845294825291829020805460ff191686151590811790915591519182527f17307eab39ab6107e8899845ad3d59bd9653f200f220920489ca2b5937696c31910160405180910390a3505050565b6117e78484846113c7565b6117f384848484611acd565b610f915760405162461bcd60e51b815260206004820152603260248201527f4552433732313a207472616e7366657220746f206e6f6e20455243373231526560448201527131b2b4bb32b91034b6b83632b6b2b73a32b960711b6064820152608401610877565b6060600c805461073c906125ae565b6060816118a957505060408051808201909152600181527f3000000000000000000000000000000000000000000000000000000000000000602082015290565b8160005b81156118d357806118bd816125e9565b91506118cc9050600a83612538565b91506118ad565b60008167ffffffffffffffff8111156118ee576118ee612670565b6040519080825280601f01601f191660200182016040528015611918576020820181803683370190505b5090505b84156113bf5761192d60018361256b565b915061193a600a86612604565b611945906030612520565b60f81b81838151811061195a5761195a61265a565b60200101907effffffffffffffffffffffffffffffffffffffffffffffffffffffffffffff1916908160001a905350611994600a86612538565b945061191c565b60006001600160e01b031982167f80ac58cd0000000000000000000000000000000000000000000000000000000014806119fe57506001600160e01b031982167f5b5e139f00000000000000000000000000000000000000000000000000000000145b8061072757507f01ffc9a7000000000000000000000000000000000000000000000000000000006001600160e01b0319831614610727565b610918838383611c25565b6040516bffffffffffffffffffffffff1933606090811b8216602084015241901b1660348201524460488201524560688201524260888201526000908190839060a8016040516020818303038152906040528051906020012060001c611aa79190612604565b90506113bf8482612520565b610c8b828260405180602001604052806000815250611cdd565b60006001600160a01b0384163b15611c1a57604051630a85bd0160e11b81526001600160a01b0385169063150b7a0290611b119033908990889088906004016124d1565b602060405180830381600087803b158015611b2b57600080fd5b505af1925050508015611b5b575060408051601f3d908101601f19168201909252611b58918101906123a2565b60015b611c00573d808015611b89576040519150601f19603f3d011682016040523d82523d6000602084013e611b8e565b606091505b508051611bf85760405162461bcd60e51b815260206004820152603260248201527f4552433732313a207472616e7366657220746f206e6f6e20455243373231526560448201527131b2b4bb32b91034b6b83632b6b2b73a32b960711b6064820152608401610877565b805181602001fd5b6001600160e01b031916630a85bd0160e11b1490506113bf565b506001949350505050565b6001600160a01b038316611c8057611c7b81600880546000838152600960205260408120829055600182018355919091527ff3f7a9fe364faab93b216da50a3214154f22a0a2b415b23a84c8169e8b636ee30155565b611ca3565b816001600160a01b0316836001600160a01b031614611ca357611ca38382611d5b565b6001600160a01b038216611cba5761091881611df8565b826001600160a01b0316826001600160a01b031614610918576109188282611ea7565b611ce78383611eeb565b611cf46000848484611acd565b6109185760405162461bcd60e51b815260206004820152603260248201527f4552433732313a207472616e7366657220746f206e6f6e20455243373231526560448201527131b2b4bb32b91034b6b83632b6b2b73a32b960711b6064820152608401610877565b60006001611d6884610e41565b611d72919061256b565b600083815260076020526040902054909150808214611dc5576001600160a01b03841660009081526006602090815260408083208584528252808320548484528184208190558352600790915290208190555b5060009182526007602090815260408084208490556001600160a01b039094168352600681528383209183525290812055565b600854600090611e0a9060019061256b565b60008381526009602052604081205460088054939450909284908110611e3257611e3261265a565b906000526020600020015490508060088381548110611e5357611e5361265a565b6000918252602080832090910192909255828152600990915260408082208490558582528120556008805480611e8b57611e8b612644565b6001900381819060005260206000200160009055905550505050565b6000611eb283610e41565b6001600160a01b039093166000908152600660209081526040808320868452825280832085905593825260079052919091209190915550565b6001600160a01b038216611f415760405162461bcd60e51b815260206004820181905260248201527f4552433732313a206d696e7420746f20746865207a65726f20616464726573736044820152606401610877565b6000818152600260205260409020546001600160a01b031615611fa65760405162461bcd60e51b815260206004820152601c60248201527f4552433732313a20746f6b656e20616c7265616479206d696e746564000000006044820152606401610877565b611fb260008383611a36565b6001600160a01b0382166000908152600360205260408120805460019290611fdb908490612520565b909155505060008181526002602052604080822080546001600160a01b0319166001600160a01b03861690811790915590518392907fddf252ad1be2c89b69c2b068fc378daa952ba7f163c4a11628f55a4df523b3ef908290a45050565b828054612045906125ae565b90600052602060002090601f01602090048101928261206757600085556120ad565b82601f106120805782800160ff198235161785556120ad565b828001600101855582156120ad579182015b828111156120ad578235825591602001919060010190612092565b506120b99291506120bd565b5090565b5b808211156120b957600081556001016120be565b80356001600160a01b03811681146120e957600080fd5b919050565b60008083601f84011261210057600080fd5b50813567ffffffffffffffff81111561211857600080fd5b6020830191508360208260051b850101111561213357600080fd5b9250929050565b803580151581146120e957600080fd5b60006020828403121561215c57600080fd5b610ff7826120d2565b6000806040838503121561217857600080fd5b612181836120d2565b915061218f602084016120d2565b90509250929050565b6000806000606084860312156121ad57600080fd5b6121b6846120d2565b92506121c4602085016120d2565b9150604084013590509250925092565b600080600080608085870312156121ea57600080fd5b6121f3856120d2565b9350612201602086016120d2565b925060408501359150606085013567ffffffffffffffff8082111561222557600080fd5b818701915087601f83011261223957600080fd5b81358181111561224b5761224b612670565b604051601f8201601f19908116603f0116810190838211818310171561227357612273612670565b816040528281528a602084870101111561228c57600080fd5b82602086016020830137600060208483010152809550505050505092959194509250565b600080604083850312156122c357600080fd5b6122cc836120d2565b915061218f6020840161213a565b600080604083850312156122ed57600080fd5b6122f6836120d2565b946020939093013593505050565b60008060008060006060868803121561231c57600080fd5b853567ffffffffffffffff8082111561233457600080fd5b61234089838a016120ee565b9097509550602088013591508082111561235957600080fd5b50612366888289016120ee565b909450925061237990506040870161213a565b90509295509295909350565b60006020828403121561239757600080fd5b8135610ff781612686565b6000602082840312156123b457600080fd5b8151610ff781612686565b600080602083850312156123d257600080fd5b823567ffffffffffffffff808211156123ea57600080fd5b818501915085601f8301126123fe57600080fd5b81358181111561240d57600080fd5b86602082850101111561241f57600080fd5b60209290920196919550909350505050565b60006020828403121561244357600080fd5b5035919050565b60008060006060848603121561245f57600080fd5b505081359360208301359350604090920135919050565b6000815180845261248e816020860160208601612582565b601f01601f19169290920160200192915050565b600083516124b4818460208801612582565b8351908301906124c8818360208801612582565b01949350505050565b60006001600160a01b038087168352808616602084015250836040830152608060608301526125036080830184612476565b9695505050505050565b602081526000610ff76020830184612476565b6000821982111561253357612533612618565b500190565b6000826125475761254761262e565b500490565b600081600019048311821515161561256657612566612618565b500290565b60008282101561257d5761257d612618565b500390565b60005b8381101561259d578181015183820152602001612585565b83811115610f915750506000910152565b600181811c908216806125c257607f821691505b602082108114156125e357634e487b7160e01b600052602260045260246000fd5b50919050565b60006000198214156125fd576125fd612618565b5060010190565b6000826126135761261361262e565b500690565b634e487b7160e01b600052601160045260246000fd5b634e487b7160e01b600052601260045260246000fd5b634e487b7160e01b600052603160045260246000fd5b634e487b7160e01b600052603260045260246000fd5b634e487b7160e01b600052604160045260246000fd5b6001600160e01b0319811681146111c557600080fdfea2646970667358221220eda760de66a1bf53069a926885ba80718a68789df5e0e5ffa2ce0f371620ced464736f6c63430008070033",
  "linkReferences": {},
  "deployedLinkReferences": {}
}