{
  "_format": "hh-sol-artifact-1",
  "contractName": "AuctionHouse721",
  "sourceName": "contracts/auction/contracts/721/AuctionHouse721.sol",
  "abi": [
    {
      "anonymous": false,
      "inputs": [
        {
          "indexed": true,
          "internalType": "uint256",
          "name": "auctionId",
          "type": "uint256"
        },
        {
          "indexed": false,
          "internalType": "address",
          "name": "buyer",
          "type": "address"
        }
      ],
      "name": "AuctionBuyOut",
      "type": "event"
    },
    {
      "anonymous": false,
      "inputs": [
        {
          "indexed": true,
          "internalType": "uint256",
          "name": "auctionId",
          "type": "uint256"
        }
      ],
      "name": "AuctionCancelled",
      "type": "event"
    },
    {
      "anonymous": false,
      "inputs": [
        {
          "indexed": true,
          "internalType": "uint256",
          "name": "auctionId",
          "type": "uint256"
        },
        {
          "indexed": false,
          "internalType": "address",
          "name": "seller",
          "type": "address"
        }
      ],
      "name": "AuctionCreated",
      "type": "event"
    },
    {
      "anonymous": false,
      "inputs": [
        {
          "indexed": true,
          "internalType": "uint256",
          "name": "auctionId",
          "type": "uint256"
        }
      ],
      "name": "AuctionFinished",
      "type": "event"
    },
    {
      "anonymous": false,
      "inputs": [
        {
          "indexed": true,
          "internalType": "address",
          "name": "owner",
          "type": "address"
        },
        {
          "indexed": false,
          "internalType": "uint256",
          "name": "added",
          "type": "uint256"
        },
        {
          "indexed": false,
          "internalType": "uint256",
          "name": "total",
          "type": "uint256"
        }
      ],
      "name": "AvailableToWithdraw",
      "type": "event"
    },
    {
      "anonymous": false,
      "inputs": [
        {
          "indexed": true,
          "internalType": "uint256",
          "name": "auctionId",
          "type": "uint256"
        },
        {
          "indexed": false,
          "internalType": "address",
          "name": "buyer",
          "type": "address"
        },
        {
          "indexed": false,
          "internalType": "uint256",
          "name": "endTime",
          "type": "uint256"
        }
      ],
      "name": "BidPlaced",
      "type": "event"
    },
    {
      "anonymous": false,
      "inputs": [
        {
          "indexed": false,
          "internalType": "uint8",
          "name": "version",
          "type": "uint8"
        }
      ],
      "name": "Initialized",
      "type": "event"
    },
    {
      "anonymous": false,
      "inputs": [
        {
          "indexed": false,
          "internalType": "uint256",
          "name": "oldValue",
          "type": "uint256"
        },
        {
          "indexed": false,
          "internalType": "uint256",
          "name": "newValue",
          "type": "uint256"
        }
      ],
      "name": "MinimalDurationChanged",
      "type": "event"
    },
    {
      "anonymous": false,
      "inputs": [
        {
          "indexed": false,
          "internalType": "uint256",
          "name": "oldValue",
          "type": "uint256"
        },
        {
          "indexed": false,
          "internalType": "uint256",
          "name": "newValue",
          "type": "uint256"
        }
      ],
      "name": "MinimalStepChanged",
      "type": "event"
    },
    {
      "anonymous": false,
      "inputs": [
        {
          "indexed": true,
          "internalType": "address",
          "name": "previousOwner",
          "type": "address"
        },
        {
          "indexed": true,
          "internalType": "address",
          "name": "newOwner",
          "type": "address"
        }
      ],
      "name": "OwnershipTransferred",
      "type": "event"
    },
    {
      "anonymous": false,
      "inputs": [
        {
          "indexed": false,
          "internalType": "uint256",
          "name": "oldValue",
          "type": "uint256"
        },
        {
          "indexed": false,
          "internalType": "uint256",
          "name": "newValue",
          "type": "uint256"
        }
      ],
      "name": "ProtocolFeeChanged",
      "type": "event"
    },
    {
      "anonymous": false,
      "inputs": [
        {
          "indexed": true,
          "internalType": "bytes4",
          "name": "assetType",
          "type": "bytes4"
        },
        {
          "indexed": false,
          "internalType": "address",
          "name": "proxy",
          "type": "address"
        }
      ],
      "name": "ProxyChange",
      "type": "event"
    },
    {
      "inputs": [
        {
          "internalType": "address",
          "name": "newDefaultFeeReceiver",
          "type": "address"
        },
        {
          "internalType": "contract IRoyaltiesProvider",
          "name": "newRoyaltiesProvider",
          "type": "address"
        },
        {
          "internalType": "address",
          "name": "_transferProxy",
          "type": "address"
        },
        {
          "internalType": "address",
          "name": "_erc20TransferProxy",
          "type": "address"
        },
        {
          "internalType": "uint64",
          "name": "newProtocolFee",
          "type": "uint64"
        },
        {
          "internalType": "uint96",
          "name": "_minimalStepBasePoint",
          "type": "uint96"
        }
      ],
      "name": "__AuctionHouse721_init",
      "outputs": [],
      "stateMutability": "nonpayable",
      "type": "function"
    },
    {
      "inputs": [],
      "name": "auctionId",
      "outputs": [
        {
          "internalType": "uint256",
          "name": "",
          "type": "uint256"
        }
      ],
      "stateMutability": "view",
      "type": "function"
    },
    {
      "inputs": [
        {
          "internalType": "uint256",
          "name": "_auctionId",
          "type": "uint256"
        },
        {
          "components": [
            {
              "internalType": "uint256",
              "name": "amount",
              "type": "uint256"
            },
            {
              "internalType": "bytes4",
              "name": "dataType",
              "type": "bytes4"
            },
            {
              "internalType": "bytes",
              "name": "data",
              "type": "bytes"
            }
          ],
          "internalType": "struct AuctionHouseBase.Bid",
          "name": "bid",
          "type": "tuple"
        }
      ],
      "name": "buyOut",
      "outputs": [],
      "stateMutability": "payable",
      "type": "function"
    },
    {
      "inputs": [
        {
          "internalType": "uint256",
          "name": "_auctionId",
          "type": "uint256"
        }
      ],
      "name": "cancel",
      "outputs": [],
      "stateMutability": "nonpayable",
      "type": "function"
    },
    {
      "inputs": [
        {
          "internalType": "uint96",
          "name": "newValue",
          "type": "uint96"
        }
      ],
      "name": "changeMinimalDuration",
      "outputs": [],
      "stateMutability": "nonpayable",
      "type": "function"
    },
    {
      "inputs": [
        {
          "internalType": "uint96",
          "name": "newValue",
          "type": "uint96"
        }
      ],
      "name": "changeMinimalStep",
      "outputs": [],
      "stateMutability": "nonpayable",
      "type": "function"
    },
    {
      "inputs": [
        {
          "internalType": "uint256",
          "name": "_auctionId",
          "type": "uint256"
        }
      ],
      "name": "checkAuctionExistence",
      "outputs": [
        {
          "internalType": "bool",
          "name": "",
          "type": "bool"
        }
      ],
      "stateMutability": "view",
      "type": "function"
    },
    {
      "inputs": [
        {
          "internalType": "uint256",
          "name": "_auctionId",
          "type": "uint256"
        }
      ],
      "name": "checkAuctionRangeTime",
      "outputs": [
        {
          "internalType": "bool",
          "name": "",
          "type": "bool"
        }
      ],
      "stateMutability": "view",
      "type": "function"
    },
    {
      "inputs": [],
      "name": "defaultFeeReceiver",
      "outputs": [
        {
          "internalType": "address",
          "name": "",
          "type": "address"
        }
      ],
      "stateMutability": "view",
      "type": "function"
    },
    {
      "inputs": [
        {
          "internalType": "address",
          "name": "",
          "type": "address"
        }
      ],
      "name": "feeReceivers",
      "outputs": [
        {
          "internalType": "address",
          "name": "",
          "type": "address"
        }
      ],
      "stateMutability": "view",
      "type": "function"
    },
    {
      "inputs": [
        {
          "internalType": "uint256",
          "name": "_auctionId",
          "type": "uint256"
        }
      ],
      "name": "finishAuction",
      "outputs": [],
      "stateMutability": "nonpayable",
      "type": "function"
    },
    {
      "inputs": [
        {
          "internalType": "address",
          "name": "_collection",
          "type": "address"
        },
        {
          "internalType": "uint256",
          "name": "tokenId",
          "type": "uint256"
        }
      ],
      "name": "getAuctionByToken",
      "outputs": [
        {
          "internalType": "uint256",
          "name": "",
          "type": "uint256"
        }
      ],
      "stateMutability": "view",
      "type": "function"
    },
    {
      "inputs": [
        {
          "internalType": "uint256",
          "name": "_auctionId",
          "type": "uint256"
        }
      ],
      "name": "getCurrentBuyer",
      "outputs": [
        {
          "internalType": "address",
          "name": "",
          "type": "address"
        }
      ],
      "stateMutability": "view",
      "type": "function"
    },
    {
      "inputs": [
        {
          "internalType": "uint256",
          "name": "_auctionId",
          "type": "uint256"
        }
      ],
      "name": "getMinimalNextBid",
      "outputs": [
        {
          "internalType": "uint256",
          "name": "minBid",
          "type": "uint256"
        }
      ],
      "stateMutability": "view",
      "type": "function"
    },
    {
      "inputs": [],
      "name": "minimalDuration",
      "outputs": [
        {
          "internalType": "uint96",
          "name": "",
          "type": "uint96"
        }
      ],
      "stateMutability": "view",
      "type": "function"
    },
    {
      "inputs": [],
      "name": "minimalStepBasePoint",
      "outputs": [
        {
          "internalType": "uint96",
          "name": "",
          "type": "uint96"
        }
      ],
      "stateMutability": "view",
      "type": "function"
    },
    {
      "inputs": [
        {
          "internalType": "address",
          "name": "",
          "type": "address"
        },
        {
          "internalType": "address",
          "name": "",
          "type": "address"
        },
        {
          "internalType": "uint256",
          "name": "",
          "type": "uint256"
        },
        {
          "internalType": "bytes",
          "name": "",
          "type": "bytes"
        }
      ],
      "name": "onERC721Received",
      "outputs": [
        {
          "internalType": "bytes4",
          "name": "",
          "type": "bytes4"
        }
      ],
      "stateMutability": "nonpayable",
      "type": "function"
    },
    {
      "inputs": [],
      "name": "owner",
      "outputs": [
        {
          "internalType": "address",
          "name": "",
          "type": "address"
        }
      ],
      "stateMutability": "view",
      "type": "function"
    },
    {
      "inputs": [],
      "name": "protocolFee",
      "outputs": [
        {
          "internalType": "uint256",
          "name": "",
          "type": "uint256"
        }
      ],
      "stateMutability": "view",
      "type": "function"
    },
    {
      "inputs": [
        {
          "internalType": "uint256",
          "name": "_auctionId",
          "type": "uint256"
        },
        {
          "components": [
            {
              "internalType": "uint256",
              "name": "amount",
              "type": "uint256"
            },
            {
              "internalType": "bytes4",
              "name": "dataType",
              "type": "bytes4"
            },
            {
              "internalType": "bytes",
              "name": "data",
              "type": "bytes"
            }
          ],
          "internalType": "struct AuctionHouseBase.Bid",
          "name": "bid",
          "type": "tuple"
        }
      ],
      "name": "putBid",
      "outputs": [],
      "stateMutability": "payable",
      "type": "function"
    },
    {
      "inputs": [
        {
          "internalType": "uint256",
          "name": "_auctionId",
          "type": "uint256"
        }
      ],
      "name": "putBidWrapper",
      "outputs": [],
      "stateMutability": "payable",
      "type": "function"
    },
    {
      "inputs": [],
      "name": "renounceOwnership",
      "outputs": [],
      "stateMutability": "nonpayable",
      "type": "function"
    },
    {
      "inputs": [],
      "name": "royaltiesRegistry",
      "outputs": [
        {
          "internalType": "contract IRoyaltiesProvider",
          "name": "",
          "type": "address"
        }
      ],
      "stateMutability": "view",
      "type": "function"
    },
    {
      "inputs": [
        {
          "internalType": "address payable",
          "name": "newDefaultFeeReceiver",
          "type": "address"
        }
      ],
      "name": "setDefaultFeeReceiver",
      "outputs": [],
      "stateMutability": "nonpayable",
      "type": "function"
    },
    {
      "inputs": [
        {
          "internalType": "address",
          "name": "token",
          "type": "address"
        },
        {
          "internalType": "address",
          "name": "wallet",
          "type": "address"
        }
      ],
      "name": "setFeeReceiver",
      "outputs": [],
      "stateMutability": "nonpayable",
      "type": "function"
    },
    {
      "inputs": [
        {
          "internalType": "uint64",
          "name": "_protocolFee",
          "type": "uint64"
        }
      ],
      "name": "setProtocolFee",
      "outputs": [],
      "stateMutability": "nonpayable",
      "type": "function"
    },
    {
      "inputs": [
        {
          "internalType": "contract IRoyaltiesProvider",
          "name": "newRoyaltiesRegistry",
          "type": "address"
        }
      ],
      "name": "setRoyaltiesRegistry",
      "outputs": [],
      "stateMutability": "nonpayable",
      "type": "function"
    },
    {
      "inputs": [
        {
          "internalType": "bytes4",
          "name": "assetType",
          "type": "bytes4"
        },
        {
          "internalType": "address",
          "name": "proxy",
          "type": "address"
        }
      ],
      "name": "setTransferProxy",
      "outputs": [],
      "stateMutability": "nonpayable",
      "type": "function"
    },
    {
      "inputs": [
        {
          "internalType": "address",
          "name": "_sellToken",
          "type": "address"
        },
        {
          "internalType": "uint256",
          "name": "_sellTokenId",
          "type": "uint256"
        },
        {
          "internalType": "address",
          "name": "_buyAsset",
          "type": "address"
        },
        {
          "internalType": "uint96",
          "name": "minimalPrice",
          "type": "uint96"
        },
        {
          "internalType": "bytes4",
          "name": "dataType",
          "type": "bytes4"
        },
        {
          "internalType": "bytes",
          "name": "data",
          "type": "bytes"
        }
      ],
      "name": "startAuction",
      "outputs": [],
      "stateMutability": "nonpayable",
      "type": "function"
    },
    {
      "inputs": [
        {
          "internalType": "address",
          "name": "newOwner",
          "type": "address"
        }
      ],
      "name": "transferOwnership",
      "outputs": [],
      "stateMutability": "nonpayable",
      "type": "function"
    },
    {
      "inputs": [
        {
          "internalType": "address",
          "name": "_to",
          "type": "address"
        }
      ],
      "name": "withdrawFaultyBid",
      "outputs": [],
      "stateMutability": "nonpayable",
      "type": "function"
    }
  ],
  "bytecode": "0x608060405234801561001057600080fd5b5061574b80620000216000396000f3fe6080604052600436106101d85760003560e01c80635f4a436e11610102578063b0e21e8a11610095578063ec57834811610064578063ec5783481461059d578063eeffbfaf146105bd578063efa0598a146105dd578063f2fde38b146105fd57600080fd5b8063b0e21e8a14610527578063bd9d21bd1461053d578063cf266ed01461055d578063e66db25e1461057d57600080fd5b80638da5cb5b116100d15780638da5cb5b1461049e578063914bf5f9146104bc578063a2a106b8146104e4578063a6f4a3e01461051457600080fd5b80635f4a436e1461040f5780636d8f06941461042f5780636eeb69db1461044f578063715018a61461048957600080fd5b80632f5723361161017a5780633be89922116101495780633be899221461039c57806340e58ee5146103bc57806343bc42d3146103dc578063506a90e7146103fc57600080fd5b80632f5723361461030357806330c642f11461033c578063363188151461035c5780633abf6fd41461037c57600080fd5b8063150b7a02116101b6578063150b7a0214610275578063152b2c0a146102ae5780631cdfe3d8146102ce5780632a6bf6a8146102f057600080fd5b806302097ab1146101dd5780630d6079641461023057806310782f8f1461025e575b600080fd5b3480156101e957600080fd5b506102136101f8366004614d71565b60ff602052600090815260409020546001600160a01b031681565b6040516001600160a01b0390911681526020015b60405180910390f35b34801561023c57600080fd5b5061025061024b3660046152e5565b61061d565b604051908152602001610227565b34801561026a57600080fd5b506102506101615481565b34801561028157600080fd5b5061029561029036600461500e565b61085e565b6040516001600160e01b03199091168152602001610227565b3480156102ba57600080fd5b506102506102c93660046150fa565b610888565b3480156102da57600080fd5b506102ee6102e9366004614d71565b6108b3565b005b6102ee6102fe3660046152e5565b6108dd565b34801561030f57600080fd5b5061016254610324906001600160601b031681565b6040516001600160601b039091168152602001610227565b34801561034857600080fd5b506102ee61035736600461520b565b6109ab565b34801561036857600080fd5b506102ee6103773660046153c3565b610a21565b34801561038857600080fd5b5060fe54610213906001600160a01b031681565b3480156103a857600080fd5b506102ee6103b7366004614d71565b610a99565b3480156103c857600080fd5b506102ee6103d73660046152e5565b610ac3565b3480156103e857600080fd5b506102ee6103f73660046153a8565b610ecf565b6102ee61040a3660046152fe565b610f2b565b34801561041b57600080fd5b506102ee61042a3660046153c3565b6115f8565b34801561043b57600080fd5b5060fd54610213906001600160a01b031681565b34801561045b57600080fd5b5061021361046a3660046152e5565b600090815261019560205260409020600701546001600160a01b031690565b34801561049557600080fd5b506102ee611691565b3480156104aa57600080fd5b506098546001600160a01b0316610213565b3480156104c857600080fd5b506101625461032490600160601b90046001600160601b031681565b3480156104f057600080fd5b506105046104ff3660046152e5565b6116a5565b6040519015158152602001610227565b6102ee6105223660046152fe565b6116c8565b34801561053357600080fd5b5061025060fc5481565b34801561054957600080fd5b506102ee610558366004614d71565b611aa3565b34801561056957600080fd5b506102ee6105783660046152e5565b611b2d565b34801561058957600080fd5b506102ee610598366004614fd5565b612082565b3480156105a957600080fd5b506105046105b83660046152e5565b6120b8565b3480156105c957600080fd5b506102ee6105d836600461507a565b6121a9565b3480156105e957600080fd5b506102ee6105f8366004615126565b6123a5565b34801561060957600080fd5b506102ee610618366004614d71565b6127b7565b60008181526101956020908152604080832081516101608101835281546001600160a01b039081168252600183015482860152600283015490811682850152600160a01b90046001600160601b0316606080830191909152835190810184526003830180548252600484015460e01b6001600160e01b0319169582019590955260058301805487969395608087019492908401916106ba9061563d565b80601f01602080910402602001604051908101604052809291908181526020018280546106e69061563d565b80156107335780601f1061070857610100808354040283529160200191610733565b820191906000526020600020905b81548152906001019060200180831161071657829003601f168201915b50505091909252505050815260068201546001600160a01b038082166020840152600160a01b918290046001600160601b031660408401526007840154908116606084015290810467ffffffffffffffff166080830152600160e01b900460e01b6001600160e01b03191660a082015260088201805460c0909201916107b89061563d565b80601f01602080910402602001604051908101604052809291908181526020018280546107e49061563d565b80156108315780601f1061080657610100808354040283529160200191610831565b820191906000526020600020905b81548152906001019060200180831161081457829003601f168201915b50505050508152505090506108578160e001518260c00151836080015160000151612844565b9392505050565b7f150b7a02000000000000000000000000000000000000000000000000000000005b949350505050565b6001600160a01b03821660009081526033602090815260408083208484529091529020545b92915050565b6108bb61288e565b60fe80546001600160a01b0319166001600160a01b0392909216919091179055565b600081815261019560205260409020600201546001600160a01b03161561094b5760405162461bcd60e51b815260206004820152601560248201527f6f6e6c7920455448206269647320616c6c6f776564000000000000000000000060448201526064015b60405180910390fd5b6109a88160405180606001604052803481526020017f4c23426613a5dc69e08fbd2787e6210aa679d4522e95a89d4dd88c4fd13a22836001600160e01b031916815260200160405180602001604052806000815250815250610f2b565b50565b6109b361288e565b6001600160e01b03198216600081815261012e602090815260409182902080546001600160a01b0319166001600160a01b03861690811790915591519182527f4b5aced933c0c9a88aeac3f0b3b72c5aaf75df8ebaf53225773248c4c3153593910160405180910390a25050565b610a2961288e565b61016254604080516001600160601b03928316815291831660208301527fa13d21133118bfdffd1e4dc724faaadc5860dcb38ac5836e06f183ac5306b279910160405180910390a161016280546bffffffffffffffffffffffff19166001600160601b0392909216919091179055565b610aa161288e565b60fd80546001600160a01b0319166001600160a01b0392909216919091179055565b600260ca541415610b165760405162461bcd60e51b815260206004820152601f60248201527f5265656e7472616e637947756172643a207265656e7472616e742063616c6c006044820152606401610942565b600260ca81905560008281526101956020908152604080832081516101608101835281546001600160a01b0390811682526001830154828601529582015495861681840152600160a01b9095046001600160601b0316606080870191909152825190810183526003820180548252600483015460e01b6001600160e01b03191694820194909452600582018054959695929460808701949293909284019190610bbe9061563d565b80601f0160208091040260200160405190810160405280929190818152602001828054610bea9061563d565b8015610c375780601f10610c0c57610100808354040283529160200191610c37565b820191906000526020600020905b815481529060010190602001808311610c1a57829003601f168201915b50505091909252505050815260068201546001600160a01b038082166020840152600160a01b918290046001600160601b031660408401526007840154908116606084015290810467ffffffffffffffff166080830152600160e01b900460e01b6001600160e01b03191660a082015260088201805460c090920191610cbc9061563d565b80601f0160208091040260200160405190810160405280929190818152602001828054610ce89061563d565b8015610d355780601f10610d0a57610100808354040283529160200191610d35565b820191906000526020600020905b815481529060010190602001808311610d1857829003601f168201915b5050509190925250505060a08101519091506001600160a01b038116610d9d5760405162461bcd60e51b815260206004820181905260248201527f7468657265206973206e6f2061756374696f6e207769746820746869732069646044820152606401610942565b6001600160a01b0381163314610df55760405162461bcd60e51b815260206004820152601a60248201527f61756374696f6e206f776e6572206e6f742064657465637465640000000000006044820152606401610942565b60e08201516001600160a01b031615610e505760405162461bcd60e51b815260206004820152601d60248201527f63616e27742063616e63656c2061756374696f6e2077697468206269640000006044820152606401610942565b610e878260000151836020015160017f73ad2146b3d3a286642c794379d750360a2d53a3459a11b3e5d6cc900f55f44a30866128e8565b610e9a8383600001518460200151612967565b60405183907f2809c7e17bf978fbc7194c0a694b638c4215e9140cacc6c38ca36010b45697df90600090a25050600160ca5550565b610ed761288e565b60fc546040805191825267ffffffffffffffff831660208301527fb51bef650ff5ad43303dbe2e500a74d4fd1bdc9ae05f046bece330e82ae0ba87910160405180910390a167ffffffffffffffff1660fc55565b600260ca541415610f7e5760405162461bcd60e51b815260206004820152601f60248201527f5265656e7472616e637947756172643a207265656e7472616e742063616c6c006044820152606401610942565b600260ca819055815160008481526101956020908152604080832081516101608101835281546001600160a01b0390811682526001830154828601529682015496871681840152600160a01b9096046001600160601b0316606080880191909152825190810183526003820180548252600483015460e01b6001600160e01b031916948201949094526005820180543398959394608087019492908401916110259061563d565b80601f01602080910402602001604051908101604052809291908181526020018280546110519061563d565b801561109e5780601f106110735761010080835404028352916020019161109e565b820191906000526020600020905b81548152906001019060200180831161108157829003601f168201915b50505091909252505050815260068201546001600160a01b038082166020840152600160a01b918290046001600160601b031660408401526007840154908116606084015290810467ffffffffffffffff166080830152600160e01b900460e01b6001600160e01b03191660a082015260088201805460c0909201916111239061563d565b80601f016020809104026020016040519081016040528092919081815260200182805461114f9061563d565b801561119c5780601f106111715761010080835404028352916020019161119c565b820191906000526020600020905b81548152906001019060200180831161117f57829003601f168201915b505050505081525050905060008160600151905060006111c6836101400151846101200151612a2f565b905060006111dc87604001518860200151612ad7565b6000015190506103e884610100015167ffffffffffffffff166111ff8360a01c90565b845160a01c61120e919061554e565b611218919061554e565b11156112535760405162461bcd60e51b815260206004820152600a60248201526977726f6e67206665657360b01b6044820152606401610942565b60408401516001600160a01b03166112715786516112719087612b62565b61129a8460a0015185606001516001600160601b031684604001516001600160601b0316612be0565b6112a48286612c49565b156112c2576112b78488848b858b612c8a565b5050505050506115ef565b60e084015142906001600160a01b03166113835760208301516112ef906001600160601b03831690612e9b565b60008a81526101956020526040902060020180546001600160601b03808416600160a01b026001600160a01b039092169190911790915560c08701519195501686101561137e5760405162461bcd60e51b815260206004820152600d60248201527f62696420746f6f20736d616c6c000000000000000000000000000000000000006044820152606401610942565b61145a565b866001600160a01b03168560e001516001600160a01b031614156113e95760405162461bcd60e51b815260206004820152601360248201527f616c72656164792077696e6e696e6720626964000000000000000000000000006044820152606401610942565b60006114068660e001518760c00151886080015160000151612844565b9050808710156114585760405162461bcd60e51b815260206004820152600b60248201527f62696420746f6f206c6f770000000000000000000000000000000000000000006044820152606401610942565b505b60006114698660400151612f0c565b905061148986604001518760e001518a8960800151858e60000151612f60565b60008a815261019560209081526040918290208b51600382019081558c83015160048301805463ffffffff191660e09290921c919091179055928c015180518d94936114da93600501920190614a7e565b50505060008a81526101956020526040812060070180546001600160a01b0319166001600160a01b038b16179055610162546001600160601b031690610384821061152757610384611529565b815b90506001600160601b038082169061154390891686612f79565b6001600160601b03161015611598576115656001600160601b03851682612e9b565b60008d81526101956020526040902060020180546001600160a01b0316600160a01b6001600160601b0384160217905596505b604080516001600160a01b038c1681526001600160601b03891660208201528d917f0e54eff26401bf69b81b26f60bd85ef47f5d85275c1d268d84f68d6897431c47910160405180910390a2505050505050505050505b5050600160ca55565b61160061288e565b61016254604080516001600160601b03600160601b9093048316815291831660208301527f30bd79db520376a437e44c44c2b3ec63f6730f4df0a95f56ea39765f1420cab7910160405180910390a161016280546001600160601b03909216600160601b027fffffffffffffffff000000000000000000000000ffffffffffffffffffffffff909216919091179055565b61169961288e565b6116a36000612fe7565b565b600081815261019560205260408120600601546001600160a01b031615156108ad565b600260ca54141561171b5760405162461bcd60e51b815260206004820152601f60248201527f5265656e7472616e637947756172643a207265656e7472616e742063616c6c006044820152606401610942565b600260ca81905560008381526101956020908152604080832081516101608101835281546001600160a01b0390811682526001830154828601529582015495861681840152600160a01b9095046001600160601b0316606080870191909152825190810183526003820180548252600483015460e01b6001600160e01b031916948201949094526005820180549596959294608087019492939092840191906117c39061563d565b80601f01602080910402602001604051908101604052809291908181526020018280546117ef9061563d565b801561183c5780601f106118115761010080835404028352916020019161183c565b820191906000526020600020905b81548152906001019060200180831161181f57829003601f168201915b50505091909252505050815260068201546001600160a01b038082166020840152600160a01b918290046001600160601b031660408401526007840154908116606084015290810467ffffffffffffffff166080830152600160e01b900460e01b6001600160e01b03191660a082015260088201805460c0909201916118c19061563d565b80601f01602080910402602001604051908101604052809291908181526020018280546118ed9061563d565b801561193a5780601f1061190f5761010080835404028352916020019161193a565b820191906000526020600020905b81548152906001019060200180831161191d57829003601f168201915b5050505050815250509050600061195b826101400151836101200151612a2f565b90506119868260a0015183606001516001600160601b031683604001516001600160601b0316612be0565b600061199a84604001518560200151612ad7565b5184519091506119ab908390612c49565b6119f75760405162461bcd60e51b815260206004820152601560248201527f6e6f7420656e6f75676820666f72206275796f757400000000000000000000006044820152606401610942565b6103e883610100015167ffffffffffffffff16611a148360a01c90565b845160a01c611a23919061554e565b611a2d919061554e565b1115611a685760405162461bcd60e51b815260206004820152600a60248201526977726f6e67206665657360b01b6044820152606401610942565b604083015133906001600160a01b0316611a88578451611a889082612b62565b611a96848685898686612c8a565b5050600160ca5550505050565b336000818152610160602052604090205480611b015760405162461bcd60e51b815260206004820152601360248201527f6e6f7468696e6720746f207769746864726177000000000000000000000000006044820152606401610942565b6001600160a01b0380831660009081526101606020526040812055611b2890841682613039565b505050565b600260ca541415611b805760405162461bcd60e51b815260206004820152601f60248201527f5265656e7472616e637947756172643a207265656e7472616e742063616c6c006044820152606401610942565b600260ca81905560008281526101956020908152604080832081516101608101835281546001600160a01b0390811682526001830154828601529582015495861681840152600160a01b9095046001600160601b0316606080870191909152825190810183526003820180548252600483015460e01b6001600160e01b03191694820194909452600582018054959695929460808701949293909284019190611c289061563d565b80601f0160208091040260200160405190810160405280929190818152602001828054611c549061563d565b8015611ca15780601f10611c7657610100808354040283529160200191611ca1565b820191906000526020600020905b815481529060010190602001808311611c8457829003601f168201915b50505091909252505050815260068201546001600160a01b038082166020840152600160a01b918290046001600160601b031660408401526007840154908116606084015290810467ffffffffffffffff166080830152600160e01b900460e01b6001600160e01b03191660a082015260088201805460c090920191611d269061563d565b80601f0160208091040260200160405190810160405280929190818152602001828054611d529061563d565b8015611d9f5780601f10611d7457610100808354040283529160200191611d9f565b820191906000526020600020905b815481529060010190602001808311611d8257829003601f168201915b5050505050815250509050611dc08160a001516001600160a01b0316151590565b611e0c5760405162461bcd60e51b815260206004820181905260248201527f7468657265206973206e6f2061756374696f6e207769746820746869732069646044820152606401610942565b6000611e22826101400151836101200151612a2f565b9050611e4882606001516001600160601b031682604001516001600160601b03166130dc565b158015611e61575060e08201516001600160a01b031615155b611ed35760405162461bcd60e51b815260206004820152602b60248201527f6f6e6c7920656e6465642061756374696f6e2077697468206269642063616e2060448201527f62652066696e69736865640000000000000000000000000000000000000000006064820152608401610942565b6000611eef836080015160400151846080015160200151612ad7565b516040805160a080820180845287516020808a0151610120860187526060610100870181905260e08701808652600160c08901526339d690a360e11b905287516001600160a01b039094168484015283880191909152865180840388018152920190955281518501528252860151929350612062929091820190611f7290613125565b8152602001611f8485600001516131d7565b81526339d690a360e11b60005261012e60209081527f7d19e2b8a217fe03fb4454578d48cd35c47b3709623b40a40dad7ab8ca53ecb3546001600160a01b03169082015230604091820152805160a081018252908601516080870151518291611fec91613264565b8152602001611ffe8760e00151613125565b815260200161200c856131d7565b815260200161201e8760400151612f0c565b6001600160a01b03168152306020918201526040805160608101825261010089015167ffffffffffffffff1681526103e892810192909252810160025b90526132e1565b50506120778484600001518560200151612967565b5050600160ca555050565b61208a61288e565b6001600160a01b03918216600090815260ff6020526040902080546001600160a01b03191691909216179055565b6000818152610195602052604081206002810154600890910180546108ad92600160a01b90046001600160601b031691612197916120f59061563d565b80601f01602080910402602001604051908101604052809291908181526020018280546121219061563d565b801561216e5780601f106121435761010080835404028352916020019161216e565b820191906000526020600020905b81548152906001019060200180831161215157829003601f168201915b50505060008881526101956020526040902060070154600160e01b900460e01b9150612a2f9050565b604001516001600160601b03166130dc565b600054610100900460ff16158080156121c95750600054600160ff909116105b806121e35750303b1580156121e3575060005460ff166001145b6122465760405162461bcd60e51b815260206004820152602e60248201527f496e697469616c697a61626c653a20636f6e747261637420697320616c72656160448201526d191e481a5b9a5d1a585b1a5e995960921b6064820152608401610942565b6000805460ff191660011790558015612269576000805461ff0019166101001790555b6122716133fc565b612279613467565b6122816133fc565b6122896134db565b6122928261354d565b61012e6020527f66dac2712484e57696cd5b0a7c5522ea4a109a8cbe86d42ac52cc349ee8e1d6480546001600160a01b038681166001600160a01b0319928316179092557f7d19e2b8a217fe03fb4454578d48cd35c47b3709623b40a40dad7ab8ca53ecb380549288169282168317905563025ceed960e61b6000527f0fe703a970ae3b662eee99e0b622325124ff4b134531cb07e2cdcc6f1d12396f8054909116909117905561234e8367ffffffffffffffff16888861369d565b6123566137dd565b801561239c576000805461ff0019169055604051600181527f7f26b83ff96e1f2b6a682f133852f6798a09c465da95921460cefb38474024989060200160405180910390a15b50505050505050565b60fc5460006123b48385612a2f565b6101625460208201519192506001600160601b039081169116108015906123fe57506305265c006fffffffffffffffffffffffffffffffff1681602001516001600160601b031611155b61244a5760405162461bcd60e51b815260206004820152601260248201527f696e636f7272656374206475726174696f6e00000000000000000000000000006044820152606401610942565b80516103e89061245e90849060a01c61554e565b11156124995760405162461bcd60e51b815260206004820152600a60248201526977726f6e67206665657360b01b6044820152606401610942565b60006124a36138e5565b9050600033905060006040518061016001604052808c6001600160a01b031681526020018b81526020018a6001600160a01b0316815260200160006001600160601b0316815260200160405180606001604052806000815260200160006001600160e01b0319168152602001604051806020016040528060008152508152508152602001836001600160a01b03168152602001896001600160601b0316815260200160006001600160a01b031681526020018667ffffffffffffffff168152602001886001600160e01b031916815260200187815250905080610195600085815260200190815260200160002060008201518160000160006101000a8154816001600160a01b0302191690836001600160a01b031602179055506020820151816001015560408201518160020160006101000a8154816001600160a01b0302191690836001600160a01b0316021790555060608201518160020160146101000a8154816001600160601b0302191690836001600160601b031602179055506080820151816003016000820151816000015560208201518160010160006101000a81548163ffffffff021916908360e01c02179055506040820151816002019080519060200190612674929190614a7e565b50505060a082015160c08301516001600160601b0316600160a01b9081026001600160a01b0392831617600684015560e08085015160078501805461010088015161012089015190941c600160e01b026001600160e01b0367ffffffffffffffff9095169095026001600160e01b0319909116929095169190911793909317161790556101408201518051612713916008840191602090910190614a7e565b509050506127468b8b60017f73ad2146b3d3a286642c794379d750360a2d53a3459a11b3e5d6cc900f55f44a86306128e8565b6001600160a01b038b1660009081526033602090815260408083208d845290915290208390556040516001600160a01b038316815283907f5d551e2a2cc977fd8c530317059b4f2d9f504fb82f7dfad736f8d56679bcdfd09060200160405180910390a25050505050505050505050565b6127bf61288e565b6001600160a01b03811661283b5760405162461bcd60e51b815260206004820152602660248201527f4f776e61626c653a206e6577206f776e657220697320746865207a65726f206160448201527f64647265737300000000000000000000000000000000000000000000000000006064820152608401610942565b6109a881612fe7565b60006001600160a01b03841661286457506001600160601b038216610857565b6101625461088090612887908490600160601b90046001600160601b0316613900565b8390613918565b6098546001600160a01b031633146116a35760405162461bcd60e51b815260206004820181905260248201527f4f776e61626c653a2063616c6c6572206973206e6f7420746865206f776e65726044820152606401610942565b60408051608081018252606080820181905281830180835260208084018990526001600160e01b031988169182905284516001600160a01b038c8116828401528187018c90528651808303880181529190940186528451820152600091825261012e9052929092205461295f928591859116613924565b505050505050565b60405183907f53ab6823c4ae8c865033f94ee16313a21c6ade19520d884dc804d622a43bc67490600090a26001600160a01b038216600090815260336020908152604080832084845290915281205560008381526101956020526040812080546001600160a01b031916815560018101829055600281018290556003810182815560048201805463ffffffff1916905590919081612a086005850182614b02565b505060006006830181905560078301819055612a28906008840190614b02565b5050505050565b6040805160808101825260008082526020820181905291810182905260608101919091526001600160e01b03198216632611a13360e11b1415612a8f57825115612a8a5782806020019051810190612a879190615227565b90505b6108ad565b60405162461bcd60e51b815260206004820152601660248201527f77726f6e672061756374696f6e206461746154797065000000000000000000006044820152606401610942565b6040805160208101909152600081526001600160e01b03198216632611a13360e11b1415612b1a57825115612a8a5782806020019051810190612a8791906152a3565b60405162461bcd60e51b815260206004820152601260248201527f77726f6e672062696420646174615479706500000000000000000000000000006044820152606401610942565b3482811015612bb35760405162461bcd60e51b815260206004820152600e60248201527f6e6f7420656e6f756768204554480000000000000000000000000000000000006044820152606401610942565b6000612bbf8285613e73565b90508015612bda57612bda6001600160a01b03841682613039565b50505050565b6001600160a01b03831615158015612bfd5750612bfd82826130dc565b611b285760405162461bcd60e51b815260206004820152601360248201527f61756374696f6e20697320696e616374697665000000000000000000000000006044820152606401610942565b60008083606001516001600160601b0316118015612c7457508183606001516001600160601b031611155b15612c81575060016108ad565b50600092915050565b6000612c998760400151612f0c565b9050612cb3876080015188604001518960e0015184613e7f565b60408701516000906001600160a01b0316612ccf575030612cd2565b50815b6040805160a08082018084528b516020808e0151610120860187526060610100870181905260e08701808652600160c08901526339d690a360e11b905287516001600160a01b0390941684840152838801919091528651808403880181529201909552815185015282528a0151612e3c92820190612d4f90613125565b8152602001612d6189600001516131d7565b81526339d690a360e11b60005261012e60209081527f7d19e2b8a217fe03fb4454578d48cd35c47b3709623b40a40dad7ab8ca53ecb3546001600160a01b03169082015230604091820152805160a081018252908b01518a518291612dc591613264565b8152602001612dd387613125565b8152602001612de1886131d7565b8152602001856001600160a01b03168152602001846001600160a01b031681525060405180606001604052808c610100015167ffffffffffffffff1681526020016103e8815260200160028081111561205b5761205b6156a9565b5050612e518589600001518a60200151612967565b610161546040516001600160a01b03851681527f10373d853b64ae416c332eacb659de0f9bfc4fa3601556194abce1991061efbe9060200160405180910390a25050505050505050565b600080612ea88385615566565b9050836001600160601b0316816001600160601b031610156108575760405162461bcd60e51b815260206004820152601b60248201527f536166654d6174683a206164646974696f6e206f766572666c6f7700000000006044820152606401610942565b6000806001600160a01b038316156108ad5750506322ba176160e21b6000525061012e6020527f66dac2712484e57696cd5b0a7c5522ea4a109a8cbe86d42ac52cc349ee8e1d64546001600160a01b031690565b612f6c83878785613e7f565b61295f8187863086613f91565b6000826001600160601b0316826001600160601b03161115612fdd5760405162461bcd60e51b815260206004820152601e60248201527f536166654d6174683a207375627472616374696f6e206f766572666c6f7700006044820152606401610942565b61085782846155e9565b609880546001600160a01b038381166001600160a01b0319831681179093556040519116919082907f8be0079c531659141344cd1fd0a4f28419497f9722a3daafe3b4186f6b6457e090600090a35050565b6000826001600160a01b03168260405160006040518083038185875af1925050503d8060008114613086576040519150601f19603f3d011682016040523d82523d6000602084013e61308b565b606091505b5050905080611b285760405162461bcd60e51b815260206004820152600f60248201527f7472616e73666572206661696c656400000000000000000000000000000000006044820152606401610942565b60004282158015906130ed57508083115b156130fc5760009150506108ad565b60008411801561310c5750808411155b1561311b5760009150506108ad565b5060019392505050565b60408051600180825281830190925260609160009190816020015b6040805180820190915260008082526020820152815260200190600190039081613140579050509050828160008151811061317d5761317d6156bf565b6020026020010151600001906001600160a01b031690816001600160a01b031681525050612710816000815181106131b7576131b76156bf565b6020908102919091018101516001600160601b0390921691015292915050565b60408051600180825281830190925260609160009190816020015b60408051808201909152600080825260208201528152602001906001900390816131f2579050509050828160008151811061322f5761322f6156bf565b60209081029190910101516001600160a01b0390911690526132518360a01c90565b816000815181106131b7576131b76156bf565b604080516080810182526000918101918252606080820152908152602081018290526001600160a01b0383166132a55780516355575f5d60e11b90526108ad565b80516322ba176160e21b9052604080516001600160a01b03851660208201520160408051601f1981840301815291905281516020015292915050565b8251602090810151835190910151600183604001516002811115613307576133076156a9565b141561335157613321858585600001518660200151613fa6565b915061334c846000015160000151856000015160200151866080015188602001518860600151614261565b6133f4565b600283604001516002811115613369576133696156a9565b14156133ae57613383848685600001518660200151613fa6565b905061334c856000015160000151866000015160200151876080015187602001518960600151614261565b8451805160209182015160808801519287015160608901516133d1949190614261565b8351805160209182015160808701519288015160608801516133f4949190614261565b935093915050565b600054610100900460ff166116a35760405162461bcd60e51b815260206004820152602b60248201527f496e697469616c697a61626c653a20636f6e7472616374206973206e6f74206960448201526a6e697469616c697a696e6760a81b6064820152608401610942565b600054610100900460ff166134d25760405162461bcd60e51b815260206004820152602b60248201527f496e697469616c697a61626c653a20636f6e7472616374206973206e6f74206960448201526a6e697469616c697a696e6760a81b6064820152608401610942565b6116a333612fe7565b600054610100900460ff166135465760405162461bcd60e51b815260206004820152602b60248201527f496e697469616c697a61626c653a20636f6e7472616374206973206e6f74206960448201526a6e697469616c697a696e6760a81b6064820152608401610942565b600160ca55565b600054610100900460ff161580801561356d5750600054600160ff909116105b806135875750303b158015613587575060005460ff166001145b6135ea5760405162461bcd60e51b815260206004820152602e60248201527f496e697469616c697a61626c653a20636f6e747261637420697320616c72656160448201526d191e481a5b9a5d1a585b1a5e995960921b6064820152608401610942565b6000805460ff19166001179055801561360d576000805461ff0019166101001790555b60016101615561016280546001600160601b038416600160601b027fffffffffffffffff000000000000000000000000000000000000000000000000909116176103841790558015613699576000805461ff0019169055604051600181527f7f26b83ff96e1f2b6a682f133852f6798a09c465da95921460cefb38474024989060200160405180910390a15b5050565b600054610100900460ff16158080156136bd5750600054600160ff909116105b806136d75750303b1580156136d7575060005460ff166001145b61373a5760405162461bcd60e51b815260206004820152602e60248201527f496e697469616c697a61626c653a20636f6e747261637420697320616c72656160448201526d191e481a5b9a5d1a585b1a5e995960921b6064820152608401610942565b6000805460ff19166001179055801561375d576000805461ff0019166101001790555b60fc84905560fe80546001600160a01b038086166001600160a01b03199283161790925560fd8054928516929091169190911790558015612bda576000805461ff0019169055604051600181527f7f26b83ff96e1f2b6a682f133852f6798a09c465da95921460cefb38474024989060200160405180910390a150505050565b600054610100900460ff16158080156137fd5750600054600160ff909116105b806138175750303b158015613817575060005460ff166001145b61387a5760405162461bcd60e51b815260206004820152602e60248201527f496e697469616c697a61626c653a20636f6e747261637420697320616c72656160448201526d191e481a5b9a5d1a585b1a5e995960921b6064820152608401610942565b6000805460ff19166001179055801561389d576000805461ff0019166101001790555b80156109a8576000805461ff0019169055604051600181527f7f26b83ff96e1f2b6a682f133852f6798a09c465da95921460cefb38474024989060200160405180910390a150565b6101618054600091826138f783615678565b91905055905090565b60006108576127106139128585614494565b906144a0565b6000610857828461554e565b8351516001600160e01b0319166339d690a360e11b1415613ae25760008085600001516020015180602001905181019061395e9190614fa7565b9150915085602001516001146139b65760405162461bcd60e51b815260206004820152601260248201527f6572633732312076616c7565206572726f7200000000000000000000000000006044820152606401610942565b6001600160a01b038516301415613a4e576040517f42842e0e0000000000000000000000000000000000000000000000000000000081523060048201526001600160a01b038581166024830152604482018390528316906342842e0e906064015b600060405180830381600087803b158015613a3157600080fd5b505af1158015613a45573d6000803e3d6000fd5b50505050613adb565b6040517ff709b9060000000000000000000000000000000000000000000000000000000081526001600160a01b038381166004830152868116602483015285811660448301526064820183905284169063f709b906906084015b600060405180830381600087803b158015613ac257600080fd5b505af1158015613ad6573d6000803e3d6000fd5b505050505b5050612bda565b8351516001600160e01b0319166322ba176160e21b1415613c6f576000846000015160200151806020019051810190613b1b9190614d8e565b90506001600160a01b038416301415613bd65760208501516040517fa9059cbb0000000000000000000000000000000000000000000000000000000081526001600160a01b03858116600483015260248201929092529082169063a9059cbb90604401602060405180830381600087803b158015613b9857600080fd5b505af1158015613bac573d6000803e3d6000fd5b505050506040513d601f19601f82011682018060405250810190613bd091906151e9565b50613c69565b60208501516040517f776062c30000000000000000000000000000000000000000000000000000000081526001600160a01b0383811660048301528681166024830152858116604483015260648201929092529083169063776062c390608401600060405180830381600087803b158015613c5057600080fd5b505af1158015613c64573d6000803e3d6000fd5b505050505b50612bda565b8351516001600160e01b03191663025ceed960e61b1415613da957600080856000015160200151806020019051810190613ca99190614fa7565b90925090506001600160a01b038516301415613d2f5760208601516040517ff242432a0000000000000000000000000000000000000000000000000000000081523060048201526001600160a01b03868116602483015260448201849052606482019290925260a06084820152600060a48201529083169063f242432a9060c401613a17565b60208601516040517f9c1c2ee90000000000000000000000000000000000000000000000000000000081526001600160a01b0384811660048301528781166024830152868116604483015260648201849052608482019290925260c060a4820152600060c482015290841690639c1c2ee99060e401613aa8565b8351516001600160e01b0319166355575f5d60e11b1415613df2576001600160a01b0382163014613ded576020840151613ded906001600160a01b03841690613039565b612bda565b6040517f54bc0cf10000000000000000000000000000000000000000000000000000000081526001600160a01b038216906354bc0cf190613e3b908790879087906004016153e0565b600060405180830381600087803b158015613e5557600080fd5b505af1158015613e69573d6000803e3d6000fd5b5050505050505050565b600061085782846155d2565b6001600160a01b038216613e9257612bda565b6001600160a01b038316613f865783516040516000916001600160a01b038516918381818185875af1925050503d8060008114613eeb576040519150601f19603f3d011682016040523d82523d6000602084013e613ef0565b606091505b5050905080613c69576001600160a01b038316600090815261016060205260408120548651909190613f229083613918565b6001600160a01b038616600081815261016060209081526040918290208490558a51825190815290810184905292935090917e13bff06d622c14d54757ee0547a817dc3e491fb8da534f108a531b016dee3c910160405180910390a2505050612bda565b8351612bda90843085855b612a28613f9e8587613264565b848484613924565b6000613fc0856000015160200151848760400151856144ac565b90506000613fea828760000151602001518860800151878a60000151600001518b60600151614515565b865180518751516020808a015193015160808b015160608c01519596506140189593949293879291906145db565b9050856040015151600114801561403457508460400151516001145b801561409557508560400151600081518110614052576140526156bf565b6020026020010151600001516001600160a01b0316856040015160008151811061407e5761407e6156bf565b6020026020010151600001516001600160a01b0316145b156141de57604080516001808252818301909252600091816020015b60408051808201909152600080825260208201528152602001906001900390816140b157905050905085604001516000815181106140f1576140f16156bf565b60200260200101516000015181600081518110614110576141106156bf565b60209081029190910101516001600160a01b0390911690526040870151805160009061413e5761413e6156bf565b6020026020010151602001518660400151600081518110614161576141616156bf565b6020026020010151602001516141779190615566565b8160008151811061418a5761418a6156bf565b6020026020010151602001906001600160601b031690816001600160601b0316815250506141d487600001516000015183896000015160200151848b608001518c60600151614752565b5091506142379050565b6142088660000151600001518288600001516020015189604001518a608001518b60600151614752565b5086518051602090910151604088015160808a015160608b0151949550614233948693929190614752565b5090505b61425886600001516000015182886080015188602001518a60600151614261565b50949350505050565b60008251116142d75760405162461bcd60e51b8152602060048201526024808201527f7472616e736665725061796f7574733a206e6f7468696e6720746f207472616e60448201527f73666572000000000000000000000000000000000000000000000000000000006064820152608401610942565b600084815b600185516142ea91906155d2565b8110156143cb57600061432c868381518110614308576143086156bf565b6020026020010151602001516001600160601b03168961390090919063ffffffff16565b9050614367868381518110614343576143436156bf565b6020026020010151602001516001600160601b03168561391890919063ffffffff16565b935080156143b8576143798382613e73565b92506143b860405180604001604052808b815260200183815250888885815181106143a6576143a66156bf565b60200260200101516000015188613924565b50806143c381615678565b9150506142dc565b50600084600186516143dd91906155d2565b815181106143ed576143ed6156bf565b6020026020010151905061441781602001516001600160601b03168461391890919063ffffffff16565b9250826127101461446a5760405162461bcd60e51b815260206004820152601e60248201527f53756d207061796f75747320427073206e6f7420657175616c203130302500006044820152606401610942565b8115613e6957613e6960405180604001604052808a81526020018481525087836000015187613924565b600061085782846155b3565b60006108578284615591565b600081156144bb575083610880565b60006144d16144ca8787613900565b8790613918565b905060005b845181101561450b576144f7612887868381518110614308576143086156bf565b91508061450381615678565b9150506144d6565b5095945050505050565b600080600061452589898861483b565b909250905080156145cf5784516000906001600160e01b0319166322ba176160e21b141561456c5785602001518060200190518101906145659190614d8e565b90506145a5565b85516001600160e01b03191663025ceed960e61b14156145a557600086602001518060200190518101906145a09190614fa7565b509150505b6145cd604051806040016040528088815260200184815250896145c78461485d565b88613924565b505b50979650505050505050565b6000806145e788614899565b9050805160011480156145fb575086516001145b8015614654575086600081518110614615576146156156bf565b6020026020010151600001516001600160a01b03168160008151811061463d5761463d6156bf565b6020026020010151600001516001600160a01b0316145b156146db576113888160008151811061466f5761466f6156bf565b6020026020010151602001516001600160601b031611156146d25760405162461bcd60e51b815260206004820152601d60248201527f526f79616c746965732061726520746f6f206869676820283e353025290000006044820152606401610942565b85915050614747565b6000806146ec8b8989868a8a614752565b915091506113888111156147425760405162461bcd60e51b815260206004820152601d60248201527f526f79616c746965732061726520746f6f206869676820283e353025290000006044820152606401610942565b509150505b979650505050505050565b846000805b855181101561482f57614799868281518110614775576147756156bf565b6020026020010151602001516001600160601b03168361391890919063ffffffff16565b91506000806147cf858a8a86815181106147b5576147b56156bf565b6020026020010151602001516001600160601b031661483b565b9095508592509050801561481a5761481a60405180604001604052808d815260200183815250888a8681518110614808576148086156bf565b60200260200101516000015189613924565b5050808061482790615678565b915050614757565b50965096945050505050565b6000806148518561484c8686613900565b614a51565b91509150935093915050565b6001600160a01b03808216600090815260ff602052604081205490911680156148865792915050565b505060fe546001600160a01b0316919050565b80516060906001600160e01b03191663025ceed960e61b14806148cd575081516001600160e01b0319166339d690a360e11b145b156149975760008083602001518060200190518101906148ed9190614fa7565b60fd546040517f9ca7dc7a0000000000000000000000000000000000000000000000000000000081526001600160a01b038085166004830152602482018490529395509193509190911690639ca7dc7a90604401600060405180830381600087803b15801561495b57600080fd5b505af115801561496f573d6000803e3d6000fd5b505050506040513d6000823e601f3d908101601f1916820160405261088091908101906151b4565b81516001600160e01b0319167f1cdfaa400000000000000000000000000000000000000000000000000000000014156149f057600082602001518060200190518101906149e49190614dab565b60800151949350505050565b81516001600160e01b0319167fd8f960c1000000000000000000000000000000000000000000000000000000001415614a495760008260200151806020019051810190614a3d9190614eae565b60600151949350505050565b506060919050565b60008082841115614a7057614a668484613e73565b9150829050614a77565b5060009050825b9250929050565b828054614a8a9061563d565b90600052602060002090601f016020900481019282614aac5760008555614af2565b82601f10614ac557805160ff1916838001178555614af2565b82800160010185558215614af2579182015b82811115614af2578251825591602001919060010190614ad7565b50614afe929150614b38565b5090565b508054614b0e9061563d565b6000825580601f10614b1e575050565b601f0160209004906000526020600020908101906109a891905b5b80821115614afe5760008155600101614b39565b6000614b60614b5b84615526565b6154d1565b9050828152838383011115614b7457600080fd5b610857836020830184615611565b600082601f830112614b9357600080fd5b81516020614ba3614b5b83615502565b80838252828201915082860187848660051b8901011115614bc357600080fd5b60005b85811015614c1a57815167ffffffffffffffff811115614be557600080fd5b8801603f81018a13614bf657600080fd5b614c078a8783015160408401614b4d565b8552509284019290840190600101614bc6565b5090979650505050505050565b600082601f830112614c3857600080fd5b81516020614c48614b5b83615502565b80838252828201915082860187848660061b8901011115614c6857600080fd5b6000805b86811015614cbd57604080848c031215614c84578283fd5b614c8c615462565b8451614c97816156eb565b815284880151614ca681615700565b818901528652948601949290920191600101614c6c565b509198975050505050505050565b80356001600160e01b031981168114614ce357600080fd5b919050565b600082601f830112614cf957600080fd5b8135614d07614b5b82615526565b818152846020838601011115614d1c57600080fd5b816020850160208301376000918101602001919091529392505050565b600082601f830112614d4a57600080fd5b61085783835160208501614b4d565b803567ffffffffffffffff81168114614ce357600080fd5b600060208284031215614d8357600080fd5b8135610857816156eb565b600060208284031215614da057600080fd5b8151610857816156eb565b60008060408385031215614dbe57600080fd5b8251614dc9816156eb565b602084015190925067ffffffffffffffff80821115614de757600080fd5b9084019060c08287031215614dfb57600080fd5b614e0361548b565b82518152602083015182811115614e1957600080fd5b614e2588828601614d39565b60208301525060408301516040820152606083015182811115614e4757600080fd5b614e5388828601614c27565b606083015250608083015182811115614e6b57600080fd5b614e7788828601614c27565b60808301525060a083015182811115614e8f57600080fd5b614e9b88828601614b82565b60a0830152508093505050509250929050565b60008060408385031215614ec157600080fd5b8251614ecc816156eb565b602084015190925067ffffffffffffffff80821115614eea57600080fd5b9084019060a08287031215614efe57600080fd5b614f066154ae565b82518152602083015182811115614f1c57600080fd5b614f2888828601614d39565b602083015250604083015182811115614f4057600080fd5b614f4c88828601614c27565b604083015250606083015182811115614f6457600080fd5b614f7088828601614c27565b606083015250608083015182811115614f8857600080fd5b614f9488828601614b82565b6080830152508093505050509250929050565b60008060408385031215614fba57600080fd5b8251614fc5816156eb565b6020939093015192949293505050565b60008060408385031215614fe857600080fd5b8235614ff3816156eb565b91506020830135615003816156eb565b809150509250929050565b6000806000806080858703121561502457600080fd5b843561502f816156eb565b9350602085013561503f816156eb565b925060408501359150606085013567ffffffffffffffff81111561506257600080fd5b61506e87828801614ce8565b91505092959194509250565b60008060008060008060c0878903121561509357600080fd5b863561509e816156eb565b955060208701356150ae816156eb565b945060408701356150be816156eb565b935060608701356150ce816156eb565b92506150dc60808801614d59565b915060a08701356150ec81615700565b809150509295509295509295565b6000806040838503121561510d57600080fd5b8235615118816156eb565b946020939093013593505050565b60008060008060008060c0878903121561513f57600080fd5b863561514a816156eb565b9550602087013594506040870135615161816156eb565b9350606087013561517181615700565b925061517f60808801614ccb565b915060a087013567ffffffffffffffff81111561519b57600080fd5b6151a789828a01614ce8565b9150509295509295509295565b6000602082840312156151c657600080fd5b815167ffffffffffffffff8111156151dd57600080fd5b61088084828501614c27565b6000602082840312156151fb57600080fd5b8151801515811461085757600080fd5b6000806040838503121561521e57600080fd5b614ff383614ccb565b60006080828403121561523957600080fd5b6040516080810181811067ffffffffffffffff8211171561525c5761525c6156d5565b60405282518152602083015161527181615700565b6020820152604083015161528481615700565b6040820152606083015161529781615700565b60608201529392505050565b6000602082840312156152b557600080fd5b6040516020810181811067ffffffffffffffff821117156152d8576152d86156d5565b6040529151825250919050565b6000602082840312156152f757600080fd5b5035919050565b6000806040838503121561531157600080fd5b82359150602083013567ffffffffffffffff8082111561533057600080fd5b908401906060828703121561534457600080fd5b60405160608101818110838211171561535f5761535f6156d5565b6040528235815261537260208401614ccb565b602082015260408301358281111561538957600080fd5b61539588828601614ce8565b6040830152508093505050509250929050565b6000602082840312156153ba57600080fd5b61085782614d59565b6000602082840312156153d557600080fd5b813561085781615700565b6060815260008451604060608401526001600160e01b031981511660a084015260208101519050604060c084015280518060e08501526101006154298282870160208601615611565b60209788015160808601526001600160a01b039687169785019790975293909416604083015250601f909101601f191601909101919050565b6040805190810167ffffffffffffffff81118282101715615485576154856156d5565b60405290565b60405160c0810167ffffffffffffffff81118282101715615485576154856156d5565b60405160a0810167ffffffffffffffff81118282101715615485576154856156d5565b604051601f8201601f1916810167ffffffffffffffff811182821017156154fa576154fa6156d5565b604052919050565b600067ffffffffffffffff82111561551c5761551c6156d5565b5060051b60200190565b600067ffffffffffffffff821115615540576155406156d5565b50601f01601f191660200190565b6000821982111561556157615561615693565b500190565b60006001600160601b0380831681851680830382111561558857615588615693565b01949350505050565b6000826155ae57634e487b7160e01b600052601260045260246000fd5b500490565b60008160001904831182151516156155cd576155cd615693565b500290565b6000828210156155e4576155e4615693565b500390565b60006001600160601b038381169083168181101561560957615609615693565b039392505050565b60005b8381101561562c578181015183820152602001615614565b83811115612bda5750506000910152565b600181811c9082168061565157607f821691505b6020821081141561567257634e487b7160e01b600052602260045260246000fd5b50919050565b600060001982141561568c5761568c615693565b5060010190565b634e487b7160e01b600052601160045260246000fd5b634e487b7160e01b600052602160045260246000fd5b634e487b7160e01b600052603260045260246000fd5b634e487b7160e01b600052604160045260246000fd5b6001600160a01b03811681146109a857600080fd5b6001600160601b03811681146109a857600080fdfea2646970667358221220fa9af102d047c8fbd241489951ce929f7b1c9a96f90698a62ed9b5452758540d64736f6c63430008070033",
  "linkReferences": {},
  "deployedLinkReferences": {}
}