{
  "_format": "hh-sol-artifact-1",
  "contractName": "RoyaltiesV1Impl",
  "sourceName": "contracts/royalties/contracts/impl/RoyaltiesV1Impl.sol",
  "abi": [
    {
      "anonymous": false,
      "inputs": [
        {
          "indexed": false,
          "internalType": "uint256",
          "name": "tokenId",
          "type": "uint256"
        },
        {
          "indexed": false,
          "internalType": "address[]",
          "name": "recipients",
          "type": "address[]"
        },
        {
          "indexed": false,
          "internalType": "uint256[]",
          "name": "bps",
          "type": "uint256[]"
        }
      ],
      "name": "SecondarySaleFees",
      "type": "event"
    },
    {
      "inputs": [
        {
          "internalType": "uint256",
          "name": "id",
          "type": "uint256"
        }
      ],
      "name": "getFeeBps",
      "outputs": [
        {
          "internalType": "uint256[]",
          "name": "",
          "type": "uint256[]"
        }
      ],
      "stateMutability": "view",
      "type": "function"
    },
    {
      "inputs": [
        {
          "internalType": "uint256",
          "name": "id",
          "type": "uint256"
        }
      ],
      "name": "getFeeRecipients",
      "outputs": [
        {
          "internalType": "address payable[]",
          "name": "",
          "type": "address[]"
        }
      ],
      "stateMutability": "view",
      "type": "function"
    }
  ],
  "bytecode": "0x608060405234801561001057600080fd5b5061044c806100206000396000f3fe608060405234801561001057600080fd5b50600436106100365760003560e01c80630ebd4c7f1461003b578063b9c4d9fb14610064575b600080fd5b61004e610049366004610316565b610084565b60405161005b9190610389565b60405180910390f35b610077610072366004610316565b6101cb565b60405161005b919061032f565b600081815260208181526040808320805482518185028101850190935280835260609493849084015b8282101561010e576000848152602090819020604080518082019091529084015473ffffffffffffffffffffffffffffffffffffffff81168252600160a01b90046bffffffffffffffffffffffff16818301528252600190920191016100ad565b5050505090506000815167ffffffffffffffff81111561013057610130610400565b604051908082528060200260200182016040528015610159578160200160208202803683370190505b50905060005b82518110156101c35782818151811061017a5761017a6103ea565b6020026020010151602001516bffffffffffffffffffffffff168282815181106101a6576101a66103ea565b6020908102919091010152806101bb816103c1565b91505061015f565b509392505050565b600081815260208181526040808320805482518185028101850190935280835260609493849084015b82821015610255576000848152602090819020604080518082019091529084015473ffffffffffffffffffffffffffffffffffffffff81168252600160a01b90046bffffffffffffffffffffffff16818301528252600190920191016101f4565b5050505090506000815167ffffffffffffffff81111561027757610277610400565b6040519080825280602002602001820160405280156102a0578160200160208202803683370190505b50905060005b82518110156101c3578281815181106102c1576102c16103ea565b6020026020010151600001518282815181106102df576102df6103ea565b73ffffffffffffffffffffffffffffffffffffffff909216602092830291909101909101528061030e816103c1565b9150506102a6565b60006020828403121561032857600080fd5b5035919050565b6020808252825182820181905260009190848201906040850190845b8181101561037d57835173ffffffffffffffffffffffffffffffffffffffff168352928401929184019160010161034b565b50909695505050505050565b6020808252825182820181905260009190848201906040850190845b8181101561037d578351835292840192918401916001016103a5565b60006000198214156103e357634e487b7160e01b600052601160045260246000fd5b5060010190565b634e487b7160e01b600052603260045260246000fd5b634e487b7160e01b600052604160045260246000fdfea264697066735822122016bdd00e126bad7a2bbdfcfb57999e9e8b2edba0eb071a79dc13eb1ecd22b12f64736f6c63430008070033",
  "linkReferences": {},
  "deployedLinkReferences": {}
}