{
  "_format": "hh-sol-artifact-1",
  "contractName": "LibAsset",
  "sourceName": "contracts/lib-asset/contracts/LibAsset.sol",
  "abi": [
    {
      "inputs": [],
      "name": "COLLECTION",
      "outputs": [
        {
          "internalType": "bytes4",
          "name": "",
          "type": "bytes4"
        }
      ],
      "stateMutability": "view",
      "type": "function"
    },
    {
      "inputs": [],
      "name": "CRYPTO_PUNKS",
      "outputs": [
        {
          "internalType": "bytes4",
          "name": "",
          "type": "bytes4"
        }
      ],
      "stateMutability": "view",
      "type": "function"
    },
    {
      "inputs": [],
      "name": "ERC1155_ASSET_CLASS",
      "outputs": [
        {
          "internalType": "bytes4",
          "name": "",
          "type": "bytes4"
        }
      ],
      "stateMutability": "view",
      "type": "function"
    },
    {
      "inputs": [],
      "name": "ERC20_ASSET_CLASS",
      "outputs": [
        {
          "internalType": "bytes4",
          "name": "",
          "type": "bytes4"
        }
      ],
      "stateMutability": "view",
      "type": "function"
    },
    {
      "inputs": [],
      "name": "ERC721_ASSET_CLASS",
      "outputs": [
        {
          "internalType": "bytes4",
          "name": "",
          "type": "bytes4"
        }
      ],
      "stateMutability": "view",
      "type": "function"
    },
    {
      "inputs": [],
      "name": "ETH_ASSET_CLASS",
      "outputs": [
        {
          "internalType": "bytes4",
          "name": "",
          "type": "bytes4"
        }
      ],
      "stateMutability": "view",
      "type": "function"
    }
  ],
  "bytecode": "0x6101d661003a600b82828239805160001a60731461002d57634e487b7160e01b600052600060045260246000fd5b30600052607381538281f3fe730000000000000000000000000000000000000000301460806040526004361061007c5760003560e01c80636cd2c30a1161005a5780636cd2c30a1461012b578063b4797da214610152578063c214be591461017957600080fd5b80631d32813614610081578063405bf275146100dd578063697b236514610104575b600080fd5b6100a87f3e6b89d41ae6cce5def8a4064ada8dba77d057c7a0113741d26b5e4eccdd2a7e81565b6040517fffffffff00000000000000000000000000000000000000000000000000000000909116815260200160405180910390f35b6100a87f973bb64086f173ec8099b7ed3d43da984f4a332e4417a08bc6a286e6402b058681565b6100a87ff63c282591b950c64511498574d1cdfa76078b63dbcad6d06139d12d140b61cb81565b6100a87f8ae85d849167ff996c04040c44924fd364217285e4cad818292c7ac37c0a345b81565b6100a87faaaebeba3810b1e6b70781f14b2d72c1cb89c0b2b320c43bb67ff79f562f5ff481565b6100a87f73ad2146b3d3a286642c794379d750360a2d53a3459a11b3e5d6cc900f55f44a8156fea2646970667358221220d0e55f875ca64f08d40b7ba36c4e86f3cff5cfaf4148137215085152d39f284964736f6c63430008070033",
  "linkReferences": {},
  "deployedLinkReferences": {}
}