{
  "_format": "hh-sol-artifact-1",
  "contractName": "AuctionHouse1155",
  "sourceName": "contracts/auction/contracts/1155/AuctionHouse1155.sol",
  "abi": [
    {
      "anonymous": false,
      "inputs": [
        {
          "indexed": true,
          "internalType": "uint256",
          "name": "auctionId",
          "type": "uint256"
        },
        {
          "indexed": false,
          "internalType": "address",
          "name": "buyer",
          "type": "address"
        }
      ],
      "name": "AuctionBuyOut",
      "type": "event"
    },
    {
      "anonymous": false,
      "inputs": [
        {
          "indexed": true,
          "internalType": "uint256",
          "name": "auctionId",
          "type": "uint256"
        }
      ],
      "name": "AuctionCancelled",
      "type": "event"
    },
    {
      "anonymous": false,
      "inputs": [
        {
          "indexed": true,
          "internalType": "uint256",
          "name": "auctionId",
          "type": "uint256"
        },
        {
          "indexed": false,
          "internalType": "address",
          "name": "seller",
          "type": "address"
        }
      ],
      "name": "AuctionCreated",
      "type": "event"
    },
    {
      "anonymous": false,
      "inputs": [
        {
          "indexed": true,
          "internalType": "uint256",
          "name": "auctionId",
          "type": "uint256"
        }
      ],
      "name": "AuctionFinished",
      "type": "event"
    },
    {
      "anonymous": false,
      "inputs": [
        {
          "indexed": true,
          "internalType": "address",
          "name": "owner",
          "type": "address"
        },
        {
          "indexed": false,
          "internalType": "uint256",
          "name": "added",
          "type": "uint256"
        },
        {
          "indexed": false,
          "internalType": "uint256",
          "name": "total",
          "type": "uint256"
        }
      ],
      "name": "AvailableToWithdraw",
      "type": "event"
    },
    {
      "anonymous": false,
      "inputs": [
        {
          "indexed": true,
          "internalType": "uint256",
          "name": "auctionId",
          "type": "uint256"
        },
        {
          "indexed": false,
          "internalType": "address",
          "name": "buyer",
          "type": "address"
        },
        {
          "indexed": false,
          "internalType": "uint256",
          "name": "endTime",
          "type": "uint256"
        }
      ],
      "name": "BidPlaced",
      "type": "event"
    },
    {
      "anonymous": false,
      "inputs": [
        {
          "indexed": false,
          "internalType": "uint8",
          "name": "version",
          "type": "uint8"
        }
      ],
      "name": "Initialized",
      "type": "event"
    },
    {
      "anonymous": false,
      "inputs": [
        {
          "indexed": false,
          "internalType": "uint256",
          "name": "oldValue",
          "type": "uint256"
        },
        {
          "indexed": false,
          "internalType": "uint256",
          "name": "newValue",
          "type": "uint256"
        }
      ],
      "name": "MinimalDurationChanged",
      "type": "event"
    },
    {
      "anonymous": false,
      "inputs": [
        {
          "indexed": false,
          "internalType": "uint256",
          "name": "oldValue",
          "type": "uint256"
        },
        {
          "indexed": false,
          "internalType": "uint256",
          "name": "newValue",
          "type": "uint256"
        }
      ],
      "name": "MinimalStepChanged",
      "type": "event"
    },
    {
      "anonymous": false,
      "inputs": [
        {
          "indexed": true,
          "internalType": "address",
          "name": "previousOwner",
          "type": "address"
        },
        {
          "indexed": true,
          "internalType": "address",
          "name": "newOwner",
          "type": "address"
        }
      ],
      "name": "OwnershipTransferred",
      "type": "event"
    },
    {
      "anonymous": false,
      "inputs": [
        {
          "indexed": false,
          "internalType": "uint256",
          "name": "oldValue",
          "type": "uint256"
        },
        {
          "indexed": false,
          "internalType": "uint256",
          "name": "newValue",
          "type": "uint256"
        }
      ],
      "name": "ProtocolFeeChanged",
      "type": "event"
    },
    {
      "anonymous": false,
      "inputs": [
        {
          "indexed": true,
          "internalType": "bytes4",
          "name": "assetType",
          "type": "bytes4"
        },
        {
          "indexed": false,
          "internalType": "address",
          "name": "proxy",
          "type": "address"
        }
      ],
      "name": "ProxyChange",
      "type": "event"
    },
    {
      "inputs": [
        {
          "internalType": "address",
          "name": "newDefaultFeeReceiver",
          "type": "address"
        },
        {
          "internalType": "contract IRoyaltiesProvider",
          "name": "newRoyaltiesProvider",
          "type": "address"
        },
        {
          "internalType": "address",
          "name": "_transferProxy",
          "type": "address"
        },
        {
          "internalType": "address",
          "name": "_erc20TransferProxy",
          "type": "address"
        },
        {
          "internalType": "uint64",
          "name": "newProtocolFee",
          "type": "uint64"
        },
        {
          "internalType": "uint96",
          "name": "_minimalStepBasePoint",
          "type": "uint96"
        }
      ],
      "name": "__AuctionHouse1155_init",
      "outputs": [],
      "stateMutability": "nonpayable",
      "type": "function"
    },
    {
      "inputs": [],
      "name": "auctionId",
      "outputs": [
        {
          "internalType": "uint256",
          "name": "",
          "type": "uint256"
        }
      ],
      "stateMutability": "view",
      "type": "function"
    },
    {
      "inputs": [
        {
          "internalType": "uint256",
          "name": "_auctionId",
          "type": "uint256"
        },
        {
          "components": [
            {
              "internalType": "uint256",
              "name": "amount",
              "type": "uint256"
            },
            {
              "internalType": "bytes4",
              "name": "dataType",
              "type": "bytes4"
            },
            {
              "internalType": "bytes",
              "name": "data",
              "type": "bytes"
            }
          ],
          "internalType": "struct AuctionHouseBase.Bid",
          "name": "bid",
          "type": "tuple"
        }
      ],
      "name": "buyOut",
      "outputs": [],
      "stateMutability": "payable",
      "type": "function"
    },
    {
      "inputs": [
        {
          "internalType": "uint256",
          "name": "_auctionId",
          "type": "uint256"
        }
      ],
      "name": "cancel",
      "outputs": [],
      "stateMutability": "nonpayable",
      "type": "function"
    },
    {
      "inputs": [
        {
          "internalType": "uint96",
          "name": "newValue",
          "type": "uint96"
        }
      ],
      "name": "changeMinimalDuration",
      "outputs": [],
      "stateMutability": "nonpayable",
      "type": "function"
    },
    {
      "inputs": [
        {
          "internalType": "uint96",
          "name": "newValue",
          "type": "uint96"
        }
      ],
      "name": "changeMinimalStep",
      "outputs": [],
      "stateMutability": "nonpayable",
      "type": "function"
    },
    {
      "inputs": [
        {
          "internalType": "uint256",
          "name": "_auctionId",
          "type": "uint256"
        }
      ],
      "name": "checkAuctionExistence",
      "outputs": [
        {
          "internalType": "bool",
          "name": "",
          "type": "bool"
        }
      ],
      "stateMutability": "view",
      "type": "function"
    },
    {
      "inputs": [
        {
          "internalType": "uint256",
          "name": "_auctionId",
          "type": "uint256"
        }
      ],
      "name": "checkAuctionRangeTime",
      "outputs": [
        {
          "internalType": "bool",
          "name": "",
          "type": "bool"
        }
      ],
      "stateMutability": "view",
      "type": "function"
    },
    {
      "inputs": [],
      "name": "defaultFeeReceiver",
      "outputs": [
        {
          "internalType": "address",
          "name": "",
          "type": "address"
        }
      ],
      "stateMutability": "view",
      "type": "function"
    },
    {
      "inputs": [
        {
          "internalType": "address",
          "name": "",
          "type": "address"
        }
      ],
      "name": "feeReceivers",
      "outputs": [
        {
          "internalType": "address",
          "name": "",
          "type": "address"
        }
      ],
      "stateMutability": "view",
      "type": "function"
    },
    {
      "inputs": [
        {
          "internalType": "uint256",
          "name": "_auctionId",
          "type": "uint256"
        }
      ],
      "name": "finishAuction",
      "outputs": [],
      "stateMutability": "nonpayable",
      "type": "function"
    },
    {
      "inputs": [
        {
          "internalType": "uint256",
          "name": "_auctionId",
          "type": "uint256"
        }
      ],
      "name": "getCurrentBuyer",
      "outputs": [
        {
          "internalType": "address",
          "name": "",
          "type": "address"
        }
      ],
      "stateMutability": "view",
      "type": "function"
    },
    {
      "inputs": [
        {
          "internalType": "uint256",
          "name": "_auctionId",
          "type": "uint256"
        }
      ],
      "name": "getMinimalNextBid",
      "outputs": [
        {
          "internalType": "uint256",
          "name": "minBid",
          "type": "uint256"
        }
      ],
      "stateMutability": "view",
      "type": "function"
    },
    {
      "inputs": [],
      "name": "minimalDuration",
      "outputs": [
        {
          "internalType": "uint96",
          "name": "",
          "type": "uint96"
        }
      ],
      "stateMutability": "view",
      "type": "function"
    },
    {
      "inputs": [],
      "name": "minimalStepBasePoint",
      "outputs": [
        {
          "internalType": "uint96",
          "name": "",
          "type": "uint96"
        }
      ],
      "stateMutability": "view",
      "type": "function"
    },
    {
      "inputs": [
        {
          "internalType": "address",
          "name": "",
          "type": "address"
        },
        {
          "internalType": "address",
          "name": "",
          "type": "address"
        },
        {
          "internalType": "uint256[]",
          "name": "",
          "type": "uint256[]"
        },
        {
          "internalType": "uint256[]",
          "name": "",
          "type": "uint256[]"
        },
        {
          "internalType": "bytes",
          "name": "",
          "type": "bytes"
        }
      ],
      "name": "onERC1155BatchReceived",
      "outputs": [
        {
          "internalType": "bytes4",
          "name": "",
          "type": "bytes4"
        }
      ],
      "stateMutability": "nonpayable",
      "type": "function"
    },
    {
      "inputs": [
        {
          "internalType": "address",
          "name": "",
          "type": "address"
        },
        {
          "internalType": "address",
          "name": "",
          "type": "address"
        },
        {
          "internalType": "uint256",
          "name": "",
          "type": "uint256"
        },
        {
          "internalType": "uint256",
          "name": "",
          "type": "uint256"
        },
        {
          "internalType": "bytes",
          "name": "",
          "type": "bytes"
        }
      ],
      "name": "onERC1155Received",
      "outputs": [
        {
          "internalType": "bytes4",
          "name": "",
          "type": "bytes4"
        }
      ],
      "stateMutability": "nonpayable",
      "type": "function"
    },
    {
      "inputs": [],
      "name": "owner",
      "outputs": [
        {
          "internalType": "address",
          "name": "",
          "type": "address"
        }
      ],
      "stateMutability": "view",
      "type": "function"
    },
    {
      "inputs": [],
      "name": "protocolFee",
      "outputs": [
        {
          "internalType": "uint256",
          "name": "",
          "type": "uint256"
        }
      ],
      "stateMutability": "view",
      "type": "function"
    },
    {
      "inputs": [
        {
          "internalType": "uint256",
          "name": "_auctionId",
          "type": "uint256"
        },
        {
          "components": [
            {
              "internalType": "uint256",
              "name": "amount",
              "type": "uint256"
            },
            {
              "internalType": "bytes4",
              "name": "dataType",
              "type": "bytes4"
            },
            {
              "internalType": "bytes",
              "name": "data",
              "type": "bytes"
            }
          ],
          "internalType": "struct AuctionHouseBase.Bid",
          "name": "bid",
          "type": "tuple"
        }
      ],
      "name": "putBid",
      "outputs": [],
      "stateMutability": "payable",
      "type": "function"
    },
    {
      "inputs": [],
      "name": "renounceOwnership",
      "outputs": [],
      "stateMutability": "nonpayable",
      "type": "function"
    },
    {
      "inputs": [],
      "name": "royaltiesRegistry",
      "outputs": [
        {
          "internalType": "contract IRoyaltiesProvider",
          "name": "",
          "type": "address"
        }
      ],
      "stateMutability": "view",
      "type": "function"
    },
    {
      "inputs": [
        {
          "internalType": "address payable",
          "name": "newDefaultFeeReceiver",
          "type": "address"
        }
      ],
      "name": "setDefaultFeeReceiver",
      "outputs": [],
      "stateMutability": "nonpayable",
      "type": "function"
    },
    {
      "inputs": [
        {
          "internalType": "address",
          "name": "token",
          "type": "address"
        },
        {
          "internalType": "address",
          "name": "wallet",
          "type": "address"
        }
      ],
      "name": "setFeeReceiver",
      "outputs": [],
      "stateMutability": "nonpayable",
      "type": "function"
    },
    {
      "inputs": [
        {
          "internalType": "uint64",
          "name": "_protocolFee",
          "type": "uint64"
        }
      ],
      "name": "setProtocolFee",
      "outputs": [],
      "stateMutability": "nonpayable",
      "type": "function"
    },
    {
      "inputs": [
        {
          "internalType": "contract IRoyaltiesProvider",
          "name": "newRoyaltiesRegistry",
          "type": "address"
        }
      ],
      "name": "setRoyaltiesRegistry",
      "outputs": [],
      "stateMutability": "nonpayable",
      "type": "function"
    },
    {
      "inputs": [
        {
          "internalType": "bytes4",
          "name": "assetType",
          "type": "bytes4"
        },
        {
          "internalType": "address",
          "name": "proxy",
          "type": "address"
        }
      ],
      "name": "setTransferProxy",
      "outputs": [],
      "stateMutability": "nonpayable",
      "type": "function"
    },
    {
      "inputs": [
        {
          "internalType": "address",
          "name": "_sellToken",
          "type": "address"
        },
        {
          "internalType": "uint96",
          "name": "_sellTokenValue",
          "type": "uint96"
        },
        {
          "internalType": "uint256",
          "name": "_sellTokenId",
          "type": "uint256"
        },
        {
          "internalType": "address",
          "name": "_buyAsset",
          "type": "address"
        },
        {
          "internalType": "uint96",
          "name": "minimalPrice",
          "type": "uint96"
        },
        {
          "internalType": "bytes4",
          "name": "dataType",
          "type": "bytes4"
        },
        {
          "internalType": "bytes",
          "name": "data",
          "type": "bytes"
        }
      ],
      "name": "startAuction",
      "outputs": [],
      "stateMutability": "nonpayable",
      "type": "function"
    },
    {
      "inputs": [
        {
          "internalType": "bytes4",
          "name": "interfaceId",
          "type": "bytes4"
        }
      ],
      "name": "supportsInterface",
      "outputs": [
        {
          "internalType": "bool",
          "name": "",
          "type": "bool"
        }
      ],
      "stateMutability": "view",
      "type": "function"
    },
    {
      "inputs": [
        {
          "internalType": "address",
          "name": "newOwner",
          "type": "address"
        }
      ],
      "name": "transferOwnership",
      "outputs": [],
      "stateMutability": "nonpayable",
      "type": "function"
    },
    {
      "inputs": [
        {
          "internalType": "address",
          "name": "_to",
          "type": "address"
        }
      ],
      "name": "withdrawFaultyBid",
      "outputs": [],
      "stateMutability": "nonpayable",
      "type": "function"
    }
  ],
  "bytecode": "0x608060405234801561001057600080fd5b5061591080620000216000396000f3fe6080604052600436106101d85760003560e01c80636eeb69db11610102578063bc197c8111610095578063e68aceae11610064578063e68aceae146105d3578063ec578348146105f3578063f23a6e6114610613578063f2fde38b1461065857600080fd5b8063bc197c8114610515578063bd9d21bd14610573578063cf266ed014610593578063e66db25e146105b357600080fd5b8063914bf5f9116100d1578063914bf5f9146104a3578063a2a106b8146104cb578063a6f4a3e0146104eb578063b0e21e8a146104fe57600080fd5b80636eeb69db14610416578063715018a61461045057806374d0d4f9146104655780638da5cb5b1461048557600080fd5b8063363188151161017a57806343bc42d31161014957806343bc42d3146103a2578063506a90e7146103c25780635f4a436e146103d55780636d8f0694146103f557600080fd5b806336318815146103215780633abf6fd4146103415780633be899221461036257806340e58ee51461038257600080fd5b806310782f8f116101b657806310782f8f1461028f5780631cdfe3d8146102a65780632f572336146102c857806330c642f11461030157600080fd5b806301ffc9a7146101dd57806302097ab1146102125780630d60796414610261575b600080fd5b3480156101e957600080fd5b506101fd6101f83660046153b5565b610678565b60405190151581526020015b60405180910390f35b34801561021e57600080fd5b5061024961022d366004614e88565b610130602052600090815260409020546001600160a01b031681565b6040516001600160a01b039091168152602001610209565b34801561026d57600080fd5b5061028161027c3660046154aa565b610712565b604051908152602001610209565b34801561029b57600080fd5b506102816101925481565b3480156102b257600080fd5b506102c66102c1366004614e88565b610962565b005b3480156102d457600080fd5b50610193546102e9906001600160601b031681565b6040516001600160601b039091168152602001610209565b34801561030d57600080fd5b506102c661031c3660046153d0565b61098d565b34801561032d57600080fd5b506102c661033c366004615588565b610a03565b34801561034d57600080fd5b5061012f54610249906001600160a01b031681565b34801561036e57600080fd5b506102c661037d366004614e88565b610a7b565b34801561038e57600080fd5b506102c661039d3660046154aa565b610aa6565b3480156103ae57600080fd5b506102c66103bd36600461556d565b610ed3565b6102c66103d03660046154c3565b610f31565b3480156103e157600080fd5b506102c66103f0366004615588565b611611565b34801561040157600080fd5b5061012e54610249906001600160a01b031681565b34801561042257600080fd5b506102496104313660046154aa565b60009081526101c660205260409020600701546001600160a01b031690565b34801561045c57600080fd5b506102c66116aa565b34801561047157600080fd5b506102c661048036600461523c565b6116be565b34801561049157600080fd5b5060c9546001600160a01b0316610249565b3480156104af57600080fd5b50610193546102e990600160601b90046001600160601b031681565b3480156104d757600080fd5b506101fd6104e63660046154aa565b6118ba565b6102c66104f93660046154c3565b6118dd565b34801561050a57600080fd5b5061028161012d5481565b34801561052157600080fd5b5061055a610530366004615125565b7fbc197c810000000000000000000000000000000000000000000000000000000095945050505050565b6040516001600160e01b03199091168152602001610209565b34801561057f57600080fd5b506102c661058e366004614e88565b611cc7565b34801561059f57600080fd5b506102c66105ae3660046154aa565b611d51565b3480156105bf57600080fd5b506102c66105ce3660046150ec565b6122c7565b3480156105df57600080fd5b506102c66105ee3660046152bc565b6122fe565b3480156105ff57600080fd5b506101fd61060e3660046154aa565b61278c565b34801561061f57600080fd5b5061055a61062e3660046151d3565b7ff23a6e610000000000000000000000000000000000000000000000000000000095945050505050565b34801561066457600080fd5b506102c6610673366004614e88565b61287d565b6040517f01ffc9a70000000000000000000000000000000000000000000000000000000081526001600160e01b03198216600482015260009030906301ffc9a79060240160206040518083038186803b1580156106d457600080fd5b505afa1580156106e8573d6000803e3d6000fd5b505050506040513d601f19601f8201168201806040525081019061070c9190615393565b92915050565b60008181526101c66020908152604080832081516101808101835281546001600160a01b038082168352600160a01b918290046001600160601b0390811684880152600185015484870152600285015491821660608086019190915292909104166080830152835190810184526003830180548252600484015460e01b6001600160e01b031916958201959095526005830180548796939560a087019492908401916107bd90615802565b80601f01602080910402602001604051908101604052809291908181526020018280546107e990615802565b80156108365780601f1061080b57610100808354040283529160200191610836565b820191906000526020600020905b81548152906001019060200180831161081957829003601f168201915b50505091909252505050815260068201546001600160a01b038082166020840152600160a01b918290046001600160601b031660408401526007840154908116606084015290810467ffffffffffffffff166080830152600160e01b900460e01b6001600160e01b03191660a082015260088201805460c0909201916108bb90615802565b80601f01602080910402602001604051908101604052809291908181526020018280546108e790615802565b80156109345780601f1061090957610100808354040283529160200191610934565b820191906000526020600020905b81548152906001019060200180831161091757829003601f168201915b505050505081525050905061095b8161010001518260e001518360a001516000015161290d565b9392505050565b61096a61295f565b61012f80546001600160a01b0319166001600160a01b0392909216919091179055565b61099561295f565b6001600160e01b03198216600081815261015f602090815260409182902080546001600160a01b0319166001600160a01b03861690811790915591519182527f4b5aced933c0c9a88aeac3f0b3b72c5aaf75df8ebaf53225773248c4c3153593910160405180910390a25050565b610a0b61295f565b61019354604080516001600160601b03928316815291831660208301527fa13d21133118bfdffd1e4dc724faaadc5860dcb38ac5836e06f183ac5306b279910160405180910390a161019380546bffffffffffffffffffffffff19166001600160601b0392909216919091179055565b610a8361295f565b61012e80546001600160a01b0319166001600160a01b0392909216919091179055565b600260fb541415610afe5760405162461bcd60e51b815260206004820152601f60248201527f5265656e7472616e637947756172643a207265656e7472616e742063616c6c0060448201526064015b60405180910390fd5b600260fb81905560008281526101c66020908152604080832081516101808101835281546001600160a01b038082168352600160a01b918290046001600160601b0390811684880152600185015484870152978401549081166060808501919091529190049096166080820152825195860183526003820180548752600483015460e01b6001600160e01b0319169487019490945260058201805495969195929460a08701949293909284019190610bb590615802565b80601f0160208091040260200160405190810160405280929190818152602001828054610be190615802565b8015610c2e5780601f10610c0357610100808354040283529160200191610c2e565b820191906000526020600020905b815481529060010190602001808311610c1157829003601f168201915b50505091909252505050815260068201546001600160a01b038082166020840152600160a01b918290046001600160601b031660408401526007840154908116606084015290810467ffffffffffffffff166080830152600160e01b900460e01b6001600160e01b03191660a082015260088201805460c090920191610cb390615802565b80601f0160208091040260200160405190810160405280929190818152602001828054610cdf90615802565b8015610d2c5780601f10610d0157610100808354040283529160200191610d2c565b820191906000526020600020905b815481529060010190602001808311610d0f57829003601f168201915b5050505050815250509050610d4d8160c001516001600160a01b0316151590565b610d995760405162461bcd60e51b815260206004820181905260248201527f7468657265206973206e6f2061756374696f6e207769746820746869732069646044820152606401610af5565b60c08101516001600160a01b0381163314610df65760405162461bcd60e51b815260206004820152601a60248201527f61756374696f6e206f776e6572206e6f742064657465637465640000000000006044820152606401610af5565b6101008201516001600160a01b031615610e525760405162461bcd60e51b815260206004820152601d60248201527f63616e27742063616e63656c2061756374696f6e2077697468206269640000006044820152606401610af5565b610e958260000151836040015184602001516001600160601b03167f973bb64086f173ec8099b7ed3d43da984f4a332e4417a08bc6a286e6402b058630866129b9565b610e9e83612a38565b60405183907f2809c7e17bf978fbc7194c0a694b638c4215e9140cacc6c38ca36010b45697df90600090a25050600160fb5550565b610edb61295f565b61012d546040805191825267ffffffffffffffff831660208301527fb51bef650ff5ad43303dbe2e500a74d4fd1bdc9ae05f046bece330e82ae0ba87910160405180910390a167ffffffffffffffff1661012d55565b600260fb541415610f845760405162461bcd60e51b815260206004820152601f60248201527f5265656e7472616e637947756172643a207265656e7472616e742063616c6c006044820152606401610af5565b600260fb819055815160008481526101c66020908152604080832081516101808101835281546001600160a01b038082168352600160a01b918290046001600160601b0390811684880152600185015484870152988401549081166060808501919091529190049097166080820152825196870183526003820180548852600483015460e01b6001600160e01b0319169488019490945260058201805433989295939460a0870194929084019161103a90615802565b80601f016020809104026020016040519081016040528092919081815260200182805461106690615802565b80156110b35780601f10611088576101008083540402835291602001916110b3565b820191906000526020600020905b81548152906001019060200180831161109657829003601f168201915b50505091909252505050815260068201546001600160a01b038082166020840152600160a01b918290046001600160601b031660408401526007840154908116606084015290810467ffffffffffffffff166080830152600160e01b900460e01b6001600160e01b03191660a082015260088201805460c09092019161113890615802565b80601f016020809104026020016040519081016040528092919081815260200182805461116490615802565b80156111b15780601f10611186576101008083540402835291602001916111b1565b820191906000526020600020905b81548152906001019060200180831161119457829003601f168201915b505050505081525050905060008160800151905060006111db836101600151846101400151612aca565b905060006111f187604001518860200151612b72565b6000015190506103e884610120015167ffffffffffffffff166112148360a01c90565b845160a01c6112239190615713565b61122d9190615713565b11156112685760405162461bcd60e51b815260206004820152600a60248201526977726f6e67206665657360b01b6044820152606401610af5565b60608401516001600160a01b03166112865786516112869087612bfd565b6112af8460c0015185608001516001600160601b031684604001516001600160601b0316612c7b565b6112b98286612ce4565b156112d7576112cc8488848b858b612d25565b505050505050611608565b61010084015142906001600160a01b0316611399576020830151611305906001600160601b03831690612f45565b60008a81526101c66020526040902060020180546001600160601b03808416600160a01b026001600160a01b039092169190911790915560e0870151919550168610156113945760405162461bcd60e51b815260206004820152600d60248201527f62696420746f6f20736d616c6c000000000000000000000000000000000000006044820152606401610af5565b611472565b866001600160a01b03168561010001516001600160a01b031614156114005760405162461bcd60e51b815260206004820152601360248201527f616c72656164792077696e6e696e6720626964000000000000000000000000006044820152606401610af5565b600061141e8661010001518760e001518860a001516000015161290d565b9050808710156114705760405162461bcd60e51b815260206004820152600b60248201527f62696420746f6f206c6f770000000000000000000000000000000000000000006044820152606401610af5565b505b60006114818660600151612fb6565b90506114a286606001518761010001518a8960a00151858e6000015161300a565b60008a81526101c660209081526040918290208b51600382019081558c83015160048301805463ffffffff191660e09290921c919091179055928c015180518d94936114f393600501920190614b35565b50505060008a81526101c66020526040812060070180546001600160a01b0319166001600160a01b038b16179055610193546001600160601b031690610384821061154057610384611542565b815b90506001600160601b038082169061155c90891686613023565b6001600160601b031610156115b15761157e6001600160601b03851682612f45565b60008d81526101c66020526040902060020180546001600160a01b0316600160a01b6001600160601b0384160217905596505b604080516001600160a01b038c1681526001600160601b03891660208201528d917f0e54eff26401bf69b81b26f60bd85ef47f5d85275c1d268d84f68d6897431c47910160405180910390a2505050505050505050505b5050600160fb55565b61161961295f565b61019354604080516001600160601b03600160601b9093048316815291831660208301527f30bd79db520376a437e44c44c2b3ec63f6730f4df0a95f56ea39765f1420cab7910160405180910390a161019380546001600160601b03909216600160601b027fffffffffffffffff000000000000000000000000ffffffffffffffffffffffff909216919091179055565b6116b261295f565b6116bc6000613091565b565b600054610100900460ff16158080156116de5750600054600160ff909116105b806116f85750303b1580156116f8575060005460ff166001145b61175b5760405162461bcd60e51b815260206004820152602e60248201527f496e697469616c697a61626c653a20636f6e747261637420697320616c72656160448201526d191e481a5b9a5d1a585b1a5e995960921b6064820152608401610af5565b6000805460ff19166001179055801561177e576000805461ff0019166101001790555b6117866130e3565b61178e61314e565b6117966130e3565b61179e6131c2565b6117a782613234565b61015f6020527f37a0f11a7c52ed6343a78a36fd0006c8cc3b240985add397f3caa41a44193d0480546001600160a01b038681166001600160a01b0319928316179092557f395075a018bfc52b97ac5ac6c81b5009d7cd5700f7d583893d57c0efe87b5d9580549288169282168317905563025ceed960e61b6000527f6bb7d5147a8fb54909a95658247450b7e2bd8cbe89124ff5c9c4c921b1f0f121805490911690911790556118638367ffffffffffffffff168888613384565b61186b6134c7565b80156118b1576000805461ff0019169055604051600181527f7f26b83ff96e1f2b6a682f133852f6798a09c465da95921460cefb38474024989060200160405180910390a15b50505050505050565b60008181526101c660205260408120600601546001600160a01b0316151561070c565b600260fb5414156119305760405162461bcd60e51b815260206004820152601f60248201527f5265656e7472616e637947756172643a207265656e7472616e742063616c6c006044820152606401610af5565b600260fb81905560008381526101c66020908152604080832081516101808101835281546001600160a01b038082168352600160a01b918290046001600160601b0390811684880152600185015484870152978401549081166060808501919091529190049096166080820152825195860183526003820180548752600483015460e01b6001600160e01b0319169487019490945260058201805495969195929460a087019492939092840191906119e790615802565b80601f0160208091040260200160405190810160405280929190818152602001828054611a1390615802565b8015611a605780601f10611a3557610100808354040283529160200191611a60565b820191906000526020600020905b815481529060010190602001808311611a4357829003601f168201915b50505091909252505050815260068201546001600160a01b038082166020840152600160a01b918290046001600160601b031660408401526007840154908116606084015290810467ffffffffffffffff166080830152600160e01b900460e01b6001600160e01b03191660a082015260088201805460c090920191611ae590615802565b80601f0160208091040260200160405190810160405280929190818152602001828054611b1190615802565b8015611b5e5780601f10611b3357610100808354040283529160200191611b5e565b820191906000526020600020905b815481529060010190602001808311611b4157829003601f168201915b50505050508152505090506000611b7f826101600151836101400151612aca565b9050611baa8260c0015183608001516001600160601b031683604001516001600160601b0316612c7b565b6000611bbe84604001518560200151612b72565b518451909150611bcf908390612ce4565b611c1b5760405162461bcd60e51b815260206004820152601560248201527f6e6f7420656e6f75676820666f72206275796f757400000000000000000000006044820152606401610af5565b6103e883610120015167ffffffffffffffff16611c388360a01c90565b845160a01c611c479190615713565b611c519190615713565b1115611c8c5760405162461bcd60e51b815260206004820152600a60248201526977726f6e67206665657360b01b6044820152606401610af5565b606083015133906001600160a01b0316611cac578451611cac9082612bfd565b611cba848685898686612d25565b5050600160fb5550505050565b336000818152610191602052604090205480611d255760405162461bcd60e51b815260206004820152601360248201527f6e6f7468696e6720746f207769746864726177000000000000000000000000006044820152606401610af5565b6001600160a01b0380831660009081526101916020526040812055611d4c908416826135cf565b505050565b600260fb541415611da45760405162461bcd60e51b815260206004820152601f60248201527f5265656e7472616e637947756172643a207265656e7472616e742063616c6c006044820152606401610af5565b600260fb81905560008281526101c66020908152604080832081516101808101835281546001600160a01b038082168352600160a01b918290046001600160601b0390811684880152600185015484870152978401549081166060808501919091529190049096166080820152825195860183526003820180548752600483015460e01b6001600160e01b0319169487019490945260058201805495969195929460a08701949293909284019190611e5b90615802565b80601f0160208091040260200160405190810160405280929190818152602001828054611e8790615802565b8015611ed45780601f10611ea957610100808354040283529160200191611ed4565b820191906000526020600020905b815481529060010190602001808311611eb757829003601f168201915b50505091909252505050815260068201546001600160a01b038082166020840152600160a01b918290046001600160601b031660408401526007840154908116606084015290810467ffffffffffffffff166080830152600160e01b900460e01b6001600160e01b03191660a082015260088201805460c090920191611f5990615802565b80601f0160208091040260200160405190810160405280929190818152602001828054611f8590615802565b8015611fd25780601f10611fa757610100808354040283529160200191611fd2565b820191906000526020600020905b815481529060010190602001808311611fb557829003601f168201915b5050505050815250509050611ff38160c001516001600160a01b0316151590565b61203f5760405162461bcd60e51b815260206004820181905260248201527f7468657265206973206e6f2061756374696f6e207769746820746869732069646044820152606401610af5565b6000612055826101600151836101400151612aca565b905061207b82608001516001600160601b031682604001516001600160601b0316613672565b15801561209557506101008201516001600160a01b031615155b6121075760405162461bcd60e51b815260206004820152602b60248201527f6f6e6c7920656e6465642061756374696f6e2077697468206269642063616e2060448201527f62652066696e69736865640000000000000000000000000000000000000000006064820152608401610af5565b60006121238360a00151604001518460a0015160200151612b72565b516040805160a081018083528651878401516020808a0151610120860187526060610100870181905260e087018087526001600160601b0390921660c088015263025ceed960e61b90915286516001600160a01b039094168483015283870192909252855180840387018152929091019094528151909301929092529192506122b19190819081526020016121bb8660c001516136bb565b81526020016121cd856000015161376d565b815263025ceed960e61b60005261015f60209081527f6bb7d5147a8fb54909a95658247450b7e2bd8cbe89124ff5c9c4c921b1f0f121546001600160a01b03169082015230604091820152805160a0808201909252606087015191870151519091829161223a91906137fa565b815260200161224d8761010001516136bb565b815260200161225b8561376d565b815260200161226d8760600151612fb6565b6001600160a01b03168152306020918201526040805160608101825261012089015167ffffffffffffffff1681526103e892810192909252810160025b9052613877565b50506122bc84612a38565b5050600160fb555050565b6122cf61295f565b6001600160a01b0391821660009081526101306020526040902080546001600160a01b03191691909216179055565b61012d54600061230e8385612aca565b6101935460208201519192506001600160601b0390811691161080159061235857506305265c006fffffffffffffffffffffffffffffffff1681602001516001600160601b031611155b6123a45760405162461bcd60e51b815260206004820152601260248201527f696e636f7272656374206475726174696f6e00000000000000000000000000006044820152606401610af5565b6000886001600160601b0316116123fd5760405162461bcd60e51b815260206004820152601960248201527f696e636f7272656374205f73656c6c546f6b656e56616c7565000000000000006044820152606401610af5565b80516103e89061241190849060a01c615713565b111561244c5760405162461bcd60e51b815260206004820152600a60248201526977726f6e67206665657360b01b6044820152606401610af5565b6000612456613992565b9050600033905060006040518061018001604052808d6001600160a01b031681526020018c6001600160601b031681526020018b81526020018a6001600160a01b0316815260200160006001600160601b0316815260200160405180606001604052806000815260200160006001600160e01b0319168152602001604051806020016040528060008152508152508152602001836001600160a01b03168152602001896001600160601b0316815260200160006001600160a01b031681526020018667ffffffffffffffff168152602001886001600160e01b0319168152602001878152509050806101c6600085815260200190815260200160002060008201518160000160006101000a8154816001600160a01b0302191690836001600160a01b0316021790555060208201518160000160146101000a8154816001600160601b0302191690836001600160601b031602179055506040820151816001015560608201518160020160006101000a8154816001600160a01b0302191690836001600160a01b0316021790555060808201518160020160146101000a8154816001600160601b0302191690836001600160601b0316021790555060a0820151816003016000820151816000015560208201518160010160006101000a81548163ffffffff021916908360e01c02179055506040820151816002019080519060200190612663929190614b35565b50505060c082015160e0808401516001600160a01b03928316600160a01b6001600160601b039092168202176006850155610100850151600785018054610120880151610140890151939096166001600160e01b03199091161767ffffffffffffffff909516909202939093176001600160e01b0316600160e01b9390921c929092021790556101608201518051612705916008840191602090910190614b35565b509050506127408c8b8d6001600160601b03167f973bb64086f173ec8099b7ed3d43da984f4a332e4417a08bc6a286e6402b058686306129b9565b6040516001600160a01b038316815283907f5d551e2a2cc977fd8c530317059b4f2d9f504fb82f7dfad736f8d56679bcdfd09060200160405180910390a2505050505050505050505050565b60008181526101c66020526040812060028101546008909101805461070c92600160a01b90046001600160601b03169161286b916127c990615802565b80601f01602080910402602001604051908101604052809291908181526020018280546127f590615802565b80156128425780601f1061281757610100808354040283529160200191612842565b820191906000526020600020905b81548152906001019060200180831161282557829003601f168201915b50505060008881526101c66020526040902060070154600160e01b900460e01b9150612aca9050565b604001516001600160601b0316613672565b61288561295f565b6001600160a01b0381166129015760405162461bcd60e51b815260206004820152602660248201527f4f776e61626c653a206e6577206f776e657220697320746865207a65726f206160448201527f64647265737300000000000000000000000000000000000000000000000000006064820152608401610af5565b61290a81613091565b50565b60006001600160a01b03841661292d57506001600160601b03821661095b565b6101935461295790612950908490600160601b90046001600160601b03166139ad565b83906139c5565b949350505050565b60c9546001600160a01b031633146116bc5760405162461bcd60e51b815260206004820181905260248201527f4f776e61626c653a2063616c6c6572206973206e6f7420746865206f776e65726044820152606401610af5565b60408051608081018252606080820181905281830180835260208084018990526001600160e01b031988169182905284516001600160a01b038c8116828401528187018c90528651808303880181529190940186528451820152600091825261015f90529290922054612a309285918591166139d1565b505050505050565b60405181907f53ab6823c4ae8c865033f94ee16313a21c6ade19520d884dc804d622a43bc67490600090a260008181526101c66020526040812081815560018101829055600281018290556003810182815560048201805463ffffffff1916905590919081612aaa6005850182614bb9565b505060006006830181905560078301819055611d4c906008840190614bb9565b6040805160808101825260008082526020820181905291810182905260608101919091526001600160e01b03198216632611a13360e11b1415612b2a57825115612b255782806020019051810190612b2291906153ec565b90505b61070c565b60405162461bcd60e51b815260206004820152601660248201527f77726f6e672061756374696f6e206461746154797065000000000000000000006044820152606401610af5565b6040805160208101909152600081526001600160e01b03198216632611a13360e11b1415612bb557825115612b255782806020019051810190612b229190615468565b60405162461bcd60e51b815260206004820152601260248201527f77726f6e672062696420646174615479706500000000000000000000000000006044820152606401610af5565b3482811015612c4e5760405162461bcd60e51b815260206004820152600e60248201527f6e6f7420656e6f756768204554480000000000000000000000000000000000006044820152606401610af5565b6000612c5a8285613f20565b90508015612c7557612c756001600160a01b038416826135cf565b50505050565b6001600160a01b03831615158015612c985750612c988282613672565b611d4c5760405162461bcd60e51b815260206004820152601360248201527f61756374696f6e20697320696e616374697665000000000000000000000000006044820152606401610af5565b60008083606001516001600160601b0316118015612d0f57508183606001516001600160601b031611155b15612d1c5750600161070c565b50600092915050565b6000612d348760600151612fb6565b9050612d4f8760a00151886060015189610100015184613f2c565b60608701516000906001600160a01b0316612d6b575030612d6e565b50815b6040805160a081018083528a518b8401516020808e0151610120860187526060610100870181905260e087018087526001600160601b0390921660c088015263025ceed960e61b90915286516001600160a01b03909416848301528387019290925285518084038701815292909101909452815190930192909252612ef09181908152602001612e018b60c001516136bb565b8152602001612e13896000015161376d565b815263025ceed960e61b60005261015f60209081527f6bb7d5147a8fb54909a95658247450b7e2bd8cbe89124ff5c9c4c921b1f0f121546001600160a01b03169082015230604091820152805160a0810190915260608b01518a518291612e79916137fa565b8152602001612e87876136bb565b8152602001612e958861376d565b8152602001856001600160a01b03168152602001846001600160a01b031681525060405180606001604052808c610120015167ffffffffffffffff1681526020016103e881526020016002808111156122aa576122aa61586e565b5050612efb85612a38565b610192546040516001600160a01b03851681527f10373d853b64ae416c332eacb659de0f9bfc4fa3601556194abce1991061efbe9060200160405180910390a25050505050505050565b600080612f52838561572b565b9050836001600160601b0316816001600160601b0316101561095b5760405162461bcd60e51b815260206004820152601b60248201527f536166654d6174683a206164646974696f6e206f766572666c6f7700000000006044820152606401610af5565b6000806001600160a01b0383161561070c5750506322ba176160e21b6000525061015f6020527f37a0f11a7c52ed6343a78a36fd0006c8cc3b240985add397f3caa41a44193d04546001600160a01b031690565b61301683878785613f2c565b612a30818786308661403e565b6000826001600160601b0316826001600160601b031611156130875760405162461bcd60e51b815260206004820152601e60248201527f536166654d6174683a207375627472616374696f6e206f766572666c6f7700006044820152606401610af5565b61095b82846157ae565b60c980546001600160a01b038381166001600160a01b0319831681179093556040519116919082907f8be0079c531659141344cd1fd0a4f28419497f9722a3daafe3b4186f6b6457e090600090a35050565b600054610100900460ff166116bc5760405162461bcd60e51b815260206004820152602b60248201527f496e697469616c697a61626c653a20636f6e7472616374206973206e6f74206960448201526a6e697469616c697a696e6760a81b6064820152608401610af5565b600054610100900460ff166131b95760405162461bcd60e51b815260206004820152602b60248201527f496e697469616c697a61626c653a20636f6e7472616374206973206e6f74206960448201526a6e697469616c697a696e6760a81b6064820152608401610af5565b6116bc33613091565b600054610100900460ff1661322d5760405162461bcd60e51b815260206004820152602b60248201527f496e697469616c697a61626c653a20636f6e7472616374206973206e6f74206960448201526a6e697469616c697a696e6760a81b6064820152608401610af5565b600160fb55565b600054610100900460ff16158080156132545750600054600160ff909116105b8061326e5750303b15801561326e575060005460ff166001145b6132d15760405162461bcd60e51b815260206004820152602e60248201527f496e697469616c697a61626c653a20636f6e747261637420697320616c72656160448201526d191e481a5b9a5d1a585b1a5e995960921b6064820152608401610af5565b6000805460ff1916600117905580156132f4576000805461ff0019166101001790555b60016101925561019380546001600160601b038416600160601b027fffffffffffffffff000000000000000000000000000000000000000000000000909116176103841790558015613380576000805461ff0019169055604051600181527f7f26b83ff96e1f2b6a682f133852f6798a09c465da95921460cefb38474024989060200160405180910390a15b5050565b600054610100900460ff16158080156133a45750600054600160ff909116105b806133be5750303b1580156133be575060005460ff166001145b6134215760405162461bcd60e51b815260206004820152602e60248201527f496e697469616c697a61626c653a20636f6e747261637420697320616c72656160448201526d191e481a5b9a5d1a585b1a5e995960921b6064820152608401610af5565b6000805460ff191660011790558015613444576000805461ff0019166101001790555b61012d84905561012f80546001600160a01b038086166001600160a01b03199283161790925561012e8054928516929091169190911790558015612c75576000805461ff0019169055604051600181527f7f26b83ff96e1f2b6a682f133852f6798a09c465da95921460cefb38474024989060200160405180910390a150505050565b600054610100900460ff16158080156134e75750600054600160ff909116105b806135015750303b158015613501575060005460ff166001145b6135645760405162461bcd60e51b815260206004820152602e60248201527f496e697469616c697a61626c653a20636f6e747261637420697320616c72656160448201526d191e481a5b9a5d1a585b1a5e995960921b6064820152608401610af5565b6000805460ff191660011790558015613587576000805461ff0019166101001790555b801561290a576000805461ff0019169055604051600181527f7f26b83ff96e1f2b6a682f133852f6798a09c465da95921460cefb38474024989060200160405180910390a150565b6000826001600160a01b03168260405160006040518083038185875af1925050503d806000811461361c576040519150601f19603f3d011682016040523d82523d6000602084013e613621565b606091505b5050905080611d4c5760405162461bcd60e51b815260206004820152600f60248201527f7472616e73666572206661696c656400000000000000000000000000000000006044820152606401610af5565b600042821580159061368357508083115b1561369257600091505061070c565b6000841180156136a25750808411155b156136b157600091505061070c565b5060019392505050565b60408051600180825281830190925260609160009190816020015b60408051808201909152600080825260208201528152602001906001900390816136d6579050509050828160008151811061371357613713615884565b6020026020010151600001906001600160a01b031690816001600160a01b0316815250506127108160008151811061374d5761374d615884565b6020908102919091018101516001600160601b0390921691015292915050565b60408051600180825281830190925260609160009190816020015b604080518082019091526000808252602082015281526020019060019003908161378857905050905082816000815181106137c5576137c5615884565b60209081029190910101516001600160a01b0390911690526137e78360a01c90565b8160008151811061374d5761374d615884565b604080516080810182526000918101918252606080820152908152602081018290526001600160a01b03831661383b5780516355575f5d60e11b905261070c565b80516322ba176160e21b9052604080516001600160a01b03851660208201520160408051601f1981840301815291905281516020015292915050565b825160209081015183519091015160018360400151600281111561389d5761389d61586e565b14156138e7576138b785858560000151866020015161405a565b91506138e2846000015160000151856000015160200151866080015188602001518860600151614315565b61398a565b6002836040015160028111156138ff576138ff61586e565b14156139445761391984868560000151866020015161405a565b90506138e2856000015160000151866000015160200151876080015187602001518960600151614315565b845180516020918201516080880151928701516060890151613967949190614315565b83518051602091820151608087015192880151606088015161398a949190614315565b935093915050565b6101928054600091826139a48361583d565b91905055905090565b600061095b6127106139bf8585614548565b90614554565b600061095b8284615713565b8351516001600160e01b0319166339d690a360e11b1415613b8f57600080856000015160200151806020019051810190613a0b91906150be565b915091508560200151600114613a635760405162461bcd60e51b815260206004820152601260248201527f6572633732312076616c7565206572726f7200000000000000000000000000006044820152606401610af5565b6001600160a01b038516301415613afb576040517f42842e0e0000000000000000000000000000000000000000000000000000000081523060048201526001600160a01b038581166024830152604482018390528316906342842e0e906064015b600060405180830381600087803b158015613ade57600080fd5b505af1158015613af2573d6000803e3d6000fd5b50505050613b88565b6040517ff709b9060000000000000000000000000000000000000000000000000000000081526001600160a01b038381166004830152868116602483015285811660448301526064820183905284169063f709b906906084015b600060405180830381600087803b158015613b6f57600080fd5b505af1158015613b83573d6000803e3d6000fd5b505050505b5050612c75565b8351516001600160e01b0319166322ba176160e21b1415613d1c576000846000015160200151806020019051810190613bc89190614ea5565b90506001600160a01b038416301415613c835760208501516040517fa9059cbb0000000000000000000000000000000000000000000000000000000081526001600160a01b03858116600483015260248201929092529082169063a9059cbb90604401602060405180830381600087803b158015613c4557600080fd5b505af1158015613c59573d6000803e3d6000fd5b505050506040513d601f19601f82011682018060405250810190613c7d9190615393565b50613d16565b60208501516040517f776062c30000000000000000000000000000000000000000000000000000000081526001600160a01b0383811660048301528681166024830152858116604483015260648201929092529083169063776062c390608401600060405180830381600087803b158015613cfd57600080fd5b505af1158015613d11573d6000803e3d6000fd5b505050505b50612c75565b8351516001600160e01b03191663025ceed960e61b1415613e5657600080856000015160200151806020019051810190613d5691906150be565b90925090506001600160a01b038516301415613ddc5760208601516040517ff242432a0000000000000000000000000000000000000000000000000000000081523060048201526001600160a01b03868116602483015260448201849052606482019290925260a06084820152600060a48201529083169063f242432a9060c401613ac4565b60208601516040517f9c1c2ee90000000000000000000000000000000000000000000000000000000081526001600160a01b0384811660048301528781166024830152868116604483015260648201849052608482019290925260c060a4820152600060c482015290841690639c1c2ee99060e401613b55565b8351516001600160e01b0319166355575f5d60e11b1415613e9f576001600160a01b0382163014613e9a576020840151613e9a906001600160a01b038416906135cf565b612c75565b6040517f54bc0cf10000000000000000000000000000000000000000000000000000000081526001600160a01b038216906354bc0cf190613ee8908790879087906004016155a5565b600060405180830381600087803b158015613f0257600080fd5b505af1158015613f16573d6000803e3d6000fd5b5050505050505050565b600061095b8284615797565b6001600160a01b038216613f3f57612c75565b6001600160a01b0383166140335783516040516000916001600160a01b038516918381818185875af1925050503d8060008114613f98576040519150601f19603f3d011682016040523d82523d6000602084013e613f9d565b606091505b5050905080613d16576001600160a01b038316600090815261019160205260408120548651909190613fcf90836139c5565b6001600160a01b038616600081815261019160209081526040918290208490558a51825190815290810184905292935090917e13bff06d622c14d54757ee0547a817dc3e491fb8da534f108a531b016dee3c910160405180910390a2505050612c75565b8351612c7590843085855b61405361404b85876137fa565b8484846139d1565b5050505050565b600061407485600001516020015184876040015185614560565b9050600061409e828760000151602001518860800151878a60000151600001518b606001516145c9565b865180518751516020808a015193015160808b015160608c01519596506140cc95939492938792919061468f565b905085604001515160011480156140e857508460400151516001145b80156141495750856040015160008151811061410657614106615884565b6020026020010151600001516001600160a01b0316856040015160008151811061413257614132615884565b6020026020010151600001516001600160a01b0316145b1561429257604080516001808252818301909252600091816020015b604080518082019091526000808252602082015281526020019060019003908161416557905050905085604001516000815181106141a5576141a5615884565b602002602001015160000151816000815181106141c4576141c4615884565b60209081029190910101516001600160a01b039091169052604087015180516000906141f2576141f2615884565b602002602001015160200151866040015160008151811061421557614215615884565b60200260200101516020015161422b919061572b565b8160008151811061423e5761423e615884565b6020026020010151602001906001600160601b031690816001600160601b03168152505061428887600001516000015183896000015160200151848b608001518c60600151614806565b5091506142eb9050565b6142bc8660000151600001518288600001516020015189604001518a608001518b60600151614806565b5086518051602090910151604088015160808a015160608b01519495506142e7948693929190614806565b5090505b61430c86600001516000015182886080015188602001518a60600151614315565b50949350505050565b600082511161438b5760405162461bcd60e51b8152602060048201526024808201527f7472616e736665725061796f7574733a206e6f7468696e6720746f207472616e60448201527f73666572000000000000000000000000000000000000000000000000000000006064820152608401610af5565b600084815b6001855161439e9190615797565b81101561447f5760006143e08683815181106143bc576143bc615884565b6020026020010151602001516001600160601b0316896139ad90919063ffffffff16565b905061441b8683815181106143f7576143f7615884565b6020026020010151602001516001600160601b0316856139c590919063ffffffff16565b9350801561446c5761442d8382613f20565b925061446c60405180604001604052808b8152602001838152508888858151811061445a5761445a615884565b602002602001015160000151886139d1565b50806144778161583d565b915050614390565b50600084600186516144919190615797565b815181106144a1576144a1615884565b602002602001015190506144cb81602001516001600160601b0316846139c590919063ffffffff16565b9250826127101461451e5760405162461bcd60e51b815260206004820152601e60248201527f53756d207061796f75747320427073206e6f7420657175616c203130302500006044820152606401610af5565b8115613f1657613f1660405180604001604052808a815260200184815250878360000151876139d1565b600061095b8284615778565b600061095b8284615756565b6000811561456f575083612957565b600061458561457e87876139ad565b87906139c5565b905060005b84518110156145bf576145ab6129508683815181106143bc576143bc615884565b9150806145b78161583d565b91505061458a565b5095945050505050565b60008060006145d98989886148ef565b909250905080156146835784516000906001600160e01b0319166322ba176160e21b14156146205785602001518060200190518101906146199190614ea5565b9050614659565b85516001600160e01b03191663025ceed960e61b1415614659576000866020015180602001905181019061465491906150be565b509150505b6146816040518060400160405280888152602001848152508961467b84614911565b886139d1565b505b50979650505050505050565b60008061469b8861494f565b9050805160011480156146af575086516001145b80156147085750866000815181106146c9576146c9615884565b6020026020010151600001516001600160a01b0316816000815181106146f1576146f1615884565b6020026020010151600001516001600160a01b0316145b1561478f576113888160008151811061472357614723615884565b6020026020010151602001516001600160601b031611156147865760405162461bcd60e51b815260206004820152601d60248201527f526f79616c746965732061726520746f6f206869676820283e353025290000006044820152606401610af5565b859150506147fb565b6000806147a08b8989868a8a614806565b915091506113888111156147f65760405162461bcd60e51b815260206004820152601d60248201527f526f79616c746965732061726520746f6f206869676820283e353025290000006044820152606401610af5565b509150505b979650505050505050565b846000805b85518110156148e35761484d86828151811061482957614829615884565b6020026020010151602001516001600160601b0316836139c590919063ffffffff16565b9150600080614883858a8a868151811061486957614869615884565b6020026020010151602001516001600160601b03166148ef565b909550859250905080156148ce576148ce60405180604001604052808d815260200183815250888a86815181106148bc576148bc615884565b602002602001015160000151896139d1565b505080806148db9061583d565b91505061480b565b50965096945050505050565b6000806149058561490086866139ad565b614b08565b91509150935093915050565b6001600160a01b0380821660009081526101306020526040812054909116801561493b5792915050565b505061012f546001600160a01b0316919050565b80516060906001600160e01b03191663025ceed960e61b1480614983575081516001600160e01b0319166339d690a360e11b145b15614a4e5760008083602001518060200190518101906149a391906150be565b61012e546040517f9ca7dc7a0000000000000000000000000000000000000000000000000000000081526001600160a01b038085166004830152602482018490529395509193509190911690639ca7dc7a90604401600060405180830381600087803b158015614a1257600080fd5b505af1158015614a26573d6000803e3d6000fd5b505050506040513d6000823e601f3d908101601f19168201604052612957919081019061535e565b81516001600160e01b0319167f1cdfaa40000000000000000000000000000000000000000000000000000000001415614aa75760008260200151806020019051810190614a9b9190614ec2565b60800151949350505050565b81516001600160e01b0319167fd8f960c1000000000000000000000000000000000000000000000000000000001415614b005760008260200151806020019051810190614af49190614fc5565b60600151949350505050565b506060919050565b60008082841115614b2757614b1d8484613f20565b9150829050614b2e565b5060009050825b9250929050565b828054614b4190615802565b90600052602060002090601f016020900481019282614b635760008555614ba9565b82601f10614b7c57805160ff1916838001178555614ba9565b82800160010185558215614ba9579182015b82811115614ba9578251825591602001919060010190614b8e565b50614bb5929150614bef565b5090565b508054614bc590615802565b6000825580601f10614bd5575050565b601f01602090049060005260206000209081019061290a91905b5b80821115614bb55760008155600101614bf0565b6000614c17614c12846156eb565b615696565b9050828152838383011115614c2b57600080fd5b61095b8360208301846157d6565b600082601f830112614c4a57600080fd5b81516020614c5a614c12836156c7565b80838252828201915082860187848660051b8901011115614c7a57600080fd5b60005b85811015614cd157815167ffffffffffffffff811115614c9c57600080fd5b8801603f81018a13614cad57600080fd5b614cbe8a8783015160408401614c04565b8552509284019290840190600101614c7d565b5090979650505050505050565b600082601f830112614cef57600080fd5b81516020614cff614c12836156c7565b80838252828201915082860187848660061b8901011115614d1f57600080fd5b6000805b86811015614d7457604080848c031215614d3b578283fd5b614d43615627565b8451614d4e816158b0565b815284880151614d5d816158c5565b818901528652948601949290920191600101614d23565b509198975050505050505050565b600082601f830112614d9357600080fd5b81356020614da3614c12836156c7565b80838252828201915082860187848660051b8901011115614dc357600080fd5b60005b85811015614cd157813584529284019290840190600101614dc6565b80356001600160e01b031981168114614dfa57600080fd5b919050565b600082601f830112614e1057600080fd5b8135614e1e614c12826156eb565b818152846020838601011115614e3357600080fd5b816020850160208301376000918101602001919091529392505050565b600082601f830112614e6157600080fd5b61095b83835160208501614c04565b803567ffffffffffffffff81168114614dfa57600080fd5b600060208284031215614e9a57600080fd5b813561095b816158b0565b600060208284031215614eb757600080fd5b815161095b816158b0565b60008060408385031215614ed557600080fd5b8251614ee0816158b0565b602084015190925067ffffffffffffffff80821115614efe57600080fd5b9084019060c08287031215614f1257600080fd5b614f1a615650565b82518152602083015182811115614f3057600080fd5b614f3c88828601614e50565b60208301525060408301516040820152606083015182811115614f5e57600080fd5b614f6a88828601614cde565b606083015250608083015182811115614f8257600080fd5b614f8e88828601614cde565b60808301525060a083015182811115614fa657600080fd5b614fb288828601614c39565b60a0830152508093505050509250929050565b60008060408385031215614fd857600080fd5b8251614fe3816158b0565b602084015190925067ffffffffffffffff8082111561500157600080fd5b9084019060a0828703121561501557600080fd5b61501d615673565b8251815260208301518281111561503357600080fd5b61503f88828601614e50565b60208301525060408301518281111561505757600080fd5b61506388828601614cde565b60408301525060608301518281111561507b57600080fd5b61508788828601614cde565b60608301525060808301518281111561509f57600080fd5b6150ab88828601614c39565b6080830152508093505050509250929050565b600080604083850312156150d157600080fd5b82516150dc816158b0565b6020939093015192949293505050565b600080604083850312156150ff57600080fd5b823561510a816158b0565b9150602083013561511a816158b0565b809150509250929050565b600080600080600060a0868803121561513d57600080fd5b8535615148816158b0565b94506020860135615158816158b0565b9350604086013567ffffffffffffffff8082111561517557600080fd5b61518189838a01614d82565b9450606088013591508082111561519757600080fd5b6151a389838a01614d82565b935060808801359150808211156151b957600080fd5b506151c688828901614dff565b9150509295509295909350565b600080600080600060a086880312156151eb57600080fd5b85356151f6816158b0565b94506020860135615206816158b0565b93506040860135925060608601359150608086013567ffffffffffffffff81111561523057600080fd5b6151c688828901614dff565b60008060008060008060c0878903121561525557600080fd5b8635615260816158b0565b95506020870135615270816158b0565b94506040870135615280816158b0565b93506060870135615290816158b0565b925061529e60808801614e70565b915060a08701356152ae816158c5565b809150509295509295509295565b600080600080600080600060e0888a0312156152d757600080fd5b87356152e2816158b0565b965060208801356152f2816158c5565b9550604088013594506060880135615309816158b0565b93506080880135615319816158c5565b925061532760a08901614de2565b915060c088013567ffffffffffffffff81111561534357600080fd5b61534f8a828b01614dff565b91505092959891949750929550565b60006020828403121561537057600080fd5b815167ffffffffffffffff81111561538757600080fd5b61295784828501614cde565b6000602082840312156153a557600080fd5b8151801515811461095b57600080fd5b6000602082840312156153c757600080fd5b61095b82614de2565b600080604083850312156153e357600080fd5b61510a83614de2565b6000608082840312156153fe57600080fd5b6040516080810181811067ffffffffffffffff821117156154215761542161589a565b604052825181526020830151615436816158c5565b60208201526040830151615449816158c5565b6040820152606083015161545c816158c5565b60608201529392505050565b60006020828403121561547a57600080fd5b6040516020810181811067ffffffffffffffff8211171561549d5761549d61589a565b6040529151825250919050565b6000602082840312156154bc57600080fd5b5035919050565b600080604083850312156154d657600080fd5b82359150602083013567ffffffffffffffff808211156154f557600080fd5b908401906060828703121561550957600080fd5b6040516060810181811083821117156155245761552461589a565b6040528235815261553760208401614de2565b602082015260408301358281111561554e57600080fd5b61555a88828601614dff565b6040830152508093505050509250929050565b60006020828403121561557f57600080fd5b61095b82614e70565b60006020828403121561559a57600080fd5b813561095b816158c5565b6060815260008451604060608401526001600160e01b031981511660a084015260208101519050604060c084015280518060e08501526101006155ee82828701602086016157d6565b60209788015160808601526001600160a01b039687169785019790975293909416604083015250601f909101601f191601909101919050565b6040805190810167ffffffffffffffff8111828210171561564a5761564a61589a565b60405290565b60405160c0810167ffffffffffffffff8111828210171561564a5761564a61589a565b60405160a0810167ffffffffffffffff8111828210171561564a5761564a61589a565b604051601f8201601f1916810167ffffffffffffffff811182821017156156bf576156bf61589a565b604052919050565b600067ffffffffffffffff8211156156e1576156e161589a565b5060051b60200190565b600067ffffffffffffffff8211156157055761570561589a565b50601f01601f191660200190565b6000821982111561572657615726615858565b500190565b60006001600160601b0380831681851680830382111561574d5761574d615858565b01949350505050565b60008261577357634e487b7160e01b600052601260045260246000fd5b500490565b600081600019048311821515161561579257615792615858565b500290565b6000828210156157a9576157a9615858565b500390565b60006001600160601b03838116908316818110156157ce576157ce615858565b039392505050565b60005b838110156157f15781810151838201526020016157d9565b83811115612c755750506000910152565b600181811c9082168061581657607f821691505b6020821081141561583757634e487b7160e01b600052602260045260246000fd5b50919050565b600060001982141561585157615851615858565b5060010190565b634e487b7160e01b600052601160045260246000fd5b634e487b7160e01b600052602160045260246000fd5b634e487b7160e01b600052603260045260246000fd5b634e487b7160e01b600052604160045260246000fd5b6001600160a01b038116811461290a57600080fd5b6001600160601b038116811461290a57600080fdfea2646970667358221220c28b642ad77eaa6b57cd0d3c13aa3eb01ec3e3ccae1c8bfb51e157eae1c97ed464736f6c63430008070033",
  "linkReferences": {},
  "deployedLinkReferences": {}
}