{
  "_format": "hh-sol-artifact-1",
  "contractName": "LibERC721LazyMint",
  "sourceName": "contracts/lazy-mint/contracts/erc-721/LibERC721LazyMint.sol",
  "abi": [
    {
      "inputs": [],
      "name": "ERC721_LAZY_ASSET_CLASS",
      "outputs": [
        {
          "internalType": "bytes4",
          "name": "",
          "type": "bytes4"
        }
      ],
      "stateMutability": "view",
      "type": "function"
    },
    {
      "inputs": [],
      "name": "MINT_AND_TRANSFER_TYPEHASH",
      "outputs": [
        {
          "internalType": "bytes32",
          "name": "",
          "type": "bytes32"
        }
      ],
      "stateMutability": "view",
      "type": "function"
    }
  ],
  "bytecode": "0x61010761003a600b82828239805160001a60731461002d57634e487b7160e01b600052600060045260246000fd5b30600052607381538281f3fe7300000000000000000000000000000000000000003014608060405260043610603d5760003560e01c80637987105f14604257806394d5e89d14607b575b600080fd5b60687ff64326045af5fd7e15297ba939f85b550474d3899daa47d2bc1ffbdb9ced344e81565b6040519081526020015b60405180910390f35b60a17fd8f960c1450658267efb07308b4050c9e705cea25a53b560236c88cb149696be81565b6040517fffffffff000000000000000000000000000000000000000000000000000000009091168152602001607256fea2646970667358221220fde646b20a339185465f575b68fd3718cc9816705c1a3c1a61e63fc88e63255c64736f6c63430008070033",
  "linkReferences": {},
  "deployedLinkReferences": {}
}