{
  "_format": "hh-sol-artifact-1",
  "contractName": "Wrapper",
  "sourceName": "contracts/auction/contracts/wrapper/Wrapper.sol",
  "abi": [
    {
      "inputs": [
        {
          "internalType": "address",
          "name": "_auction",
          "type": "address"
        }
      ],
      "stateMutability": "nonpayable",
      "type": "constructor"
    },
    {
      "inputs": [
        {
          "internalType": "uint256",
          "name": "auctionId",
          "type": "uint256"
        },
        {
          "internalType": "address",
          "name": "nftContract",
          "type": "address"
        },
        {
          "internalType": "uint256",
          "name": "tokenId",
          "type": "uint256"
        }
      ],
      "name": "auctionIdMatchesToken",
      "outputs": [
        {
          "internalType": "bool",
          "name": "",
          "type": "bool"
        }
      ],
      "stateMutability": "view",
      "type": "function"
    },
    {
      "inputs": [
        {
          "internalType": "uint256",
          "name": "auctionId",
          "type": "uint256"
        },
        {
          "internalType": "uint256",
          "name": "bidAmount",
          "type": "uint256"
        }
      ],
      "name": "bid",
      "outputs": [],
      "stateMutability": "nonpayable",
      "type": "function"
    },
    {
      "inputs": [
        {
          "internalType": "uint256",
          "name": "auctionId",
          "type": "uint256"
        }
      ],
      "name": "finalize",
      "outputs": [],
      "stateMutability": "nonpayable",
      "type": "function"
    },
    {
      "inputs": [
        {
          "internalType": "uint256",
          "name": "auctionId",
          "type": "uint256"
        }
      ],
      "name": "getCurrentHighestBidder",
      "outputs": [
        {
          "internalType": "address",
          "name": "",
          "type": "address"
        }
      ],
      "stateMutability": "view",
      "type": "function"
    },
    {
      "inputs": [
        {
          "internalType": "uint256",
          "name": "auctionId",
          "type": "uint256"
        }
      ],
      "name": "getMinimumBid",
      "outputs": [
        {
          "internalType": "uint256",
          "name": "",
          "type": "uint256"
        }
      ],
      "stateMutability": "view",
      "type": "function"
    },
    {
      "inputs": [
        {
          "internalType": "uint256",
          "name": "auctionId",
          "type": "uint256"
        }
      ],
      "name": "isFinalized",
      "outputs": [
        {
          "internalType": "bool",
          "name": "",
          "type": "bool"
        }
      ],
      "stateMutability": "view",
      "type": "function"
    }
  ],
  "bytecode": "0x60a060405234801561001057600080fd5b5060405161082f38038061082f83398101604081905261002f91610044565b60601b6001600160601b031916608052610074565b60006020828403121561005657600080fd5b81516001600160a01b038116811461006d57600080fd5b9392505050565b60805160601c61077a6100b560003960008181610155015281816101ee015281816102a801528181610363015281816103ea0152610555015261077a6000f3fe608060405234801561001057600080fd5b50600436106100725760003560e01c8063456b09c111610050578063456b09c1146100d5578063598647f81461010057806397e2d3801461011357600080fd5b806305261aea146100775780630600d4eb1461008c57806333727c4d146100b2575b600080fd5b61008a610085366004610621565b610126565b005b61009f61009a366004610621565b6101bc565b6040519081526020015b60405180910390f35b6100c56100c0366004610621565b610276565b60405190151581526020016100a9565b6100e86100e3366004610621565b610331565b6040516001600160a01b0390911681526020016100a9565b61008a61010e36600461068b565b6103e5565b6100c5610121366004610653565b610513565b6040517fcf266ed0000000000000000000000000000000000000000000000000000000008152600481018290527f00000000000000000000000000000000000000000000000000000000000000006001600160a01b03169063cf266ed090602401600060405180830381600087803b1580156101a157600080fd5b505af11580156101b5573d6000803e3d6000fd5b5050505050565b6040517f0d607964000000000000000000000000000000000000000000000000000000008152600481018290526000907f00000000000000000000000000000000000000000000000000000000000000006001600160a01b031690630d6079649060240160206040518083038186803b15801561023857600080fd5b505afa15801561024c573d6000803e3d6000fd5b505050506040513d601f19601f82011682018060405250810190610270919061063a565b92915050565b6040517fa2a106b8000000000000000000000000000000000000000000000000000000008152600481018290526000907f00000000000000000000000000000000000000000000000000000000000000006001600160a01b03169063a2a106b89060240160206040518083038186803b1580156102f257600080fd5b505afa158015610306573d6000803e3d6000fd5b505050506040513d601f19601f8201168201806040525081019061032a91906105ff565b1592915050565b6040517f6eeb69db000000000000000000000000000000000000000000000000000000008152600481018290526000907f00000000000000000000000000000000000000000000000000000000000000006001600160a01b031690636eeb69db9060240160206040518083038186803b1580156103ad57600080fd5b505afa1580156103c1573d6000803e3d6000fd5b505050506040513d601f19601f8201168201806040525081019061027091906105db565b6000807f00000000000000000000000000000000000000000000000000000000000000006001600160a01b0316838560405160240161042691815260200190565b60408051601f198184030181529181526020820180517bffffffffffffffffffffffffffffffffffffffffffffffffffffffff167f2a6bf6a8000000000000000000000000000000000000000000000000000000001790525161048991906106ad565b60006040518083038185875af1925050503d80600081146104c6576040519150601f19603f3d011682016040523d82523d6000602084013e6104cb565b606091505b50915091508181906101b5576040517f08c379a000000000000000000000000000000000000000000000000000000000815260040161050a91906106c9565b60405180910390fd5b6040517f152b2c0a0000000000000000000000000000000000000000000000000000000081526001600160a01b038381166004830152602482018390526000917f00000000000000000000000000000000000000000000000000000000000000009091169063152b2c0a9060440160206040518083038186803b15801561059957600080fd5b505afa1580156105ad573d6000803e3d6000fd5b505050506040513d601f19601f820116820180604052508101906105d1919061063a565b9093149392505050565b6000602082840312156105ed57600080fd5b81516105f88161072c565b9392505050565b60006020828403121561061157600080fd5b815180151581146105f857600080fd5b60006020828403121561063357600080fd5b5035919050565b60006020828403121561064c57600080fd5b5051919050565b60008060006060848603121561066857600080fd5b83359250602084013561067a8161072c565b929592945050506040919091013590565b6000806040838503121561069e57600080fd5b50508035926020909101359150565b600082516106bf8184602087016106fc565b9190910192915050565b60208152600082518060208401526106e88160408501602087016106fc565b601f01601f19169190910160400192915050565b60005b838110156107175781810151838201526020016106ff565b83811115610726576000848401525b50505050565b6001600160a01b038116811461074157600080fd5b5056fea2646970667358221220e7319cbd2c5b389abd7d747d5192f780b392dcfe6da44fa6acc572dee84e9b5164736f6c63430008070033",
  "linkReferences": {},
  "deployedLinkReferences": {}
}