{
  "_format": "hh-sol-artifact-1",
  "contractName": "RoyaltiesV2Impl",
  "sourceName": "contracts/royalties/contracts/impl/RoyaltiesV2Impl.sol",
  "abi": [
    {
      "anonymous": false,
      "inputs": [
        {
          "indexed": false,
          "internalType": "uint256",
          "name": "tokenId",
          "type": "uint256"
        },
        {
          "components": [
            {
              "internalType": "address payable",
              "name": "account",
              "type": "address"
            },
            {
              "internalType": "uint96",
              "name": "value",
              "type": "uint96"
            }
          ],
          "indexed": false,
          "internalType": "struct LibPart.Part[]",
          "name": "royalties",
          "type": "tuple[]"
        }
      ],
      "name": "RoyaltiesSet",
      "type": "event"
    },
    {
      "inputs": [
        {
          "internalType": "uint256",
          "name": "id",
          "type": "uint256"
        }
      ],
      "name": "getRaribleV2Royalties",
      "outputs": [
        {
          "components": [
            {
              "internalType": "address payable",
              "name": "account",
              "type": "address"
            },
            {
              "internalType": "uint96",
              "name": "value",
              "type": "uint96"
            }
          ],
          "internalType": "struct LibPart.Part[]",
          "name": "",
          "type": "tuple[]"
        }
      ],
      "stateMutability": "view",
      "type": "function"
    },
    {
      "inputs": [
        {
          "internalType": "uint256",
          "name": "id",
          "type": "uint256"
        },
        {
          "internalType": "uint256",
          "name": "_salePrice",
          "type": "uint256"
        }
      ],
      "name": "royaltyInfo",
      "outputs": [
        {
          "internalType": "address",
          "name": "receiver",
          "type": "address"
        },
        {
          "internalType": "uint256",
          "name": "royaltyAmount",
          "type": "uint256"
        }
      ],
      "stateMutability": "view",
      "type": "function"
    }
  ],
  "bytecode": "0x608060405234801561001057600080fd5b50610409806100206000396000f3fe608060405234801561001057600080fd5b50600436106100365760003560e01c80632a55205a1461003b578063cad96cca1461007f575b600080fd5b61004e61004936600461029e565b61009f565b6040805173ffffffffffffffffffffffffffffffffffffffff90931683526020830191909152015b60405180910390f35b61009261008d366004610285565b6101ed565b60405161007691906102c0565b60008281526020819052604081205481906100bf575060009050806101e6565b60008481526020818152604080832080548251818502810185019093528083529192909190849084015b8282101561014a576000848152602090819020604080518082019091529084015473ffffffffffffffffffffffffffffffffffffffff81168252600160a01b90046bffffffffffffffffffffffff16818301528252600190920191016100e9565b50505050905080600081518110610163576101636103bd565b60209081029190910101515192506000805b82518110156101c957828181518110610190576101906103bd565b6020026020010151602001516bffffffffffffffffffffffff16826101b59190610333565b9150806101c18161038c565b915050610175565b506127106101d7868361036d565b6101e1919061034b565b925050505b9250929050565b600081815260208181526040808320805482518185028101850190935280835260609492939192909184015b8282101561027a576000848152602090819020604080518082019091529084015473ffffffffffffffffffffffffffffffffffffffff81168252600160a01b90046bffffffffffffffffffffffff1681830152825260019092019101610219565b505050509050919050565b60006020828403121561029757600080fd5b5035919050565b600080604083850312156102b157600080fd5b50508035926020909101359150565b602080825282518282018190526000919060409081850190868401855b82811015610326578151805173ffffffffffffffffffffffffffffffffffffffff1685528601516bffffffffffffffffffffffff168685015292840192908501906001016102dd565b5091979650505050505050565b60008219821115610346576103466103a7565b500190565b60008261036857634e487b7160e01b600052601260045260246000fd5b500490565b6000816000190483118215151615610387576103876103a7565b500290565b60006000198214156103a0576103a06103a7565b5060010190565b634e487b7160e01b600052601160045260246000fd5b634e487b7160e01b600052603260045260246000fdfea2646970667358221220e234ef6704c84de40a9dc4525b5c023bacb748fd84b08d29763fe087df1ff82164736f6c63430008070033",
  "linkReferences": {},
  "deployedLinkReferences": {}
}