{
  "_format": "hh-sol-artifact-1",
  "contractName": "OperatorRoleTest",
  "sourceName": "contracts/role-operator/test/contracts/OperatorRoleTest.sol",
  "abi": [
    {
      "anonymous": false,
      "inputs": [
        {
          "indexed": false,
          "internalType": "uint8",
          "name": "version",
          "type": "uint8"
        }
      ],
      "name": "Initialized",
      "type": "event"
    },
    {
      "anonymous": false,
      "inputs": [
        {
          "indexed": true,
          "internalType": "address",
          "name": "previousOwner",
          "type": "address"
        },
        {
          "indexed": true,
          "internalType": "address",
          "name": "newOwner",
          "type": "address"
        }
      ],
      "name": "OwnershipTransferred",
      "type": "event"
    },
    {
      "inputs": [],
      "name": "__OperatorRoleTest_init",
      "outputs": [],
      "stateMutability": "nonpayable",
      "type": "function"
    },
    {
      "inputs": [],
      "name": "__OperatorRole_init",
      "outputs": [],
      "stateMutability": "nonpayable",
      "type": "function"
    },
    {
      "inputs": [
        {
          "internalType": "address",
          "name": "operator",
          "type": "address"
        }
      ],
      "name": "addOperator",
      "outputs": [],
      "stateMutability": "nonpayable",
      "type": "function"
    },
    {
      "inputs": [],
      "name": "getSomething",
      "outputs": [
        {
          "internalType": "uint256",
          "name": "",
          "type": "uint256"
        }
      ],
      "stateMutability": "view",
      "type": "function"
    },
    {
      "inputs": [],
      "name": "owner",
      "outputs": [
        {
          "internalType": "address",
          "name": "",
          "type": "address"
        }
      ],
      "stateMutability": "view",
      "type": "function"
    },
    {
      "inputs": [
        {
          "internalType": "address",
          "name": "operator",
          "type": "address"
        }
      ],
      "name": "removeOperator",
      "outputs": [],
      "stateMutability": "nonpayable",
      "type": "function"
    },
    {
      "inputs": [],
      "name": "renounceOwnership",
      "outputs": [],
      "stateMutability": "nonpayable",
      "type": "function"
    },
    {
      "inputs": [
        {
          "internalType": "address",
          "name": "newOwner",
          "type": "address"
        }
      ],
      "name": "transferOwnership",
      "outputs": [],
      "stateMutability": "nonpayable",
      "type": "function"
    }
  ],
  "bytecode": "0x608060405234801561001057600080fd5b50610717806100206000396000f3fe608060405234801561001057600080fd5b50600436106100885760003560e01c80638da5cb5b1161005b5780638da5cb5b146100c25780639870d7fe146100dd578063ac8a584a146100f0578063f2fde38b1461010357600080fd5b806301ec3b6c1461008d5780632ff26a0a146100a85780634f899c28146100b2578063715018a6146100ba575b600080fd5b610095610116565b6040519081526020015b60405180910390f35b6100b06101a6565b005b6100b06102ce565b6100b06103a5565b6033546040516001600160a01b03909116815260200161009f565b6100b06100eb3660046106b1565b6103b9565b6100b06100fe3660046106b1565b6103e5565b6100b06101113660046106b1565b61040e565b3360009081526065602052604081205460ff166101a05760405162461bcd60e51b815260206004820152602860248201527f4f70657261746f72526f6c653a2063616c6c6572206973206e6f74207468652060448201527f6f70657261746f7200000000000000000000000000000000000000000000000060648201526084015b60405180910390fd5b50600a90565b600054610100900460ff16158080156101c65750600054600160ff909116105b806101e05750303b1580156101e0575060005460ff166001145b6102525760405162461bcd60e51b815260206004820152602e60248201527f496e697469616c697a61626c653a20636f6e747261637420697320616c72656160448201527f647920696e697469616c697a65640000000000000000000000000000000000006064820152608401610197565b6000805460ff191660011790558015610275576000805461ff0019166101001790555b61027d61049b565b610285610506565b80156102cb576000805461ff0019169055604051600181527f7f26b83ff96e1f2b6a682f133852f6798a09c465da95921460cefb38474024989060200160405180910390a15b50565b600054610100900460ff16158080156102ee5750600054600160ff909116105b806103085750303b158015610308575060005460ff166001145b61037a5760405162461bcd60e51b815260206004820152602e60248201527f496e697469616c697a61626c653a20636f6e747261637420697320616c72656160448201527f647920696e697469616c697a65640000000000000000000000000000000000006064820152608401610197565b6000805460ff19166001179055801561039d576000805461ff0019166101001790555b61028561057a565b6103ad6105ed565b6103b76000610647565b565b6103c16105ed565b6001600160a01b03166000908152606560205260409020805460ff19166001179055565b6103ed6105ed565b6001600160a01b03166000908152606560205260409020805460ff19169055565b6104166105ed565b6001600160a01b0381166104925760405162461bcd60e51b815260206004820152602660248201527f4f776e61626c653a206e6577206f776e657220697320746865207a65726f206160448201527f64647265737300000000000000000000000000000000000000000000000000006064820152608401610197565b6102cb81610647565b600054610100900460ff166103b75760405162461bcd60e51b815260206004820152602b60248201527f496e697469616c697a61626c653a20636f6e7472616374206973206e6f74206960448201526a6e697469616c697a696e6760a81b6064820152608401610197565b600054610100900460ff166105715760405162461bcd60e51b815260206004820152602b60248201527f496e697469616c697a61626c653a20636f6e7472616374206973206e6f74206960448201526a6e697469616c697a696e6760a81b6064820152608401610197565b6103b733610647565b600054610100900460ff166105e55760405162461bcd60e51b815260206004820152602b60248201527f496e697469616c697a61626c653a20636f6e7472616374206973206e6f74206960448201526a6e697469616c697a696e6760a81b6064820152608401610197565b6103b7610506565b6033546001600160a01b031633146103b75760405162461bcd60e51b815260206004820181905260248201527f4f776e61626c653a2063616c6c6572206973206e6f7420746865206f776e65726044820152606401610197565b603380546001600160a01b038381167fffffffffffffffffffffffff0000000000000000000000000000000000000000831681179093556040519116919082907f8be0079c531659141344cd1fd0a4f28419497f9722a3daafe3b4186f6b6457e090600090a35050565b6000602082840312156106c357600080fd5b81356001600160a01b03811681146106da57600080fd5b939250505056fea2646970667358221220c9590b29c82e6c48bd4d17acd79c6f58d1a8b631dd86685ab0e9cd400c13524064736f6c63430008070033",
  "linkReferences": {},
  "deployedLinkReferences": {}
}