{
  "_format": "hh-sol-artifact-1",
  "contractName": "Mint",
  "sourceName": "contracts/Mint.sol",
  "abi": [
    {
      "inputs": [
        {
          "internalType": "string",
          "name": "name",
          "type": "string"
        },
        {
          "internalType": "string",
          "name": "symbol",
          "type": "string"
        }
      ],
      "stateMutability": "nonpayable",
      "type": "constructor"
    },
    {
      "anonymous": false,
      "inputs": [
        {
          "indexed": true,
          "internalType": "address",
          "name": "owner",
          "type": "address"
        },
        {
          "indexed": true,
          "internalType": "address",
          "name": "approved",
          "type": "address"
        },
        {
          "indexed": true,
          "internalType": "uint256",
          "name": "tokenId",
          "type": "uint256"
        }
      ],
      "name": "Approval",
      "type": "event"
    },
    {
      "anonymous": false,
      "inputs": [
        {
          "indexed": true,
          "internalType": "address",
          "name": "owner",
          "type": "address"
        },
        {
          "indexed": true,
          "internalType": "address",
          "name": "operator",
          "type": "address"
        },
        {
          "indexed": false,
          "internalType": "bool",
          "name": "approved",
          "type": "bool"
        }
      ],
      "name": "ApprovalForAll",
      "type": "event"
    },
    {
      "anonymous": false,
      "inputs": [
        {
          "indexed": true,
          "internalType": "address",
          "name": "previousOwner",
          "type": "address"
        },
        {
          "indexed": true,
          "internalType": "address",
          "name": "newOwner",
          "type": "address"
        }
      ],
      "name": "OwnershipTransferred",
      "type": "event"
    },
    {
      "anonymous": false,
      "inputs": [
        {
          "indexed": false,
          "internalType": "uint256",
          "name": "tokenId",
          "type": "uint256"
        },
        {
          "components": [
            {
              "internalType": "address payable",
              "name": "account",
              "type": "address"
            },
            {
              "internalType": "uint96",
              "name": "value",
              "type": "uint96"
            }
          ],
          "indexed": false,
          "internalType": "struct LibPart.Part[]",
          "name": "royalties",
          "type": "tuple[]"
        }
      ],
      "name": "RoyaltiesSet",
      "type": "event"
    },
    {
      "anonymous": false,
      "inputs": [
        {
          "indexed": true,
          "internalType": "address",
          "name": "from",
          "type": "address"
        },
        {
          "indexed": true,
          "internalType": "address",
          "name": "to",
          "type": "address"
        },
        {
          "indexed": true,
          "internalType": "uint256",
          "name": "tokenId",
          "type": "uint256"
        }
      ],
      "name": "Transfer",
      "type": "event"
    },
    {
      "inputs": [
        {
          "internalType": "uint256",
          "name": "",
          "type": "uint256"
        }
      ],
      "name": "Items",
      "outputs": [
        {
          "internalType": "uint256",
          "name": "id",
          "type": "uint256"
        },
        {
          "internalType": "address",
          "name": "creator",
          "type": "address"
        },
        {
          "internalType": "string",
          "name": "uri",
          "type": "string"
        },
        {
          "internalType": "uint96",
          "name": "royalty",
          "type": "uint96"
        }
      ],
      "stateMutability": "view",
      "type": "function"
    },
    {
      "inputs": [
        {
          "internalType": "address",
          "name": "to",
          "type": "address"
        },
        {
          "internalType": "uint256",
          "name": "tokenId",
          "type": "uint256"
        }
      ],
      "name": "approve",
      "outputs": [],
      "stateMutability": "nonpayable",
      "type": "function"
    },
    {
      "inputs": [],
      "name": "artist",
      "outputs": [
        {
          "internalType": "address",
          "name": "",
          "type": "address"
        }
      ],
      "stateMutability": "view",
      "type": "function"
    },
    {
      "inputs": [
        {
          "internalType": "address",
          "name": "owner",
          "type": "address"
        }
      ],
      "name": "balanceOf",
      "outputs": [
        {
          "internalType": "uint256",
          "name": "",
          "type": "uint256"
        }
      ],
      "stateMutability": "view",
      "type": "function"
    },
    {
      "inputs": [
        {
          "internalType": "string",
          "name": "uri",
          "type": "string"
        },
        {
          "internalType": "address payable",
          "name": "_royaltiesRecipientAddress",
          "type": "address"
        },
        {
          "internalType": "uint96",
          "name": "_percentageBasisPoints",
          "type": "uint96"
        }
      ],
      "name": "createItem",
      "outputs": [
        {
          "internalType": "uint256",
          "name": "",
          "type": "uint256"
        }
      ],
      "stateMutability": "nonpayable",
      "type": "function"
    },
    {
      "inputs": [
        {
          "internalType": "uint256",
          "name": "tokenId",
          "type": "uint256"
        }
      ],
      "name": "getApproved",
      "outputs": [
        {
          "internalType": "address",
          "name": "",
          "type": "address"
        }
      ],
      "stateMutability": "view",
      "type": "function"
    },
    {
      "inputs": [],
      "name": "getArtist",
      "outputs": [
        {
          "internalType": "address",
          "name": "",
          "type": "address"
        }
      ],
      "stateMutability": "view",
      "type": "function"
    },
    {
      "inputs": [
        {
          "internalType": "uint256",
          "name": "id",
          "type": "uint256"
        }
      ],
      "name": "getRaribleV2Royalties",
      "outputs": [
        {
          "components": [
            {
              "internalType": "address payable",
              "name": "account",
              "type": "address"
            },
            {
              "internalType": "uint96",
              "name": "value",
              "type": "uint96"
            }
          ],
          "internalType": "struct LibPart.Part[]",
          "name": "",
          "type": "tuple[]"
        }
      ],
      "stateMutability": "view",
      "type": "function"
    },
    {
      "inputs": [
        {
          "internalType": "address",
          "name": "owner",
          "type": "address"
        },
        {
          "internalType": "address",
          "name": "operator",
          "type": "address"
        }
      ],
      "name": "isApprovedForAll",
      "outputs": [
        {
          "internalType": "bool",
          "name": "",
          "type": "bool"
        }
      ],
      "stateMutability": "view",
      "type": "function"
    },
    {
      "inputs": [],
      "name": "name",
      "outputs": [
        {
          "internalType": "string",
          "name": "",
          "type": "string"
        }
      ],
      "stateMutability": "view",
      "type": "function"
    },
    {
      "inputs": [],
      "name": "owner",
      "outputs": [
        {
          "internalType": "address",
          "name": "",
          "type": "address"
        }
      ],
      "stateMutability": "view",
      "type": "function"
    },
    {
      "inputs": [
        {
          "internalType": "uint256",
          "name": "tokenId",
          "type": "uint256"
        }
      ],
      "name": "ownerOf",
      "outputs": [
        {
          "internalType": "address",
          "name": "",
          "type": "address"
        }
      ],
      "stateMutability": "view",
      "type": "function"
    },
    {
      "inputs": [],
      "name": "renounceOwnership",
      "outputs": [],
      "stateMutability": "nonpayable",
      "type": "function"
    },
    {
      "inputs": [
        {
          "internalType": "uint256",
          "name": "id",
          "type": "uint256"
        },
        {
          "internalType": "uint256",
          "name": "_salePrice",
          "type": "uint256"
        }
      ],
      "name": "royaltyInfo",
      "outputs": [
        {
          "internalType": "address",
          "name": "receiver",
          "type": "address"
        },
        {
          "internalType": "uint256",
          "name": "royaltyAmount",
          "type": "uint256"
        }
      ],
      "stateMutability": "view",
      "type": "function"
    },
    {
      "inputs": [
        {
          "internalType": "address",
          "name": "from",
          "type": "address"
        },
        {
          "internalType": "address",
          "name": "to",
          "type": "address"
        },
        {
          "internalType": "uint256",
          "name": "tokenId",
          "type": "uint256"
        }
      ],
      "name": "safeTransferFrom",
      "outputs": [],
      "stateMutability": "nonpayable",
      "type": "function"
    },
    {
      "inputs": [
        {
          "internalType": "address",
          "name": "from",
          "type": "address"
        },
        {
          "internalType": "address",
          "name": "to",
          "type": "address"
        },
        {
          "internalType": "uint256",
          "name": "tokenId",
          "type": "uint256"
        },
        {
          "internalType": "bytes",
          "name": "data",
          "type": "bytes"
        }
      ],
      "name": "safeTransferFrom",
      "outputs": [],
      "stateMutability": "nonpayable",
      "type": "function"
    },
    {
      "inputs": [
        {
          "internalType": "address",
          "name": "operator",
          "type": "address"
        },
        {
          "internalType": "bool",
          "name": "approved",
          "type": "bool"
        }
      ],
      "name": "setApprovalForAll",
      "outputs": [],
      "stateMutability": "nonpayable",
      "type": "function"
    },
    {
      "inputs": [
        {
          "internalType": "uint256",
          "name": "_tokenId",
          "type": "uint256"
        },
        {
          "internalType": "address payable",
          "name": "_royaltiesRecipientAddress",
          "type": "address"
        },
        {
          "internalType": "uint96",
          "name": "_percentageBasisPoints",
          "type": "uint96"
        }
      ],
      "name": "setRoyalties",
      "outputs": [],
      "stateMutability": "nonpayable",
      "type": "function"
    },
    {
      "inputs": [
        {
          "internalType": "bytes4",
          "name": "interfaceId",
          "type": "bytes4"
        }
      ],
      "name": "supportsInterface",
      "outputs": [
        {
          "internalType": "bool",
          "name": "",
          "type": "bool"
        }
      ],
      "stateMutability": "view",
      "type": "function"
    },
    {
      "inputs": [],
      "name": "symbol",
      "outputs": [
        {
          "internalType": "string",
          "name": "",
          "type": "string"
        }
      ],
      "stateMutability": "view",
      "type": "function"
    },
    {
      "inputs": [
        {
          "internalType": "uint256",
          "name": "tokenId",
          "type": "uint256"
        }
      ],
      "name": "tokenURI",
      "outputs": [
        {
          "internalType": "string",
          "name": "",
          "type": "string"
        }
      ],
      "stateMutability": "view",
      "type": "function"
    },
    {
      "inputs": [
        {
          "internalType": "address",
          "name": "from",
          "type": "address"
        },
        {
          "internalType": "address",
          "name": "to",
          "type": "address"
        },
        {
          "internalType": "uint256",
          "name": "tokenId",
          "type": "uint256"
        }
      ],
      "name": "transferFrom",
      "outputs": [],
      "stateMutability": "nonpayable",
      "type": "function"
    },
    {
      "inputs": [
        {
          "internalType": "address",
          "name": "newOwner",
          "type": "address"
        }
      ],
      "name": "transferOwnership",
      "outputs": [],
      "stateMutability": "nonpayable",
      "type": "function"
    }
  ],
  "bytecode": "0x60806040523480156200001157600080fd5b50604051620022ee380380620022ee83398101604081905262000034916200024d565b8151829082906200004d906000906020850190620000f0565b50805162000063906001906020840190620000f0565b505050620000806200007a6200009a60201b60201c565b6200009e565b5050600980546001600160a01b031916331790556200030a565b3390565b600680546001600160a01b038381166001600160a01b0319831681179093556040519116919082907f8be0079c531659141344cd1fd0a4f28419497f9722a3daafe3b4186f6b6457e090600090a35050565b828054620000fe90620002b7565b90600052602060002090601f0160209004810192826200012257600085556200016d565b82601f106200013d57805160ff19168380011785556200016d565b828001600101855582156200016d579182015b828111156200016d57825182559160200191906001019062000150565b506200017b9291506200017f565b5090565b5b808211156200017b576000815560010162000180565b600082601f830112620001a857600080fd5b81516001600160401b0380821115620001c557620001c5620002f4565b604051601f8301601f19908116603f01168101908282118183101715620001f057620001f0620002f4565b816040528381526020925086838588010111156200020d57600080fd5b600091505b8382101562000231578582018301518183018401529082019062000212565b83821115620002435760008385830101525b9695505050505050565b600080604083850312156200026157600080fd5b82516001600160401b03808211156200027957600080fd5b620002878683870162000196565b935060208501519150808211156200029e57600080fd5b50620002ad8582860162000196565b9150509250929050565b600181811c90821680620002cc57607f821691505b60208210811415620002ee57634e487b7160e01b600052602260045260246000fd5b50919050565b634e487b7160e01b600052604160045260246000fd5b611fd4806200031a6000396000f3fe608060405234801561001057600080fd5b506004361061018d5760003560e01c80636352211e116100e3578063b88d4fde1161008c578063e094826b11610066578063e094826b14610371578063e985e9c514610382578063f2fde38b146103be57600080fd5b8063b88d4fde1461032b578063c87b56dd1461033e578063cad96cca1461035157600080fd5b80638da5cb5b116100bd5780638da5cb5b146102ff57806395d89b4114610310578063a22cb4651461031857600080fd5b80636352211e146102d157806370a08231146102e4578063715018a6146102f757600080fd5b806317b47cc4116101455780632a55205a1161011f5780632a55205a1461027957806342842e0e146102ab57806343bc1612146102be57600080fd5b806317b47cc4146102225780631df3cc5a1461024557806323b872dd1461026657600080fd5b8063081812fc11610176578063081812fc146101cf578063095ea7b3146101fa578063143094db1461020f57600080fd5b806301ffc9a71461019257806306fdde03146101ba575b600080fd5b6101a56101a0366004611bf9565b6103d1565b60405190151581526020015b60405180910390f35b6101c2610456565b6040516101b19190611dfd565b6101e26101dd366004611ca7565b6104e8565b6040516001600160a01b0390911681526020016101b1565b61020d610208366004611bcd565b61050f565b005b61020d61021d366004611cc0565b610646565b610235610230366004611ca7565b610700565b6040516101b19493929190611e10565b610258610253366004611c33565b6107c4565b6040519081526020016101b1565b61020d610274366004611ad9565b61089f565b61028c610287366004611ce7565b610926565b604080516001600160a01b0390931683526020830191909152016101b1565b61020d6102b9366004611ad9565b610a5f565b6009546101e2906001600160a01b031681565b6101e26102df366004611ca7565b610a7a565b6102586102f2366004611a7c565b610adf565b61020d610b79565b6006546001600160a01b03166101e2565b6101c2610b8d565b61020d610326366004611b9a565b610b9c565b61020d610339366004611b1a565b610bab565b6101c261034c366004611ca7565b610c33565b61036461035f366004611ca7565b610d61565b6040516101b19190611dea565b6009546001600160a01b03166101e2565b6101a5610390366004611aa0565b6001600160a01b03918216600090815260056020908152604080832093909416825291909152205460ff1690565b61020d6103cc366004611a7c565b610df0565b60006001600160e01b031982167fcad96cca00000000000000000000000000000000000000000000000000000000141561040d57506001919050565b6001600160e01b031982167f2a55205a00000000000000000000000000000000000000000000000000000000141561044757506001919050565b61045082610e80565b92915050565b60606000805461046590611edb565b80601f016020809104026020016040519081016040528092919081815260200182805461049190611edb565b80156104de5780601f106104b3576101008083540402835291602001916104de565b820191906000526020600020905b8154815290600101906020018083116104c157829003601f168201915b5050505050905090565b60006104f382610f1b565b506000908152600460205260409020546001600160a01b031690565b600061051a82610a7a565b9050806001600160a01b0316836001600160a01b031614156105a95760405162461bcd60e51b815260206004820152602160248201527f4552433732313a20617070726f76616c20746f2063757272656e74206f776e6560448201527f720000000000000000000000000000000000000000000000000000000000000060648201526084015b60405180910390fd5b336001600160a01b03821614806105c557506105c58133610390565b6106375760405162461bcd60e51b815260206004820152603e60248201527f4552433732313a20617070726f76652063616c6c6572206973206e6f7420746f60448201527f6b656e206f776e6572206e6f7220617070726f76656420666f7220616c6c000060648201526084016105a0565b6106418383610f7f565b505050565b61064e610fed565b604080516001808252818301909252600091816020015b6040805180820190915260008082526020820152815260200190600190039081610665579050509050818185815181106106a1576106a1611f47565b6020026020010151602001906001600160601b031690816001600160601b031681525050828185815181106106d8576106d8611f47565b60209081029190910101516001600160a01b0390911690526106fa8482611047565b50505050565b600a6020526000908152604090208054600182015460028301805492936001600160a01b039092169261073290611edb565b80601f016020809104026020016040519081016040528092919081815260200182805461075e90611edb565b80156107ab5780601f10610780576101008083540402835291602001916107ab565b820191906000526020600020905b81548152906001019060200180831161078e57829003601f168201915b505050600390930154919250506001600160601b031684565b6000806107d060085490565b90506107dc848261127a565b6107e7818585610646565b604080516080810182528281526001600160a01b0386811660208084019182528385018a81526001600160601b03891660608601526000878152600a8352959095208451815591516001830180546001600160a01b03191691909416179092559251805192939261085e9260028501920190611951565b5060609190910151600390910180546bffffffffffffffffffffffff19166001600160601b039092169190911790556008805460010190555b949350505050565b6108a933826113bc565b61091b5760405162461bcd60e51b815260206004820152602e60248201527f4552433732313a2063616c6c6572206973206e6f7420746f6b656e206f776e6560448201527f72206e6f7220617070726f76656400000000000000000000000000000000000060648201526084016105a0565b61064183838361143a565b600082815260076020526040812054819061094657506000905080610a58565b600084815260076020908152604080832080548251818502810185019093528083529192909190849084015b828210156109c157600084815260209081902060408051808201909152908401546001600160a01b0381168252600160a01b90046001600160601b031681830152825260019092019101610972565b505050509050806000815181106109da576109da611f47565b60209081029190910101515192506000805b8251811015610a3b57828181518110610a0757610a07611f47565b6020026020010151602001516001600160601b031682610a279190611e6b565b915080610a3381611f16565b9150506109ec565b50612710610a498683611ea5565b610a539190611e83565b925050505b9250929050565b61064183838360405180602001604052806000815250610bab565b6000818152600260205260408120546001600160a01b0316806104505760405162461bcd60e51b815260206004820152601860248201527f4552433732313a20696e76616c696420746f6b656e204944000000000000000060448201526064016105a0565b60006001600160a01b038216610b5d5760405162461bcd60e51b815260206004820152602960248201527f4552433732313a2061646472657373207a65726f206973206e6f74206120766160448201527f6c6964206f776e6572000000000000000000000000000000000000000000000060648201526084016105a0565b506001600160a01b031660009081526003602052604090205490565b610b81610fed565b610b8b6000611607565b565b60606001805461046590611edb565b610ba7338383611659565b5050565b610bb533836113bc565b610c275760405162461bcd60e51b815260206004820152602e60248201527f4552433732313a2063616c6c6572206973206e6f7420746f6b656e206f776e6560448201527f72206e6f7220617070726f76656400000000000000000000000000000000000060648201526084016105a0565b6106fa84848484611728565b6000818152600260205260409020546060906001600160a01b0316610cc05760405162461bcd60e51b815260206004820152602f60248201527f4552433732314d657461646174613a2055524920717565727920666f72206e6f60448201527f6e6578697374656e7420746f6b656e000000000000000000000000000000000060648201526084016105a0565b6000828152600a602052604090206002018054610cdc90611edb565b80601f0160208091040260200160405190810160405280929190818152602001828054610d0890611edb565b8015610d555780601f10610d2a57610100808354040283529160200191610d55565b820191906000526020600020905b815481529060010190602001808311610d3857829003601f168201915b50505050509050919050565b606060076000838152602001908152602001600020805480602002602001604051908101604052809291908181526020016000905b82821015610de557600084815260209081902060408051808201909152908401546001600160a01b0381168252600160a01b90046001600160601b031681830152825260019092019101610d96565b505050509050919050565b610df8610fed565b6001600160a01b038116610e745760405162461bcd60e51b815260206004820152602660248201527f4f776e61626c653a206e6577206f776e657220697320746865207a65726f206160448201527f646472657373000000000000000000000000000000000000000000000000000060648201526084016105a0565b610e7d81611607565b50565b60006001600160e01b031982167f80ac58cd000000000000000000000000000000000000000000000000000000001480610ee357506001600160e01b031982167f5b5e139f00000000000000000000000000000000000000000000000000000000145b8061045057507f01ffc9a7000000000000000000000000000000000000000000000000000000006001600160e01b0319831614610450565b6000818152600260205260409020546001600160a01b0316610e7d5760405162461bcd60e51b815260206004820152601860248201527f4552433732313a20696e76616c696420746f6b656e204944000000000000000060448201526064016105a0565b600081815260046020526040902080546001600160a01b0319166001600160a01b0384169081179091558190610fb482610a7a565b6001600160a01b03167f8c5be1e5ebec7d5bd14f71427d1e84f3dd0314c0f7b2291e5b200ac8c7c3b92560405160405180910390a45050565b6006546001600160a01b03163314610b8b5760405162461bcd60e51b815260206004820181905260248201527f4f776e61626c653a2063616c6c6572206973206e6f7420746865206f776e657260448201526064016105a0565b6000805b82518110156111f85760006001600160a01b031683828151811061107157611071611f47565b6020026020010151600001516001600160a01b031614156110d45760405162461bcd60e51b815260206004820152601b60248201527f526563697069656e742073686f756c642062652070726573656e74000000000060448201526064016105a0565b8281815181106110e6576110e6611f47565b6020026020010151602001516001600160601b03166000141561114b5760405162461bcd60e51b815260206004820181905260248201527f526f79616c74792076616c75652073686f756c6420626520706f73697469766560448201526064016105a0565b82818151811061115d5761115d611f47565b6020026020010151602001516001600160601b03168261117d9190611e6b565b9150600760008581526020019081526020016000208382815181106111a4576111a4611f47565b6020908102919091018101518254600181018455600093845292829020815191909201516001600160601b0316600160a01b026001600160a01b0390911617910155806111f081611f16565b91505061104b565b5061271081106112705760405162461bcd60e51b815260206004820152602560248201527f526f79616c747920746f74616c2076616c75652073686f756c64206265203c2060448201527f313030303000000000000000000000000000000000000000000000000000000060648201526084016105a0565b61064183836117b1565b6001600160a01b0382166112d05760405162461bcd60e51b815260206004820181905260248201527f4552433732313a206d696e7420746f20746865207a65726f206164647265737360448201526064016105a0565b6000818152600260205260409020546001600160a01b0316156113355760405162461bcd60e51b815260206004820152601c60248201527f4552433732313a20746f6b656e20616c7265616479206d696e7465640000000060448201526064016105a0565b6001600160a01b038216600090815260036020526040812080546001929061135e908490611e6b565b909155505060008181526002602052604080822080546001600160a01b0319166001600160a01b03861690811790915590518392907fddf252ad1be2c89b69c2b068fc378daa952ba7f163c4a11628f55a4df523b3ef908290a45050565b6000806113c883610a7a565b9050806001600160a01b0316846001600160a01b0316148061140f57506001600160a01b0380821660009081526005602090815260408083209388168352929052205460ff165b806108975750836001600160a01b0316611428846104e8565b6001600160a01b031614949350505050565b826001600160a01b031661144d82610a7a565b6001600160a01b0316146114c95760405162461bcd60e51b815260206004820152602560248201527f4552433732313a207472616e736665722066726f6d20696e636f72726563742060448201527f6f776e657200000000000000000000000000000000000000000000000000000060648201526084016105a0565b6001600160a01b0382166115445760405162461bcd60e51b8152602060048201526024808201527f4552433732313a207472616e7366657220746f20746865207a65726f2061646460448201527f726573730000000000000000000000000000000000000000000000000000000060648201526084016105a0565b61154f600082610f7f565b6001600160a01b0383166000908152600360205260408120805460019290611578908490611ec4565b90915550506001600160a01b03821660009081526003602052604081208054600192906115a6908490611e6b565b909155505060008181526002602052604080822080546001600160a01b0319166001600160a01b0386811691821790925591518493918716917fddf252ad1be2c89b69c2b068fc378daa952ba7f163c4a11628f55a4df523b3ef91a4505050565b600680546001600160a01b038381166001600160a01b0319831681179093556040519116919082907f8be0079c531659141344cd1fd0a4f28419497f9722a3daafe3b4186f6b6457e090600090a35050565b816001600160a01b0316836001600160a01b031614156116bb5760405162461bcd60e51b815260206004820152601960248201527f4552433732313a20617070726f766520746f2063616c6c65720000000000000060448201526064016105a0565b6001600160a01b03838116600081815260056020908152604080832094871680845294825291829020805460ff191686151590811790915591519182527f17307eab39ab6107e8899845ad3d59bd9653f200f220920489ca2b5937696c31910160405180910390a3505050565b61173384848461143a565b61173f848484846117ee565b6106fa5760405162461bcd60e51b815260206004820152603260248201527f4552433732313a207472616e7366657220746f206e6f6e20455243373231526560448201527f63656976657220696d706c656d656e746572000000000000000000000000000060648201526084016105a0565b7f3fa96d7b6bcbfe71ef171666d84db3cf52fa2d1c8afdb1cc8e486177f208b7df82826040516117e2929190611e52565b60405180910390a15050565b60006001600160a01b0384163b1561194657604051630a85bd0160e11b81526001600160a01b0385169063150b7a0290611832903390899088908890600401611dae565b602060405180830381600087803b15801561184c57600080fd5b505af192505050801561187c575060408051601f3d908101601f1916820190925261187991810190611c16565b60015b61192c573d8080156118aa576040519150601f19603f3d011682016040523d82523d6000602084013e6118af565b606091505b5080516119245760405162461bcd60e51b815260206004820152603260248201527f4552433732313a207472616e7366657220746f206e6f6e20455243373231526560448201527f63656976657220696d706c656d656e746572000000000000000000000000000060648201526084016105a0565b805181602001fd5b6001600160e01b031916630a85bd0160e11b149050610897565b506001949350505050565b82805461195d90611edb565b90600052602060002090601f01602090048101928261197f57600085556119c5565b82601f1061199857805160ff19168380011785556119c5565b828001600101855582156119c5579182015b828111156119c55782518255916020019190600101906119aa565b506119d19291506119d5565b5090565b5b808211156119d157600081556001016119d6565b600067ffffffffffffffff80841115611a0557611a05611f5d565b604051601f8501601f19908116603f01168101908282118183101715611a2d57611a2d611f5d565b81604052809350858152868686011115611a4657600080fd5b858560208301376000602087830101525050509392505050565b80356001600160601b0381168114611a7757600080fd5b919050565b600060208284031215611a8e57600080fd5b8135611a9981611f73565b9392505050565b60008060408385031215611ab357600080fd5b8235611abe81611f73565b91506020830135611ace81611f73565b809150509250929050565b600080600060608486031215611aee57600080fd5b8335611af981611f73565b92506020840135611b0981611f73565b929592945050506040919091013590565b60008060008060808587031215611b3057600080fd5b8435611b3b81611f73565b93506020850135611b4b81611f73565b925060408501359150606085013567ffffffffffffffff811115611b6e57600080fd5b8501601f81018713611b7f57600080fd5b611b8e878235602084016119ea565b91505092959194509250565b60008060408385031215611bad57600080fd5b8235611bb881611f73565b915060208301358015158114611ace57600080fd5b60008060408385031215611be057600080fd5b8235611beb81611f73565b946020939093013593505050565b600060208284031215611c0b57600080fd5b8135611a9981611f88565b600060208284031215611c2857600080fd5b8151611a9981611f88565b600080600060608486031215611c4857600080fd5b833567ffffffffffffffff811115611c5f57600080fd5b8401601f81018613611c7057600080fd5b611c7f868235602084016119ea565b9350506020840135611c9081611f73565b9150611c9e60408501611a60565b90509250925092565b600060208284031215611cb957600080fd5b5035919050565b600080600060608486031215611cd557600080fd5b833592506020840135611c9081611f73565b60008060408385031215611cfa57600080fd5b50508035926020909101359150565b600081518084526020808501945080840160005b83811015611d5657815180516001600160a01b031688528301516001600160601b03168388015260409096019590820190600101611d1d565b509495945050505050565b6000815180845260005b81811015611d8757602081850181015186830182015201611d6b565b81811115611d99576000602083870101525b50601f01601f19169290920160200192915050565b60006001600160a01b03808716835280861660208401525083604083015260806060830152611de06080830184611d61565b9695505050505050565b602081526000611a996020830184611d09565b602081526000611a996020830184611d61565b8481526001600160a01b0384166020820152608060408201526000611e386080830185611d61565b90506001600160601b038316606083015295945050505050565b8281526040602082015260006108976040830184611d09565b60008219821115611e7e57611e7e611f31565b500190565b600082611ea057634e487b7160e01b600052601260045260246000fd5b500490565b6000816000190483118215151615611ebf57611ebf611f31565b500290565b600082821015611ed657611ed6611f31565b500390565b600181811c90821680611eef57607f821691505b60208210811415611f1057634e487b7160e01b600052602260045260246000fd5b50919050565b6000600019821415611f2a57611f2a611f31565b5060010190565b634e487b7160e01b600052601160045260246000fd5b634e487b7160e01b600052603260045260246000fd5b634e487b7160e01b600052604160045260246000fd5b6001600160a01b0381168114610e7d57600080fd5b6001600160e01b031981168114610e7d57600080fdfea26469706673582212201d8bc706a7528d49760a8b8db87925f1e528ec157ba3f858531decdb5f7b1e4464736f6c63430008070033",
  "linkReferences": {},
  "deployedLinkReferences": {}
}