{
  "_format": "hh-sol-artifact-1",
  "contractName": "OperatorRole",
  "sourceName": "contracts/role-operator/contracts/OperatorRole.sol",
  "abi": [
    {
      "anonymous": false,
      "inputs": [
        {
          "indexed": false,
          "internalType": "uint8",
          "name": "version",
          "type": "uint8"
        }
      ],
      "name": "Initialized",
      "type": "event"
    },
    {
      "anonymous": false,
      "inputs": [
        {
          "indexed": true,
          "internalType": "address",
          "name": "previousOwner",
          "type": "address"
        },
        {
          "indexed": true,
          "internalType": "address",
          "name": "newOwner",
          "type": "address"
        }
      ],
      "name": "OwnershipTransferred",
      "type": "event"
    },
    {
      "inputs": [],
      "name": "__OperatorRole_init",
      "outputs": [],
      "stateMutability": "nonpayable",
      "type": "function"
    },
    {
      "inputs": [
        {
          "internalType": "address",
          "name": "operator",
          "type": "address"
        }
      ],
      "name": "addOperator",
      "outputs": [],
      "stateMutability": "nonpayable",
      "type": "function"
    },
    {
      "inputs": [],
      "name": "owner",
      "outputs": [
        {
          "internalType": "address",
          "name": "",
          "type": "address"
        }
      ],
      "stateMutability": "view",
      "type": "function"
    },
    {
      "inputs": [
        {
          "internalType": "address",
          "name": "operator",
          "type": "address"
        }
      ],
      "name": "removeOperator",
      "outputs": [],
      "stateMutability": "nonpayable",
      "type": "function"
    },
    {
      "inputs": [],
      "name": "renounceOwnership",
      "outputs": [],
      "stateMutability": "nonpayable",
      "type": "function"
    },
    {
      "inputs": [
        {
          "internalType": "address",
          "name": "newOwner",
          "type": "address"
        }
      ],
      "name": "transferOwnership",
      "outputs": [],
      "stateMutability": "nonpayable",
      "type": "function"
    }
  ],
  "bytecode": "0x608060405234801561001057600080fd5b5061050d806100206000396000f3fe608060405234801561001057600080fd5b50600436106100725760003560e01c80639870d7fe116100505780639870d7fe146100a8578063ac8a584a146100bb578063f2fde38b146100ce57600080fd5b80632ff26a0a14610077578063715018a6146100815780638da5cb5b14610089575b600080fd5b61007f6100e1565b005b61007f61020e565b603354604080516001600160a01b039092168252519081900360200190f35b61007f6100b63660046104a7565b610222565b61007f6100c93660046104a7565b61024e565b61007f6100dc3660046104a7565b610277565b600054610100900460ff16158080156101015750600054600160ff909116105b8061011b5750303b15801561011b575060005460ff166001145b6101925760405162461bcd60e51b815260206004820152602e60248201527f496e697469616c697a61626c653a20636f6e747261637420697320616c72656160448201527f647920696e697469616c697a656400000000000000000000000000000000000060648201526084015b60405180910390fd5b6000805460ff1916600117905580156101b5576000805461ff0019166101001790555b6101bd610304565b6101c561036f565b801561020b576000805461ff0019169055604051600181527f7f26b83ff96e1f2b6a682f133852f6798a09c465da95921460cefb38474024989060200160405180910390a15b50565b6102166103e3565b610220600061043d565b565b61022a6103e3565b6001600160a01b03166000908152606560205260409020805460ff19166001179055565b6102566103e3565b6001600160a01b03166000908152606560205260409020805460ff19169055565b61027f6103e3565b6001600160a01b0381166102fb5760405162461bcd60e51b815260206004820152602660248201527f4f776e61626c653a206e6577206f776e657220697320746865207a65726f206160448201527f64647265737300000000000000000000000000000000000000000000000000006064820152608401610189565b61020b8161043d565b600054610100900460ff166102205760405162461bcd60e51b815260206004820152602b60248201527f496e697469616c697a61626c653a20636f6e7472616374206973206e6f74206960448201526a6e697469616c697a696e6760a81b6064820152608401610189565b600054610100900460ff166103da5760405162461bcd60e51b815260206004820152602b60248201527f496e697469616c697a61626c653a20636f6e7472616374206973206e6f74206960448201526a6e697469616c697a696e6760a81b6064820152608401610189565b6102203361043d565b6033546001600160a01b031633146102205760405162461bcd60e51b815260206004820181905260248201527f4f776e61626c653a2063616c6c6572206973206e6f7420746865206f776e65726044820152606401610189565b603380546001600160a01b038381167fffffffffffffffffffffffff0000000000000000000000000000000000000000831681179093556040519116919082907f8be0079c531659141344cd1fd0a4f28419497f9722a3daafe3b4186f6b6457e090600090a35050565b6000602082840312156104b957600080fd5b81356001600160a01b03811681146104d057600080fd5b939250505056fea2646970667358221220fff2f6dfa14f6c1ba927ead457ffef93be8d1f76dabbbbe0bdaaac2e498558e164736f6c63430008070033",
  "linkReferences": {},
  "deployedLinkReferences": {}
}