{
  "_format": "hh-sol-artifact-1",
  "contractName": "LibBidDataV1",
  "sourceName": "contracts/auction/contracts/libs/LibBidDataV1.sol",
  "abi": [
    {
      "inputs": [],
      "name": "V1",
      "outputs": [
        {
          "internalType": "bytes4",
          "name": "",
          "type": "bytes4"
        }
      ],
      "stateMutability": "view",
      "type": "function"
    }
  ],
  "bytecode": "0x60c9610038600b82828239805160001a607314602b57634e487b7160e01b600052600060045260246000fd5b30600052607381538281f3fe730000000000000000000000000000000000000000301460806040526004361060335760003560e01c80633ee569bf146038575b600080fd5b605e7f4c23426613a5dc69e08fbd2787e6210aa679d4522e95a89d4dd88c4fd13a228381565b6040517fffffffff00000000000000000000000000000000000000000000000000000000909116815260200160405180910390f3fea264697066735822122080527d77f4bb6002e2dbe891c78ccff80971fa86b7fa97b6361112f89987db7964736f6c63430008070033",
  "linkReferences": {},
  "deployedLinkReferences": {}
}